{
  "_format": "hh-sol-artifact-1",
  "contractName": "NullifierRegistry",
  "sourceName": "src/NullifierRegistry.sol",
  "abi": [
    {
      "inputs": [],
      "stateMutability": "nonpayable",
      "type": "constructor"
    },
    {
      "anonymous": false,
      "inputs": [
        {
          "indexed": false,
          "internalType": "uint256",
          "name": "count",
          "type": "uint256"
        },
        {
          "indexed": false,
          "internalType": "uint256",
          "name": "timestamp",
          "type": "uint256"
        }
      ],
      "name": "NullifierBatchRecorded",
      "type": "event"
    },
    {
      "anonymous": false,
      "inputs": [
        {
          "indexed": true,
          "internalType": "bytes32",
          "name": "nullifier",
          "type": "bytes32"
        },
        {
          "indexed": false,
          "internalType": "uint256",
          "name": "previousTimestamp",
          "type": "uint256"
        },
        {
          "indexed": false,
          "internalType": "address",
          "name": "originalSubmitter",
          "type": "address"
        }
      ],
      "name": "NullifierCheckFailed",
      "type": "event"
    },
    {
      "anonymous": false,
      "inputs": [
        {
          "indexed": true,
          "internalType": "bytes32",
          "name": "nullifier",
          "type": "bytes32"
        },
        {
          "indexed": true,
          "internalType": "address",
          "name": "submitter",
          "type": "address"
        },
        {
          "indexed": false,
          "internalType": "uint256",
          "name": "timestamp",
          "type": "uint256"
        }
      ],
      "name": "NullifierRecorded",
      "type": "event"
    },
    {
      "inputs": [],
      "name": "admin",
      "outputs": [
        {
          "internalType": "address",
          "name": "",
          "type": "address"
        }
      ],
      "stateMutability": "view",
      "type": "function"
    },
    {
      "inputs": [
        {
          "internalType": "bytes32[]",
          "name": "nullifiers",
          "type": "bytes32[]"
        }
      ],
      "name": "areNullifiersValid",
      "outputs": [
        {
          "internalType": "bool[]",
          "name": "",
          "type": "bool[]"
        }
      ],
      "stateMutability": "view",
      "type": "function"
    },
    {
      "inputs": [
        {
          "internalType": "bytes32",
          "name": "nullifier",
          "type": "bytes32"
        }
      ],
      "name": "getNullifierInfo",
      "outputs": [
        {
          "internalType": "uint256",
          "name": "timestamp",
          "type": "uint256"
        },
        {
          "internalType": "address",
          "name": "submitter",
          "type": "address"
        }
      ],
      "stateMutability": "view",
      "type": "function"
    },
    {
      "inputs": [
        {
          "internalType": "bytes32",
          "name": "nullifier",
          "type": "bytes32"
        }
      ],
      "name": "isNullifierValid",
      "outputs": [
        {
          "internalType": "bool",
          "name": "",
          "type": "bool"
        }
      ],
      "stateMutability": "view",
      "type": "function"
    },
    {
      "inputs": [
        {
          "internalType": "bytes32",
          "name": "",
          "type": "bytes32"
        }
      ],
      "name": "nullifierSubmitter",
      "outputs": [
        {
          "internalType": "address",
          "name": "",
          "type": "address"
        }
      ],
      "stateMutability": "view",
      "type": "function"
    },
    {
      "inputs": [],
      "name": "pause",
      "outputs": [],
      "stateMutability": "nonpayable",
      "type": "function"
    },
    {
      "inputs": [],
      "name": "paused",
      "outputs": [
        {
          "internalType": "bool",
          "name": "",
          "type": "bool"
        }
      ],
      "stateMutability": "view",
      "type": "function"
    },
    {
      "inputs": [
        {
          "internalType": "bytes32",
          "name": "nullifier",
          "type": "bytes32"
        }
      ],
      "name": "recordNullifier",
      "outputs": [
        {
          "internalType": "bool",
          "name": "",
          "type": "bool"
        }
      ],
      "stateMutability": "nonpayable",
      "type": "function"
    },
    {
      "inputs": [
        {
          "internalType": "bytes32[]",
          "name": "nullifiers",
          "type": "bytes32[]"
        }
      ],
      "name": "recordNullifierBatch",
      "outputs": [
        {
          "internalType": "uint256",
          "name": "successCount",
          "type": "uint256"
        }
      ],
      "stateMutability": "nonpayable",
      "type": "function"
    },
    {
      "inputs": [
        {
          "internalType": "address",
          "name": "newAdmin",
          "type": "address"
        }
      ],
      "name": "transferAdmin",
      "outputs": [],
      "stateMutability": "nonpayable",
      "type": "function"
    },
    {
      "inputs": [],
      "name": "unpause",
      "outputs": [],
      "stateMutability": "nonpayable",
      "type": "function"
    },
    {
      "inputs": [
        {
          "internalType": "bytes32",
          "name": "",
          "type": "bytes32"
        }
      ],
      "name": "usedNullifiers",
      "outputs": [
        {
          "internalType": "uint256",
          "name": "",
          "type": "uint256"
        }
      ],
      "stateMutability": "view",
      "type": "function"
    }
  ],
  "bytecode": "0x6080806040523461002f57600280546001600160a81b0319163360ff60a01b19161790556107fa90816100358239f35b600080fdfe608060408181526004918236101561001657600080fd5b600092833560e01c918263206137aa1461057e575081633f4ba83a146105495781635c975abb146105225781636fdb20a1146104ef57816375829def1461045b5781638456cb591461042057816396ede63d14610294578163bb6baea714610268578163de350f6e14610157578163ec52fbdc14610112578163f2da723c146100d4575063f851a440146100a957600080fd5b346100d057816003193601126100d05760025490516001600160a01b039091168152602090f35b5080fd5b82843461010f57602036600319011261010f575061010660209261010060ff60025460a01c16156105f7565b35610638565b90519015158152f35b80fd5b839150346100d05760203660031901126100d05735815260208181528282205460018252918390205492519182526001600160a01b0390921691810191909152604090f35b839150346100d057601f61016a366105a5565b939092610176856106f5565b9386519484199485910116850185811067ffffffffffffffff82111761025557879695939497528483526101a9856106f5565b946020978885019601368737845b8181106101ff575050505083519485948186019282875251809352850193925b8281106101e657505050500390f35b83511515855286955093810193928101926001016101d7565b6102108183859b9897999a9b610748565b35855284865288852054158751821015610242579061023791878260051b8a010152610723565b9796959394976101b7565b634e487b7160e01b865260328552602486fd5b634e487b7160e01b845260418352602484fd5b9050346102905760203660031901126102905760209282913581528084522054159051908152f35b8280fd5b82843461010f57906102a5366105a5565b9190926102ba60ff60025460a01c16156105f7565b8092815b8183106102fc57602085857f8448af1ba9d4b12707fae26a317e2c2c75b0430976e3ec4362c237d784a40f438180518481524286820152a151908152f35b90919361030a858488610748565b3582526020828152848320546103a55761039e916103989161032d88878b610748565b358552848152428786205561034388878b610748565b3585526001815286852080546001600160a01b0319163317905561036888878b610748565b357fed1fe28d990b851dbd21073a0e36b4b62ac99ee2ed386a1f352ce814ddf42c618851924284523393a3610723565b94610723565b91906102be565b9461039e91957fc6019125ed35c481b03aea875d5a37d8b18d0fbdc60ae31bdce520ee635040628860016103da858984610748565b35936103e7868a85610748565b3588528781526103fc868a8c8b205495610748565b358852528786205488519182526001600160a01b03166020820152604090a2610723565b833461010f578060031936011261010f57600254610448336001600160a01b0383161461076e565b60ff60a01b1916600160a01b1760025580f35b91905034610290576020366003190112610290576001600160a01b038235818116939192908490036104eb57610497600254938416331461076e565b83156104b05750506001600160a01b0319161760025580f35b906020606492519162461bcd60e51b83528201526015602482015274496e76616c69642061646d696e206164647265737360581b6044820152fd5b8480fd5b9050346102905760203660031901126102905735825260016020908152918190205490516001600160a01b039091168152f35b5050346100d057816003193601126100d05760209060ff60025460a01c1690519015158152f35b833461010f578060031936011261010f57600254610571336001600160a01b0383161461076e565b60ff60a01b191660025580f35b929150346105a15760203660031901126105a15735835260208381529220548152f35b8380fd5b9060206003198301126105f25760043567ffffffffffffffff928382116105f257806023830112156105f25781600401359384116105f25760248460051b830101116105f2576024019190565b600080fd5b156105fe57565b60405162461bcd60e51b815260206004820152601260248201527110dbdb9d1c9858dd081a5cc81c185d5cd95960721b6044820152606490fd5b60009080825281602052604080832054806106aa5750828282939452806020524282822055600160205220336bffffffffffffffffffffffff60a01b82541617905551904282527fed1fe28d990b851dbd21073a0e36b4b62ac99ee2ed386a1f352ce814ddf42c6160203393a3600190565b600160209081528285205492519182526001600160a01b03909216918101919091527fc6019125ed35c481b03aea875d5a37d8b18d0fbdc60ae31bdce520ee6350406290604090a290565b67ffffffffffffffff811161070d5760051b60200190565b634e487b7160e01b600052604160045260246000fd5b60001981146107325760010190565b634e487b7160e01b600052601160045260246000fd5b91908110156107585760051b0190565b634e487b7160e01b600052603260045260246000fd5b1561077557565b60405162461bcd60e51b815260206004820152602160248201527f4f6e6c792061646d696e2063616e2063616c6c20746869732066756e6374696f6044820152603760f91b6064820152608490fdfea26469706673582212200f3ef6bab80952329fb7d28a7e2657f4e52c94634b72a224cb474af54e35924364736f6c63430008140033",
  "linkReferences": {},
  "deployedLinkReferences": {}
}