{
  "_format": "hh-sol-artifact-1",
  "contractName": "RedactionVerifier",
  "sourceName": "src/RedactionVerifier.sol",
  "abi": [
    {
      "inputs": [
        {
          "internalType": "bytes",
          "name": "",
          "type": "bytes"
        },
        {
          "internalType": "bytes32",
          "name": "",
          "type": "bytes32"
        },
        {
          "internalType": "bytes32",
          "name": "",
          "type": "bytes32"
        },
        {
          "internalType": "bytes32",
          "name": "",
          "type": "bytes32"
        },
        {
          "internalType": "bytes32",
          "name": "",
          "type": "bytes32"
        }
      ],
      "name": "verifyProof",
      "outputs": [
        {
          "internalType": "bool",
          "name": "",
          "type": "bool"
        }
      ],
      "stateMutability": "pure",
      "type": "function"
    }
  ],
  "bytecode": "0x608080604052346100155760af908161001b8239f35b600080fdfe6080806040526004361015601257600080fd5b600090813560e01c63625e358114602857600080fd5b3460715760a036600319011260715760043567ffffffffffffffff8082116075573660238301121560755781600401359081116075573691016024011160715780600160209252f35b5080fd5b8380fdfea2646970667358221220716befc637dc5467c3565674f15b6f0865474ebfe4417333c387c2f50ef08bff64736f6c63430008140033",
  "linkReferences": {},
  "deployedLinkReferences": {}
}