{"src/MedicalDataManager.sol":{"MedicalDataManager":{"abi":[{"inputs":[],"stateMutability":"nonpayable","type":"constructor"},{"anonymous":false,"inputs":[{"indexed":true,"internalType":"string","name":"patientId","type":"string"},{"indexed":false,"internalType":"string","name":"ipfsHash","type":"string"},{"indexed":false,"internalType":"bytes32","name":"ciphertextHash","type":"bytes32"},{"indexed":false,"internalType":"uint256","name":"timestamp","type":"uint256"}],"name":"DataStored","type":"event"},{"anonymous":false,"inputs":[{"indexed":true,"internalType":"uint256","name":"requestId","type":"uint256"},{"indexed":true,"internalType":"address","name":"approver","type":"address"},{"indexed":false,"internalType":"uint256","name":"approvals","type":"uint256"},{"indexed":false,"internalType":"uint256","name":"timestamp","type":"uint256"}],"name":"RedactionApproved","type":"event"},{"anonymous":false,"inputs":[{"indexed":true,"internalType":"uint256","name":"requestId","type":"uint256"},{"indexed":true,"internalType":"string","name":"patientId","type":"string"},{"indexed":false,"internalType":"string","name":"redactionType","type":"string"},{"indexed":false,"internalType":"string","name":"reason","type":"string"},{"indexed":false,"internalType":"address","name":"requester","type":"address"},{"indexed":false,"internalType":"uint256","name":"timestamp","type":"uint256"}],"name":"RedactionRequested","type":"event"},{"inputs":[{"internalType":"uint256","name":"requestId","type":"uint256"}],"name":"approveRedaction","outputs":[],"stateMutability":"nonpayable","type":"function"},{"inputs":[{"internalType":"address","name":"","type":"address"}],"name":"authorizedUsers","outputs":[{"internalType":"bool","name":"","type":"bool"}],"stateMutability":"view","type":"function"},{"inputs":[{"internalType":"string","name":"","type":"string"}],"name":"medicalRecords","outputs":[{"internalType":"string","name":"ipfsHash","type":"string"},{"internalType":"bytes32","name":"ciphertextHash","type":"bytes32"},{"internalType":"uint256","name":"lastUpdated","type":"uint256"}],"stateMutability":"view","type":"function"},{"inputs":[],"name":"nextRequestId","outputs":[{"internalType":"uint256","name":"","type":"uint256"}],"stateMutability":"view","type":"function"},{"inputs":[{"internalType":"uint256","name":"","type":"uint256"},{"internalType":"address","name":"","type":"address"}],"name":"redactionApprovals","outputs":[{"internalType":"bool","name":"","type":"bool"}],"stateMutability":"view","type":"function"},{"inputs":[{"internalType":"uint256","name":"","type":"uint256"}],"name":"redactionRequests","outputs":[{"internalType":"string","name":"patientId","type":"string"},{"internalType":"string","name":"redactionType","type":"string"},{"internalType":"string","name":"reason","type":"string"},{"internalType":"address","name":"requester","type":"address"},{"internalType":"uint256","name":"timestamp","type":"uint256"},{"internalType":"bool","name":"executed","type":"bool"},{"internalType":"uint256","name":"approvals","type":"uint256"}],"stateMutability":"view","type":"function"},{"inputs":[{"internalType":"string","name":"patientId","type":"string"},{"internalType":"string","name":"redactionType","type":"string"},{"internalType":"string","name":"reason","type":"string"}],"name":"requestDataRedaction","outputs":[],"stateMutability":"nonpayable","type":"function"},{"inputs":[{"internalType":"string","name":"patientId","type":"string"},{"internalType":"string","name":"redactionType","type":"string"},{"internalType":"string","name":"reason","type":"string"},{"internalType":"bytes","name":"proof","type":"bytes"},{"internalType":"bytes32","name":"policyHash","type":"bytes32"},{"internalType":"bytes32","name":"merkleRoot","type":"bytes32"},{"internalType":"bytes32","name":"originalHash","type":"bytes32"},{"internalType":"bytes32","name":"redactedHash","type":"bytes32"}],"name":"requestDataRedactionWithProof","outputs":[],"stateMutability":"nonpayable","type":"function"},{"inputs":[],"name":"requireProofs","outputs":[{"internalType":"bool","name":"","type":"bool"}],"stateMutability":"view","type":"function"},{"inputs":[{"internalType":"address","name":"user","type":"address"},{"internalType":"bool","name":"enabled","type":"bool"}],"name":"setAuthorized","outputs":[],"stateMutability":"nonpayable","type":"function"},{"inputs":[{"internalType":"bool","name":"value","type":"bool"}],"name":"setRequireProofs","outputs":[],"stateMutability":"nonpayable","type":"function"},{"inputs":[{"internalType":"address","name":"verifierAddr","type":"address"}],"name":"setVerifier","outputs":[],"stateMutability":"nonpayable","type":"function"},{"inputs":[{"internalType":"string","name":"patientId","type":"string"},{"internalType":"string","name":"ipfsHash","type":"string"},{"internalType":"bytes32","name":"ciphertextHash","type":"bytes32"}],"name":"storeMedicalData","outputs":[],"stateMutability":"nonpayable","type":"function"},{"inputs":[],"name":"verifier","outputs":[{"internalType":"address","name":"","type":"address"}],"stateMutability":"view","type":"function"}],"evm":{"bytecode":{"linkReferences":{},"object":"6080806040523461006b578067afe5dda477b3abe0602061002593015260208152610070565b6100426040516769a0b4c7af1c8674602082015260208152610070565b3360005260036020526040600020600160ff198254161790556040516121139081620000a28239f35b600080fd5b604081019081106001600160401b0382111761008b57604052565b634e487b7160e01b600052604160045260246000fdfe608080604052600436101561001357600080fd5b60003560e01c90816311e5b5a914611d0e575080631828983a14611ccf5780632544a470146119265780632b7ac3f3146118fd57806343e2386414610ef75780635437988d14610e8257806365ade20414610ad55780636a84a98514610ab7578063711bf9b214610a2c578063ad4bae2314610972578063c9f020ac146108d5578063d0173cf514610136578063e73e07d6146100e45763fa74b97c146100b957600080fd5b346100df5760003660031901126100df57602060ff60055460a01c166040519015158152f35b600080fd5b346100df5760403660031901126100df576024356001600160a01b038116908190036100df576004356000526002602052604060002090600052602052602060ff604060002054166040519015158152f35b346100df5760603660031901126100df576004356001600160401b0381116100df57610166903690600401611e1d565b906024356001600160401b0381116100df57610186903690600401611e1d565b90926044356001600160401b0381116100df576101a7903690600401611e1d565b9290916101c760405167cd7b8eaf1f8859fe602082015260208152611e9f565b6101e4604051673f3d9ef70237f0b5602082015260208152611e9f565b610201604051676e5e8db6c80fc70c602082015260208152611e9f565b61021e604051678318afbd3453c1fa602082015260208152611e9f565b61023b604051671ba55f082f10cd35602082015260208152611e9f565b33600052600360205261025560ff6040600020541661200f565b61027260405167147c892dbc725fc4602082015260208152611e9f565b61028f6040516753b0c4e3d61bb742602082015260208152611e9f565b6102ac604051676255a1abc9af283a602082015260208152611e9f565b6102c9604051671c4925a2c971bcb8602082015260208152611e9f565b6102e66040516703a2c3e489ea0648602082015260208152611e9f565b61030360405167e6bae20b48c27605602082015260208152611e9f565b6103206040516719b0b460b566cf9f602082015260208152611e9f565b60055460ff8160a01c1690816108c2575b5061088c57610353604051679d08c31a0115628e602082015260208152611e9f565b6103706040516773f18aa3be90e653602082015260208152611e9f565b61038d604051674f3a76d1e9fdc1a0602082015260208152611e9f565b61039860045461206d565b94856004556103ba6040516704a2c4c40fa00667602082015260208152611e9f565b6040516103c681611e84565b6103d1368484611fc9565b81526103de36858a611fc9565b60208201526103ee368787611fc9565b6040820152336060820152426080820152600060a0820152600060c082015286600052600160205260406000209080518051906001600160401b0382116106df57819061043b8554611e4a565b601f811161083c575b50602090601f83116001146107d0576000926107c5575b50508160011b916000199060031b1c19161782555b60208101518051906001600160401b0382116106df5781906104956001860154611e4a565b601f8111610772575b50602090601f8311600114610700576000926106f5575b50508160011b916000199060031b1c19161760018301555b60408101518051906001600160401b0382116106df576104f06002850154611e4a565b601f8111610698575b50602090601f831160011461060b576000805160206120be8339815191529998979593836105fb98969460069460c094600092610600575b50508160011b916000199060031b1c19161760028501555b6003840160018060a01b036060830151166bffffffffffffffffffffffff60a01b8254161790556080810151600485015561059960a08201511515600586019060ff801983541691151516179055565b01519101556105bb60405167c8372f39ce4b9071602082015260208152611e9f565b6105d860405167369448638e435bf7602082015260208152611e9f565b81604051928392833781016000815203902096604051948594429333938761207c565b0390a3005b015190508f80610531565b906002850160005260206000209160005b601f198516811061068057509360018460069460c0946000805160206120be8339815191529e9d9c9a986105fb9c9a98601f19811610610667575b505050811b016002850155610549565b015160001960f88460031b161c191690558f8080610657565b9192602060018192868501518155019401920161061c565b600285016000526020600020601f840160051c8101602085106106d8575b601f830160051c820181106106cc5750506104f9565b600081556001016106b6565b50806106b6565b634e487b7160e01b600052604160045260246000fd5b015190508b806104b5565b9250600185016000526020600020906000935b601f1984168510610757576001945083601f1981161061073e575b505050811b0160018301556104cd565b015160001960f88460031b161c191690558b808061072e565b81810151835560209485019460019093019290910190610713565b909150600185016000526020600020601f840160051c8101602085106107be575b90849392915b601f830160051c820181106107af57505061049e565b60008155859450600101610799565b5080610793565b015190508b8061045b565b9250846000526020600020906000935b601f1984168510610821576001945083601f19811610610808575b505050811b018255610470565b015160001960f88460031b161c191690558b80806107fb565b818101518355602094850194600190930192909101906107e0565b909150846000526020600020601f840160051c810160208510610885575b90849392915b601f830160051c82018110610876575050610444565b60008155859450600101610860565b508061085a565b60405162461bcd60e51b815260206004820152600e60248201526d141c9bdbd9881c995c5d5a5c995960921b6044820152606490fd5b6001600160a01b03161515905087610331565b346100df5760203660031901126100df576004356001600160401b0381116100df57366023820112156100df57610931602061091e610963933690602481600401359101611fc9565b8160405193828580945193849201611f81565b8101600081520301902061094481611edb565b9060026001820154910154604051938493606085526060850190611fa4565b91602084015260408301520390f35b346100df5760203660031901126100df5760043560005260016020526109f5604060002061099f81611edb565b906109ac60018201611edb565b6109b860028301611edb565b9160018060a01b0360038201541692610a11600483015491610a03600660ff60058701541695015495604051998a9960e08b5260e08b0190611fa4565b9089820360208b0152611fa4565b908782036040890152611fa4565b9360608601526080850152151560a084015260c08301520390f35b346100df5760403660031901126100df57610a45611e07565b60243580151581036100df57610ab591610a726040516722b720bfaba8ebfb602082015260208152611e9f565b610a8f604051677c73f664b4a414c6602082015260208152611e9f565b60018060a01b0316600052600360205260406000209060ff801983541691151516179055565b005b346100df5760003660031901126100df576020600454604051908152f35b346100df5760603660031901126100df576001600160401b036004358181116100df57610b06903690600401611e1d565b906024358381116100df57610b1f903690600401611e1d565b929091610b3f60405167eae7138c8e8cb7e4602082015260208152611e9f565b610b5c604051673f3d9ef70237f0b5602082015260208152611e9f565b610b79604051676e5e8db6c80fc70c602082015260208152611e9f565b610b96604051678318afbd3453c1fa602082015260208152611e9f565b610bb3604051671ba55f082f10cd35602082015260208152611e9f565b336000526003602052610bcd60ff6040600020541661200f565b610bea60405167147c892dbc725fc4602082015260208152611e9f565b610c076040516753b0c4e3d61bb742602082015260208152611e9f565b610c246040516725c8ea7ba1060751602082015260208152611e9f565b610c41604051678a54a3fd3841ca85602082015260208152611e9f565b610c5e604051678513f30e8b952390602082015260208152611e9f565b60405160608101818110878211176106df57604052610c7e368686611fc9565b815260443560208201524260408201526040518383823760208185810160008152030190209080519687519081116106df57610cba8354611e4a565b601f8111610e3a575b506020601f8211600114610daa5791816040926002947f43a6ff1417f4b1a76d33362796a2aa0deda65bd76c51679e352f2cce92f8fa079a9b600092610d9f575b50508160011b916000199060031b1c19161784555b602081015160018501550151910155610d4560405167a66d3165a42186fd602082015260208152611e9f565b610d62604051672250e7269dc8e82f602082015260208152611e9f565b81604051928392833781016000815203902092610d8c60405192839260608452606084019161204c565b60443560208301524260408301520390a2005b015190508b80610d04565b8360005260206000209860005b601f1984168110610e225750827f43a6ff1417f4b1a76d33362796a2aa0deda65bd76c51679e352f2cce92f8fa07999a60029593600193604096601f19811610610e09575b505050811b018455610d19565b015160001960f88460031b161c191690558b8080610dfc565b828201518b556001909a019960209283019201610db7565b836000526020600020601f830160051c81019160208410610e78575b601f0160051c01905b818110610e6c5750610cc3565b60008155600101610e5f565b9091508190610e56565b346100df5760203660031901126100df57610e9b611e07565b610eb860405167ad004d128844078b602082015260208152611e9f565b610ed560405167f3455a07e93991da602082015260208152611e9f565b600580546001600160a01b0319166001600160a01b0392909216919091179055005b346100df576101003660031901126100df576004356001600160401b0381116100df57610f28903690600401611e1d565b906024356001600160401b0381116100df57610f48903690600401611e1d565b90926044356001600160401b0381116100df57610f69903690600401611e1d565b9290916064356001600160401b0381116100df57610f8b903690600401611e1d565b610fa86040516746a98b0e4eab3be5602082015260208152611e9f565b610fc5604051673f3d9ef70237f0b5602082015260208152611e9f565b610fe2604051676e5e8db6c80fc70c602082015260208152611e9f565b610fff604051678318afbd3453c1fa602082015260208152611e9f565b61101c604051671ba55f082f10cd35602082015260208152611e9f565b33600052600360205261103660ff6040600020541661200f565b61105360405167147c892dbc725fc4602082015260208152611e9f565b6110706040516753b0c4e3d61bb742602082015260208152611e9f565b61108d60405167033373a2337137b3602082015260208152611e9f565b6110aa6040516744ed65582bdf2d44602082015260208152611e9f565b6110c76040516765cafe44c60af697602082015260208152611e9f565b6110e460405167974d1e0e3ddfff57602082015260208152611e9f565b60055460ff8160a01c166000146118db57611112604051671dad7d017857ca12602082015260208152611e9f565b61112f60405167e95c75da969256ec602082015260208152611e9f565b61114c60405167b8f1a8a3bb3a3eb7602082015260208152611e9f565b611169604051675c6fc7346d8cb086602082015260208152611e9f565b6001600160a01b038116156118a35761119560405167ed95d6224655d0f5602082015260208152611e9f565b6111b2604051674648b8630ef2cd14602082015260208152611e9f565b6111cf604051674f213cc57046e44e602082015260208152611e9f565b6001600160a01b031691821561187e5761125b92602092611201604051671518caceb3b4980286820152858152611e9f565b61121c60405167788dd5670ae9610586820152858152611e9f565b61123760405167694530976da4caa486820152858152611e9f565b60405180958194829363625e358160e01b845260a0600485015260a484019161204c565b608435602483015260a435604483015260c435606483015260e435608483015203915afa90811561187257600091611837575b506112ac604051675ab5ff09303bea67602082015260208152611e9f565b6112c9604051671b199f37918ccea2602082015260208152611e9f565b6112e66040516739391c2ec50a63d7602082015260208152611e9f565b1561180257611308604051670b203c10daab8cc8602082015260208152611e9f565b611325604051677c50d41441fbed73602082015260208152611e9f565b61134260405167e5af35d7842bcb20602082015260208152611e9f565b61134d60045461206d565b948560045561136f604051670ef064867184fe46602082015260208152611e9f565b60405161137b81611e84565b611386368484611fc9565b815261139336858a611fc9565b60208201526113a3368787611fc9565b6040820152336060820152426080820152600060a0820152600060c082015286600052600160205260406000209080518051906001600160401b0382116106df5781906113f08554611e4a565b601f81116117b2575b50602090601f83116001146117465760009261173b575b50508160011b916000199060031b1c19161782555b60208101518051906001600160401b0382116106df57819061144a6001860154611e4a565b601f81116116e8575b50602090601f83116001146116765760009261166b575b50508160011b916000199060031b1c19161760018301555b60408101518051906001600160401b0382116106df576114a56002850154611e4a565b601f8111611624575b50602090601f8311600114611597576000805160206120be8339815191529998979593836105fb98969460069460c09460009261158c575b50508160011b916000199060031b1c19161760028501555b6003840160018060a01b036060830151166bffffffffffffffffffffffff60a01b8254161790556080810151600485015561154e60a08201511515600586019060ff801983541691151516179055565b0151910155611570604051676689333f278657f2602082015260208152611e9f565b6105d860405166ccaa64cfc8cf28602082015260208152611e9f565b015190508f806114e6565b906002850160005260206000209160005b601f198516811061160c57509360018460069460c0946000805160206120be8339815191529e9d9c9a986105fb9c9a98601f198116106115f3575b505050811b0160028501556114fe565b015160001960f88460031b161c191690558f80806115e3565b919260206001819286850151815501940192016115a8565b600285016000526020600020601f840160051c810160208510611664575b601f830160051c820181106116585750506114ae565b60008155600101611642565b5080611642565b015190508b8061146a565b9250600185016000526020600020906000935b601f19841685106116cd576001945083601f198116106116b4575b505050811b016001830155611482565b015160001960f88460031b161c191690558b80806116a4565b81810151835560209485019460019093019290910190611689565b909150600185016000526020600020601f840160051c810160208510611734575b90849392915b601f830160051c82018110611725575050611453565b6000815585945060010161170f565b5080611709565b015190508b80611410565b9250846000526020600020906000935b601f1984168510611797576001945083601f1981161061177e575b505050811b018255611425565b015160001960f88460031b161c191690558b8080611771565b81810151835560209485019460019093019290910190611756565b909150846000526020600020601f840160051c8101602085106117fb575b90849392915b601f830160051c820181106117ec5750506113f9565b600081558594506001016117d6565b50806117d0565b60405162461bcd60e51b815260206004820152600d60248201526c24b73b30b634b210383937b7b360991b6044820152606490fd5b90506020813d60201161186a575b8161185260209383611eba565b810103126100df575180151581036100df578761128e565b3d9150611845565b6040513d6000823e3d90fd5b50505061189e60405167bd9df10ad7ed4fef602082015260208152611e9f565b611308565b60405162461bcd60e51b815260206004820152601060248201526f15995c9a599a595c881b9bdd081cd95d60821b6044820152606490fd5b6118f8604051670aa049cdc919125c602082015260208152611e9f565b611195565b346100df5760003660031901126100df576005546040516001600160a01b039091168152602090f35b346100df576020806003193601126100df5760043561195660405167203b2acfcb1550e284820152838152611e9f565b611971604051673f3d9ef70237f0b584820152838152611e9f565b61198c604051676e5e8db6c80fc70c84820152838152611e9f565b6119a7604051678318afbd3453c1fa84820152838152611e9f565b6119c2604051671ba55f082f10cd3584820152838152611e9f565b33600052600382526119db60ff6040600020541661200f565b6119f660405167147c892dbc725fc484820152838152611e9f565b611a116040516753b0c4e3d61bb74284820152838152611e9f565b611a2c604051674679992e5c06ca4f84820152838152611e9f565b611a4760405167b22157dd6568332284820152838152611e9f565b611a6260405167078bf16fd1ff748784820152838152611e9f565b611a7d60405167b7196257f983adc984820152838152611e9f565b611a986040516776a5ee4ec7c8b4da84820152838152611e9f565b806000526001825260046040600020015415611c9657611ac96040516740c98fce709b055e84820152838152611e9f565b611ae4604051677f0bc84e99d4b6b084820152838152611e9f565b611aff604051677695ae5a726dd7b984820152838152611e9f565b611b1a60405167d4c783defb9f681f84820152838152611e9f565b8060005260028252604060002033600052825260ff60406000205416611c5e57611b556040516798076093f7ddfc5584820152838152611e9f565b611b7060405167c161cf00bf81027f84820152838152611e9f565b806000526002825260406000203360005282526040600020600160ff19825416179055611bae604051677d60da2c5608a5c284820152838152611e9f565b8060005260018252600660406000200180549060018201809211611c485755611be86040516779ba13e942ec25b884820152838152611e9f565b611c036040516758100b94681f008e84820152838152611e9f565b80600052600182526006604060002001549160405192835242908301527f9f77029216d2715228bae995e8bc0c2cf90bc82a87b1f0c569ef8ef50a465dd160403393a3005b634e487b7160e01b600052601160045260246000fd5b60405162461bcd60e51b815260048101839052601060248201526f105b1c9958591e48185c1c1c9bdd995960821b6044820152606490fd5b60405162461bcd60e51b815260048101839052601160248201527014995c5d595cdd081b9bdd08199bdd5b99607a1b6044820152606490fd5b346100df5760203660031901126100df576001600160a01b03611cf0611e07565b166000526003602052602060ff604060002054166040519015158152f35b346100df57602090816003193601126100df57600435918215158093036100df57611d4b82675f0e92089002ac0983611de8950152828152611e9f565b611d66604051678603fdc96488c59b83820152828152611e9f565b611d8160405167b18ab1be68a0fad883820152828152611e9f565b611d9c6040516757eb031c999e071e83820152828152611e9f565b3360005260038152611db560ff6040600020541661200f565b611dd060405167f93bd23adcd103d483820152828152611e9f565b6040519067fa92d56aad0d5d6a818301528152611e9f565b6005805460ff60a01b191660a09290921b60ff60a01b16919091179055005b600435906001600160a01b03821682036100df57565b9181601f840112156100df578235916001600160401b0383116100df57602083818601950101116100df57565b90600182811c92168015611e7a575b6020831014611e6457565b634e487b7160e01b600052602260045260246000fd5b91607f1691611e59565b60e081019081106001600160401b038211176106df57604052565b604081019081106001600160401b038211176106df57604052565b90601f801991011681019081106001600160401b038211176106df57604052565b9060405191826000825492611eef84611e4a565b908184526001948581169081600014611f5e5750600114611f1b575b5050611f1992500383611eba565b565b9093915060005260209081600020936000915b818310611f46575050611f1993508201013880611f0b565b85548884018501529485019487945091830191611f2e565b915050611f1994506020925060ff191682840152151560051b8201013880611f0b565b60005b838110611f945750506000910152565b8181015183820152602001611f84565b90602091611fbd81518092818552858086019101611f81565b601f01601f1916010190565b9291926001600160401b0382116106df5760405191611ff2601f8201601f191660200184611eba565b8294818452818301116100df578281602093846000960137010152565b1561201657565b60405162461bcd60e51b815260206004820152600e60248201526d139bdd08185d5d1a1bdc9a5e995960921b6044820152606490fd5b908060209392818452848401376000828201840152601f01601f1916010190565b6000198114611c485760010190565b92909361209b6060956120a9949998979960808752608087019161204c565b91848303602086015261204c565b6001600160a01b039095166040820152015256fe21f75d5def38265cc80a77515b127d27c9121b1ce435e4b3451c1748761f345da264697066735822122086a695c111c53590b87eefb312c9d609a818d48a4ef1d4de737163d4452a102d64736f6c63430008140033","opcodes":"PUSH1 0x80 DUP1 PUSH1 0x40 MSTORE CALLVALUE PUSH2 0x6B JUMPI DUP1 PUSH8 0xAFE5DDA477B3ABE0 PUSH1 0x20 PUSH2 0x25 SWAP4 ADD MSTORE PUSH1 0x20 DUP2 MSTORE PUSH2 0x70 JUMP JUMPDEST PUSH2 0x42 PUSH1 0x40 MLOAD PUSH8 0x69A0B4C7AF1C8674 PUSH1 0x20 DUP3 ADD MSTORE PUSH1 0x20 DUP2 MSTORE PUSH2 0x70 JUMP JUMPDEST CALLER PUSH1 0x0 MSTORE PUSH1 0x3 PUSH1 0x20 MSTORE PUSH1 0x40 PUSH1 0x0 KECCAK256 PUSH1 0x1 PUSH1 0xFF NOT DUP3 SLOAD AND OR SWAP1 SSTORE PUSH1 0x40 MLOAD PUSH2 0x2113 SWAP1 DUP2 PUSH3 0xA2 DUP3 CODECOPY RETURN JUMPDEST PUSH1 0x0 DUP1 REVERT JUMPDEST PUSH1 0x40 DUP2 ADD SWAP1 DUP2 LT PUSH1 0x1 PUSH1 0x1 PUSH1 0x40 SHL SUB DUP3 GT OR PUSH2 0x8B JUMPI PUSH1 0x40 MSTORE JUMP JUMPDEST PUSH4 0x4E487B71 PUSH1 0xE0 SHL PUSH1 0x0 MSTORE PUSH1 0x41 PUSH1 0x4 MSTORE PUSH1 0x24 PUSH1 0x0 REVERT INVALID PUSH1 0x80 DUP1 PUSH1 0x40 MSTORE PUSH1 0x4 CALLDATASIZE LT ISZERO PUSH2 0x13 JUMPI PUSH1 0x0 DUP1 REVERT JUMPDEST PUSH1 0x0 CALLDATALOAD PUSH1 0xE0 SHR SWAP1 DUP2 PUSH4 0x11E5B5A9 EQ PUSH2 0x1D0E JUMPI POP DUP1 PUSH4 0x1828983A EQ PUSH2 0x1CCF JUMPI DUP1 PUSH4 0x2544A470 EQ PUSH2 0x1926 JUMPI DUP1 PUSH4 0x2B7AC3F3 EQ PUSH2 0x18FD JUMPI DUP1 PUSH4 0x43E23864 EQ PUSH2 0xEF7 JUMPI DUP1 PUSH4 0x5437988D EQ PUSH2 0xE82 JUMPI DUP1 PUSH4 0x65ADE204 EQ PUSH2 0xAD5 JUMPI DUP1 PUSH4 0x6A84A985 EQ PUSH2 0xAB7 JUMPI DUP1 PUSH4 0x711BF9B2 EQ PUSH2 0xA2C JUMPI DUP1 PUSH4 0xAD4BAE23 EQ PUSH2 0x972 JUMPI DUP1 PUSH4 0xC9F020AC EQ PUSH2 0x8D5 JUMPI DUP1 PUSH4 0xD0173CF5 EQ PUSH2 0x136 JUMPI DUP1 PUSH4 0xE73E07D6 EQ PUSH2 0xE4 JUMPI PUSH4 0xFA74B97C EQ PUSH2 0xB9 JUMPI PUSH1 0x0 DUP1 REVERT JUMPDEST CALLVALUE PUSH2 0xDF JUMPI PUSH1 0x0 CALLDATASIZE PUSH1 0x3 NOT ADD SLT PUSH2 0xDF JUMPI PUSH1 0x20 PUSH1 0xFF PUSH1 0x5 SLOAD PUSH1 0xA0 SHR AND PUSH1 0x40 MLOAD SWAP1 ISZERO ISZERO DUP2 MSTORE RETURN JUMPDEST PUSH1 0x0 DUP1 REVERT JUMPDEST CALLVALUE PUSH2 0xDF JUMPI PUSH1 0x40 CALLDATASIZE PUSH1 0x3 NOT ADD SLT PUSH2 0xDF JUMPI PUSH1 0x24 CALLDATALOAD PUSH1 0x1 PUSH1 0x1 PUSH1 0xA0 SHL SUB DUP2 AND SWAP1 DUP2 SWAP1 SUB PUSH2 0xDF JUMPI PUSH1 0x4 CALLDATALOAD PUSH1 0x0 MSTORE PUSH1 0x2 PUSH1 0x20 MSTORE PUSH1 0x40 PUSH1 0x0 KECCAK256 SWAP1 PUSH1 0x0 MSTORE PUSH1 0x20 MSTORE PUSH1 0x20 PUSH1 0xFF PUSH1 0x40 PUSH1 0x0 KECCAK256 SLOAD AND PUSH1 0x40 MLOAD SWAP1 ISZERO ISZERO DUP2 MSTORE RETURN JUMPDEST CALLVALUE PUSH2 0xDF JUMPI PUSH1 0x60 CALLDATASIZE PUSH1 0x3 NOT ADD SLT PUSH2 0xDF JUMPI PUSH1 0x4 CALLDATALOAD PUSH1 0x1 PUSH1 0x1 PUSH1 0x40 SHL SUB DUP2 GT PUSH2 0xDF JUMPI PUSH2 0x166 SWAP1 CALLDATASIZE SWAP1 PUSH1 0x4 ADD PUSH2 0x1E1D JUMP JUMPDEST SWAP1 PUSH1 0x24 CALLDATALOAD PUSH1 0x1 PUSH1 0x1 PUSH1 0x40 SHL SUB DUP2 GT PUSH2 0xDF JUMPI PUSH2 0x186 SWAP1 CALLDATASIZE SWAP1 PUSH1 0x4 ADD PUSH2 0x1E1D JUMP JUMPDEST SWAP1 SWAP3 PUSH1 0x44 CALLDATALOAD PUSH1 0x1 PUSH1 0x1 PUSH1 0x40 SHL SUB DUP2 GT PUSH2 0xDF JUMPI PUSH2 0x1A7 SWAP1 CALLDATASIZE SWAP1 PUSH1 0x4 ADD PUSH2 0x1E1D JUMP JUMPDEST SWAP3 SWAP1 SWAP2 PUSH2 0x1C7 PUSH1 0x40 MLOAD PUSH8 0xCD7B8EAF1F8859FE PUSH1 0x20 DUP3 ADD MSTORE PUSH1 0x20 DUP2 MSTORE PUSH2 0x1E9F JUMP JUMPDEST PUSH2 0x1E4 PUSH1 0x40 MLOAD PUSH8 0x3F3D9EF70237F0B5 PUSH1 0x20 DUP3 ADD MSTORE PUSH1 0x20 DUP2 MSTORE PUSH2 0x1E9F JUMP JUMPDEST PUSH2 0x201 PUSH1 0x40 MLOAD PUSH8 0x6E5E8DB6C80FC70C PUSH1 0x20 DUP3 ADD MSTORE PUSH1 0x20 DUP2 MSTORE PUSH2 0x1E9F JUMP JUMPDEST PUSH2 0x21E PUSH1 0x40 MLOAD PUSH8 0x8318AFBD3453C1FA PUSH1 0x20 DUP3 ADD MSTORE PUSH1 0x20 DUP2 MSTORE PUSH2 0x1E9F JUMP JUMPDEST PUSH2 0x23B PUSH1 0x40 MLOAD PUSH8 0x1BA55F082F10CD35 PUSH1 0x20 DUP3 ADD MSTORE PUSH1 0x20 DUP2 MSTORE PUSH2 0x1E9F JUMP JUMPDEST CALLER PUSH1 0x0 MSTORE PUSH1 0x3 PUSH1 0x20 MSTORE PUSH2 0x255 PUSH1 0xFF PUSH1 0x40 PUSH1 0x0 KECCAK256 SLOAD AND PUSH2 0x200F JUMP JUMPDEST PUSH2 0x272 PUSH1 0x40 MLOAD PUSH8 0x147C892DBC725FC4 PUSH1 0x20 DUP3 ADD MSTORE PUSH1 0x20 DUP2 MSTORE PUSH2 0x1E9F JUMP JUMPDEST PUSH2 0x28F PUSH1 0x40 MLOAD PUSH8 0x53B0C4E3D61BB742 PUSH1 0x20 DUP3 ADD MSTORE PUSH1 0x20 DUP2 MSTORE PUSH2 0x1E9F JUMP JUMPDEST PUSH2 0x2AC PUSH1 0x40 MLOAD PUSH8 0x6255A1ABC9AF283A PUSH1 0x20 DUP3 ADD MSTORE PUSH1 0x20 DUP2 MSTORE PUSH2 0x1E9F JUMP JUMPDEST PUSH2 0x2C9 PUSH1 0x40 MLOAD PUSH8 0x1C4925A2C971BCB8 PUSH1 0x20 DUP3 ADD MSTORE PUSH1 0x20 DUP2 MSTORE PUSH2 0x1E9F JUMP JUMPDEST PUSH2 0x2E6 PUSH1 0x40 MLOAD PUSH8 0x3A2C3E489EA0648 PUSH1 0x20 DUP3 ADD MSTORE PUSH1 0x20 DUP2 MSTORE PUSH2 0x1E9F JUMP JUMPDEST PUSH2 0x303 PUSH1 0x40 MLOAD PUSH8 0xE6BAE20B48C27605 PUSH1 0x20 DUP3 ADD MSTORE PUSH1 0x20 DUP2 MSTORE PUSH2 0x1E9F JUMP JUMPDEST PUSH2 0x320 PUSH1 0x40 MLOAD PUSH8 0x19B0B460B566CF9F PUSH1 0x20 DUP3 ADD MSTORE PUSH1 0x20 DUP2 MSTORE PUSH2 0x1E9F JUMP JUMPDEST PUSH1 0x5 SLOAD PUSH1 0xFF DUP2 PUSH1 0xA0 SHR AND SWAP1 DUP2 PUSH2 0x8C2 JUMPI JUMPDEST POP PUSH2 0x88C JUMPI PUSH2 0x353 PUSH1 0x40 MLOAD PUSH8 0x9D08C31A0115628E PUSH1 0x20 DUP3 ADD MSTORE PUSH1 0x20 DUP2 MSTORE PUSH2 0x1E9F JUMP JUMPDEST PUSH2 0x370 PUSH1 0x40 MLOAD PUSH8 0x73F18AA3BE90E653 PUSH1 0x20 DUP3 ADD MSTORE PUSH1 0x20 DUP2 MSTORE PUSH2 0x1E9F JUMP JUMPDEST PUSH2 0x38D PUSH1 0x40 MLOAD PUSH8 0x4F3A76D1E9FDC1A0 PUSH1 0x20 DUP3 ADD MSTORE PUSH1 0x20 DUP2 MSTORE PUSH2 0x1E9F JUMP JUMPDEST PUSH2 0x398 PUSH1 0x4 SLOAD PUSH2 0x206D JUMP JUMPDEST SWAP5 DUP6 PUSH1 0x4 SSTORE PUSH2 0x3BA PUSH1 0x40 MLOAD PUSH8 0x4A2C4C40FA00667 PUSH1 0x20 DUP3 ADD MSTORE PUSH1 0x20 DUP2 MSTORE PUSH2 0x1E9F JUMP JUMPDEST PUSH1 0x40 MLOAD PUSH2 0x3C6 DUP2 PUSH2 0x1E84 JUMP JUMPDEST PUSH2 0x3D1 CALLDATASIZE DUP5 DUP5 PUSH2 0x1FC9 JUMP JUMPDEST DUP2 MSTORE PUSH2 0x3DE CALLDATASIZE DUP6 DUP11 PUSH2 0x1FC9 JUMP JUMPDEST PUSH1 0x20 DUP3 ADD MSTORE PUSH2 0x3EE CALLDATASIZE DUP8 DUP8 PUSH2 0x1FC9 JUMP JUMPDEST PUSH1 0x40 DUP3 ADD MSTORE CALLER PUSH1 0x60 DUP3 ADD MSTORE TIMESTAMP PUSH1 0x80 DUP3 ADD MSTORE PUSH1 0x0 PUSH1 0xA0 DUP3 ADD MSTORE PUSH1 0x0 PUSH1 0xC0 DUP3 ADD MSTORE DUP7 PUSH1 0x0 MSTORE PUSH1 0x1 PUSH1 0x20 MSTORE PUSH1 0x40 PUSH1 0x0 KECCAK256 SWAP1 DUP1 MLOAD DUP1 MLOAD SWAP1 PUSH1 0x1 PUSH1 0x1 PUSH1 0x40 SHL SUB DUP3 GT PUSH2 0x6DF JUMPI DUP2 SWAP1 PUSH2 0x43B DUP6 SLOAD PUSH2 0x1E4A JUMP JUMPDEST PUSH1 0x1F DUP2 GT PUSH2 0x83C JUMPI JUMPDEST POP PUSH1 0x20 SWAP1 PUSH1 0x1F DUP4 GT PUSH1 0x1 EQ PUSH2 0x7D0 JUMPI PUSH1 0x0 SWAP3 PUSH2 0x7C5 JUMPI JUMPDEST POP POP DUP2 PUSH1 0x1 SHL SWAP2 PUSH1 0x0 NOT SWAP1 PUSH1 0x3 SHL SHR NOT AND OR DUP3 SSTORE JUMPDEST PUSH1 0x20 DUP2 ADD MLOAD DUP1 MLOAD SWAP1 PUSH1 0x1 PUSH1 0x1 PUSH1 0x40 SHL SUB DUP3 GT PUSH2 0x6DF JUMPI DUP2 SWAP1 PUSH2 0x495 PUSH1 0x1 DUP7 ADD SLOAD PUSH2 0x1E4A JUMP JUMPDEST PUSH1 0x1F DUP2 GT PUSH2 0x772 JUMPI JUMPDEST POP PUSH1 0x20 SWAP1 PUSH1 0x1F DUP4 GT PUSH1 0x1 EQ PUSH2 0x700 JUMPI PUSH1 0x0 SWAP3 PUSH2 0x6F5 JUMPI JUMPDEST POP POP DUP2 PUSH1 0x1 SHL SWAP2 PUSH1 0x0 NOT SWAP1 PUSH1 0x3 SHL SHR NOT AND OR PUSH1 0x1 DUP4 ADD SSTORE JUMPDEST PUSH1 0x40 DUP2 ADD MLOAD DUP1 MLOAD SWAP1 PUSH1 0x1 PUSH1 0x1 PUSH1 0x40 SHL SUB DUP3 GT PUSH2 0x6DF JUMPI PUSH2 0x4F0 PUSH1 0x2 DUP6 ADD SLOAD PUSH2 0x1E4A JUMP JUMPDEST PUSH1 0x1F DUP2 GT PUSH2 0x698 JUMPI JUMPDEST POP PUSH1 0x20 SWAP1 PUSH1 0x1F DUP4 GT PUSH1 0x1 EQ PUSH2 0x60B JUMPI PUSH1 0x0 DUP1 MLOAD PUSH1 0x20 PUSH2 0x20BE DUP4 CODECOPY DUP2 MLOAD SWAP2 MSTORE SWAP10 SWAP9 SWAP8 SWAP6 SWAP4 DUP4 PUSH2 0x5FB SWAP9 SWAP7 SWAP5 PUSH1 0x6 SWAP5 PUSH1 0xC0 SWAP5 PUSH1 0x0 SWAP3 PUSH2 0x600 JUMPI JUMPDEST POP POP DUP2 PUSH1 0x1 SHL SWAP2 PUSH1 0x0 NOT SWAP1 PUSH1 0x3 SHL SHR NOT AND OR PUSH1 0x2 DUP6 ADD SSTORE JUMPDEST PUSH1 0x3 DUP5 ADD PUSH1 0x1 DUP1 PUSH1 0xA0 SHL SUB PUSH1 0x60 DUP4 ADD MLOAD AND PUSH12 0xFFFFFFFFFFFFFFFFFFFFFFFF PUSH1 0xA0 SHL DUP3 SLOAD AND OR SWAP1 SSTORE PUSH1 0x80 DUP2 ADD MLOAD PUSH1 0x4 DUP6 ADD SSTORE PUSH2 0x599 PUSH1 0xA0 DUP3 ADD MLOAD ISZERO ISZERO PUSH1 0x5 DUP7 ADD SWAP1 PUSH1 0xFF DUP1 NOT DUP4 SLOAD AND SWAP2 ISZERO ISZERO AND OR SWAP1 SSTORE JUMP JUMPDEST ADD MLOAD SWAP2 ADD SSTORE PUSH2 0x5BB PUSH1 0x40 MLOAD PUSH8 0xC8372F39CE4B9071 PUSH1 0x20 DUP3 ADD MSTORE PUSH1 0x20 DUP2 MSTORE PUSH2 0x1E9F JUMP JUMPDEST PUSH2 0x5D8 PUSH1 0x40 MLOAD PUSH8 0x369448638E435BF7 PUSH1 0x20 DUP3 ADD MSTORE PUSH1 0x20 DUP2 MSTORE PUSH2 0x1E9F JUMP JUMPDEST DUP2 PUSH1 0x40 MLOAD SWAP3 DUP4 SWAP3 DUP4 CALLDATACOPY DUP2 ADD PUSH1 0x0 DUP2 MSTORE SUB SWAP1 KECCAK256 SWAP7 PUSH1 0x40 MLOAD SWAP5 DUP6 SWAP5 TIMESTAMP SWAP4 CALLER SWAP4 DUP8 PUSH2 0x207C JUMP JUMPDEST SUB SWAP1 LOG3 STOP JUMPDEST ADD MLOAD SWAP1 POP DUP16 DUP1 PUSH2 0x531 JUMP JUMPDEST SWAP1 PUSH1 0x2 DUP6 ADD PUSH1 0x0 MSTORE PUSH1 0x20 PUSH1 0x0 KECCAK256 SWAP2 PUSH1 0x0 JUMPDEST PUSH1 0x1F NOT DUP6 AND DUP2 LT PUSH2 0x680 JUMPI POP SWAP4 PUSH1 0x1 DUP5 PUSH1 0x6 SWAP5 PUSH1 0xC0 SWAP5 PUSH1 0x0 DUP1 MLOAD PUSH1 0x20 PUSH2 0x20BE DUP4 CODECOPY DUP2 MLOAD SWAP2 MSTORE SWAP15 SWAP14 SWAP13 SWAP11 SWAP9 PUSH2 0x5FB SWAP13 SWAP11 SWAP9 PUSH1 0x1F NOT DUP2 AND LT PUSH2 0x667 JUMPI JUMPDEST POP POP POP DUP2 SHL ADD PUSH1 0x2 DUP6 ADD SSTORE PUSH2 0x549 JUMP JUMPDEST ADD MLOAD PUSH1 0x0 NOT PUSH1 0xF8 DUP5 PUSH1 0x3 SHL AND SHR NOT AND SWAP1 SSTORE DUP16 DUP1 DUP1 PUSH2 0x657 JUMP JUMPDEST SWAP2 SWAP3 PUSH1 0x20 PUSH1 0x1 DUP2 SWAP3 DUP7 DUP6 ADD MLOAD DUP2 SSTORE ADD SWAP5 ADD SWAP3 ADD PUSH2 0x61C JUMP JUMPDEST PUSH1 0x2 DUP6 ADD PUSH1 0x0 MSTORE PUSH1 0x20 PUSH1 0x0 KECCAK256 PUSH1 0x1F DUP5 ADD PUSH1 0x5 SHR DUP2 ADD PUSH1 0x20 DUP6 LT PUSH2 0x6D8 JUMPI JUMPDEST PUSH1 0x1F DUP4 ADD PUSH1 0x5 SHR DUP3 ADD DUP2 LT PUSH2 0x6CC JUMPI POP POP PUSH2 0x4F9 JUMP JUMPDEST PUSH1 0x0 DUP2 SSTORE PUSH1 0x1 ADD PUSH2 0x6B6 JUMP JUMPDEST POP DUP1 PUSH2 0x6B6 JUMP JUMPDEST PUSH4 0x4E487B71 PUSH1 0xE0 SHL PUSH1 0x0 MSTORE PUSH1 0x41 PUSH1 0x4 MSTORE PUSH1 0x24 PUSH1 0x0 REVERT JUMPDEST ADD MLOAD SWAP1 POP DUP12 DUP1 PUSH2 0x4B5 JUMP JUMPDEST SWAP3 POP PUSH1 0x1 DUP6 ADD PUSH1 0x0 MSTORE PUSH1 0x20 PUSH1 0x0 KECCAK256 SWAP1 PUSH1 0x0 SWAP4 JUMPDEST PUSH1 0x1F NOT DUP5 AND DUP6 LT PUSH2 0x757 JUMPI PUSH1 0x1 SWAP5 POP DUP4 PUSH1 0x1F NOT DUP2 AND LT PUSH2 0x73E JUMPI JUMPDEST POP POP POP DUP2 SHL ADD PUSH1 0x1 DUP4 ADD SSTORE PUSH2 0x4CD JUMP JUMPDEST ADD MLOAD PUSH1 0x0 NOT PUSH1 0xF8 DUP5 PUSH1 0x3 SHL AND SHR NOT AND SWAP1 SSTORE DUP12 DUP1 DUP1 PUSH2 0x72E JUMP JUMPDEST DUP2 DUP2 ADD MLOAD DUP4 SSTORE PUSH1 0x20 SWAP5 DUP6 ADD SWAP5 PUSH1 0x1 SWAP1 SWAP4 ADD SWAP3 SWAP1 SWAP2 ADD SWAP1 PUSH2 0x713 JUMP JUMPDEST SWAP1 SWAP2 POP PUSH1 0x1 DUP6 ADD PUSH1 0x0 MSTORE PUSH1 0x20 PUSH1 0x0 KECCAK256 PUSH1 0x1F DUP5 ADD PUSH1 0x5 SHR DUP2 ADD PUSH1 0x20 DUP6 LT PUSH2 0x7BE JUMPI JUMPDEST SWAP1 DUP5 SWAP4 SWAP3 SWAP2 JUMPDEST PUSH1 0x1F DUP4 ADD PUSH1 0x5 SHR DUP3 ADD DUP2 LT PUSH2 0x7AF JUMPI POP POP PUSH2 0x49E JUMP JUMPDEST PUSH1 0x0 DUP2 SSTORE DUP6 SWAP5 POP PUSH1 0x1 ADD PUSH2 0x799 JUMP JUMPDEST POP DUP1 PUSH2 0x793 JUMP JUMPDEST ADD MLOAD SWAP1 POP DUP12 DUP1 PUSH2 0x45B JUMP JUMPDEST SWAP3 POP DUP5 PUSH1 0x0 MSTORE PUSH1 0x20 PUSH1 0x0 KECCAK256 SWAP1 PUSH1 0x0 SWAP4 JUMPDEST PUSH1 0x1F NOT DUP5 AND DUP6 LT PUSH2 0x821 JUMPI PUSH1 0x1 SWAP5 POP DUP4 PUSH1 0x1F NOT DUP2 AND LT PUSH2 0x808 JUMPI JUMPDEST POP POP POP DUP2 SHL ADD DUP3 SSTORE PUSH2 0x470 JUMP JUMPDEST ADD MLOAD PUSH1 0x0 NOT PUSH1 0xF8 DUP5 PUSH1 0x3 SHL AND SHR NOT AND SWAP1 SSTORE DUP12 DUP1 DUP1 PUSH2 0x7FB JUMP JUMPDEST DUP2 DUP2 ADD MLOAD DUP4 SSTORE PUSH1 0x20 SWAP5 DUP6 ADD SWAP5 PUSH1 0x1 SWAP1 SWAP4 ADD SWAP3 SWAP1 SWAP2 ADD SWAP1 PUSH2 0x7E0 JUMP JUMPDEST SWAP1 SWAP2 POP DUP5 PUSH1 0x0 MSTORE PUSH1 0x20 PUSH1 0x0 KECCAK256 PUSH1 0x1F DUP5 ADD PUSH1 0x5 SHR DUP2 ADD PUSH1 0x20 DUP6 LT PUSH2 0x885 JUMPI JUMPDEST SWAP1 DUP5 SWAP4 SWAP3 SWAP2 JUMPDEST PUSH1 0x1F DUP4 ADD PUSH1 0x5 SHR DUP3 ADD DUP2 LT PUSH2 0x876 JUMPI POP POP PUSH2 0x444 JUMP JUMPDEST PUSH1 0x0 DUP2 SSTORE DUP6 SWAP5 POP PUSH1 0x1 ADD PUSH2 0x860 JUMP JUMPDEST POP DUP1 PUSH2 0x85A JUMP JUMPDEST PUSH1 0x40 MLOAD PUSH3 0x461BCD PUSH1 0xE5 SHL DUP2 MSTORE PUSH1 0x20 PUSH1 0x4 DUP3 ADD MSTORE PUSH1 0xE PUSH1 0x24 DUP3 ADD MSTORE PUSH14 0x141C9BDBD9881C995C5D5A5C9959 PUSH1 0x92 SHL PUSH1 0x44 DUP3 ADD MSTORE PUSH1 0x64 SWAP1 REVERT JUMPDEST PUSH1 0x1 PUSH1 0x1 PUSH1 0xA0 SHL SUB AND ISZERO ISZERO SWAP1 POP DUP8 PUSH2 0x331 JUMP JUMPDEST CALLVALUE PUSH2 0xDF JUMPI PUSH1 0x20 CALLDATASIZE PUSH1 0x3 NOT ADD SLT PUSH2 0xDF JUMPI PUSH1 0x4 CALLDATALOAD PUSH1 0x1 PUSH1 0x1 PUSH1 0x40 SHL SUB DUP2 GT PUSH2 0xDF JUMPI CALLDATASIZE PUSH1 0x23 DUP3 ADD SLT ISZERO PUSH2 0xDF JUMPI PUSH2 0x931 PUSH1 0x20 PUSH2 0x91E PUSH2 0x963 SWAP4 CALLDATASIZE SWAP1 PUSH1 0x24 DUP2 PUSH1 0x4 ADD CALLDATALOAD SWAP2 ADD PUSH2 0x1FC9 JUMP JUMPDEST DUP2 PUSH1 0x40 MLOAD SWAP4 DUP3 DUP6 DUP1 SWAP5 MLOAD SWAP4 DUP5 SWAP3 ADD PUSH2 0x1F81 JUMP JUMPDEST DUP2 ADD PUSH1 0x0 DUP2 MSTORE SUB ADD SWAP1 KECCAK256 PUSH2 0x944 DUP2 PUSH2 0x1EDB JUMP JUMPDEST SWAP1 PUSH1 0x2 PUSH1 0x1 DUP3 ADD SLOAD SWAP2 ADD SLOAD PUSH1 0x40 MLOAD SWAP4 DUP5 SWAP4 PUSH1 0x60 DUP6 MSTORE PUSH1 0x60 DUP6 ADD SWAP1 PUSH2 0x1FA4 JUMP JUMPDEST SWAP2 PUSH1 0x20 DUP5 ADD MSTORE PUSH1 0x40 DUP4 ADD MSTORE SUB SWAP1 RETURN JUMPDEST CALLVALUE PUSH2 0xDF JUMPI PUSH1 0x20 CALLDATASIZE PUSH1 0x3 NOT ADD SLT PUSH2 0xDF JUMPI PUSH1 0x4 CALLDATALOAD PUSH1 0x0 MSTORE PUSH1 0x1 PUSH1 0x20 MSTORE PUSH2 0x9F5 PUSH1 0x40 PUSH1 0x0 KECCAK256 PUSH2 0x99F DUP2 PUSH2 0x1EDB JUMP JUMPDEST SWAP1 PUSH2 0x9AC PUSH1 0x1 DUP3 ADD PUSH2 0x1EDB JUMP JUMPDEST PUSH2 0x9B8 PUSH1 0x2 DUP4 ADD PUSH2 0x1EDB JUMP JUMPDEST SWAP2 PUSH1 0x1 DUP1 PUSH1 0xA0 SHL SUB PUSH1 0x3 DUP3 ADD SLOAD AND SWAP3 PUSH2 0xA11 PUSH1 0x4 DUP4 ADD SLOAD SWAP2 PUSH2 0xA03 PUSH1 0x6 PUSH1 0xFF PUSH1 0x5 DUP8 ADD SLOAD AND SWAP6 ADD SLOAD SWAP6 PUSH1 0x40 MLOAD SWAP10 DUP11 SWAP10 PUSH1 0xE0 DUP12 MSTORE PUSH1 0xE0 DUP12 ADD SWAP1 PUSH2 0x1FA4 JUMP JUMPDEST SWAP1 DUP10 DUP3 SUB PUSH1 0x20 DUP12 ADD MSTORE PUSH2 0x1FA4 JUMP JUMPDEST SWAP1 DUP8 DUP3 SUB PUSH1 0x40 DUP10 ADD MSTORE PUSH2 0x1FA4 JUMP JUMPDEST SWAP4 PUSH1 0x60 DUP7 ADD MSTORE PUSH1 0x80 DUP6 ADD MSTORE ISZERO ISZERO PUSH1 0xA0 DUP5 ADD MSTORE PUSH1 0xC0 DUP4 ADD MSTORE SUB SWAP1 RETURN JUMPDEST CALLVALUE PUSH2 0xDF JUMPI PUSH1 0x40 CALLDATASIZE PUSH1 0x3 NOT ADD SLT PUSH2 0xDF JUMPI PUSH2 0xA45 PUSH2 0x1E07 JUMP JUMPDEST PUSH1 0x24 CALLDATALOAD DUP1 ISZERO ISZERO DUP2 SUB PUSH2 0xDF JUMPI PUSH2 0xAB5 SWAP2 PUSH2 0xA72 PUSH1 0x40 MLOAD PUSH8 0x22B720BFABA8EBFB PUSH1 0x20 DUP3 ADD MSTORE PUSH1 0x20 DUP2 MSTORE PUSH2 0x1E9F JUMP JUMPDEST PUSH2 0xA8F PUSH1 0x40 MLOAD PUSH8 0x7C73F664B4A414C6 PUSH1 0x20 DUP3 ADD MSTORE PUSH1 0x20 DUP2 MSTORE PUSH2 0x1E9F JUMP JUMPDEST PUSH1 0x1 DUP1 PUSH1 0xA0 SHL SUB AND PUSH1 0x0 MSTORE PUSH1 0x3 PUSH1 0x20 MSTORE PUSH1 0x40 PUSH1 0x0 KECCAK256 SWAP1 PUSH1 0xFF DUP1 NOT DUP4 SLOAD AND SWAP2 ISZERO ISZERO AND OR SWAP1 SSTORE JUMP JUMPDEST STOP JUMPDEST CALLVALUE PUSH2 0xDF JUMPI PUSH1 0x0 CALLDATASIZE PUSH1 0x3 NOT ADD SLT PUSH2 0xDF JUMPI PUSH1 0x20 PUSH1 0x4 SLOAD PUSH1 0x40 MLOAD SWAP1 DUP2 MSTORE RETURN JUMPDEST CALLVALUE PUSH2 0xDF JUMPI PUSH1 0x60 CALLDATASIZE PUSH1 0x3 NOT ADD SLT PUSH2 0xDF JUMPI PUSH1 0x1 PUSH1 0x1 PUSH1 0x40 SHL SUB PUSH1 0x4 CALLDATALOAD DUP2 DUP2 GT PUSH2 0xDF JUMPI PUSH2 0xB06 SWAP1 CALLDATASIZE SWAP1 PUSH1 0x4 ADD PUSH2 0x1E1D JUMP JUMPDEST SWAP1 PUSH1 0x24 CALLDATALOAD DUP4 DUP2 GT PUSH2 0xDF JUMPI PUSH2 0xB1F SWAP1 CALLDATASIZE SWAP1 PUSH1 0x4 ADD PUSH2 0x1E1D JUMP JUMPDEST SWAP3 SWAP1 SWAP2 PUSH2 0xB3F PUSH1 0x40 MLOAD PUSH8 0xEAE7138C8E8CB7E4 PUSH1 0x20 DUP3 ADD MSTORE PUSH1 0x20 DUP2 MSTORE PUSH2 0x1E9F JUMP JUMPDEST PUSH2 0xB5C PUSH1 0x40 MLOAD PUSH8 0x3F3D9EF70237F0B5 PUSH1 0x20 DUP3 ADD MSTORE PUSH1 0x20 DUP2 MSTORE PUSH2 0x1E9F JUMP JUMPDEST PUSH2 0xB79 PUSH1 0x40 MLOAD PUSH8 0x6E5E8DB6C80FC70C PUSH1 0x20 DUP3 ADD MSTORE PUSH1 0x20 DUP2 MSTORE PUSH2 0x1E9F JUMP JUMPDEST PUSH2 0xB96 PUSH1 0x40 MLOAD PUSH8 0x8318AFBD3453C1FA PUSH1 0x20 DUP3 ADD MSTORE PUSH1 0x20 DUP2 MSTORE PUSH2 0x1E9F JUMP JUMPDEST PUSH2 0xBB3 PUSH1 0x40 MLOAD PUSH8 0x1BA55F082F10CD35 PUSH1 0x20 DUP3 ADD MSTORE PUSH1 0x20 DUP2 MSTORE PUSH2 0x1E9F JUMP JUMPDEST CALLER PUSH1 0x0 MSTORE PUSH1 0x3 PUSH1 0x20 MSTORE PUSH2 0xBCD PUSH1 0xFF PUSH1 0x40 PUSH1 0x0 KECCAK256 SLOAD AND PUSH2 0x200F JUMP JUMPDEST PUSH2 0xBEA PUSH1 0x40 MLOAD PUSH8 0x147C892DBC725FC4 PUSH1 0x20 DUP3 ADD MSTORE PUSH1 0x20 DUP2 MSTORE PUSH2 0x1E9F JUMP JUMPDEST PUSH2 0xC07 PUSH1 0x40 MLOAD PUSH8 0x53B0C4E3D61BB742 PUSH1 0x20 DUP3 ADD MSTORE PUSH1 0x20 DUP2 MSTORE PUSH2 0x1E9F JUMP JUMPDEST PUSH2 0xC24 PUSH1 0x40 MLOAD PUSH8 0x25C8EA7BA1060751 PUSH1 0x20 DUP3 ADD MSTORE PUSH1 0x20 DUP2 MSTORE PUSH2 0x1E9F JUMP JUMPDEST PUSH2 0xC41 PUSH1 0x40 MLOAD PUSH8 0x8A54A3FD3841CA85 PUSH1 0x20 DUP3 ADD MSTORE PUSH1 0x20 DUP2 MSTORE PUSH2 0x1E9F JUMP JUMPDEST PUSH2 0xC5E PUSH1 0x40 MLOAD PUSH8 0x8513F30E8B952390 PUSH1 0x20 DUP3 ADD MSTORE PUSH1 0x20 DUP2 MSTORE PUSH2 0x1E9F JUMP JUMPDEST PUSH1 0x40 MLOAD PUSH1 0x60 DUP2 ADD DUP2 DUP2 LT DUP8 DUP3 GT OR PUSH2 0x6DF JUMPI PUSH1 0x40 MSTORE PUSH2 0xC7E CALLDATASIZE DUP7 DUP7 PUSH2 0x1FC9 JUMP JUMPDEST DUP2 MSTORE PUSH1 0x44 CALLDATALOAD PUSH1 0x20 DUP3 ADD MSTORE TIMESTAMP PUSH1 0x40 DUP3 ADD MSTORE PUSH1 0x40 MLOAD DUP4 DUP4 DUP3 CALLDATACOPY PUSH1 0x20 DUP2 DUP6 DUP2 ADD PUSH1 0x0 DUP2 MSTORE SUB ADD SWAP1 KECCAK256 SWAP1 DUP1 MLOAD SWAP7 DUP8 MLOAD SWAP1 DUP2 GT PUSH2 0x6DF JUMPI PUSH2 0xCBA DUP4 SLOAD PUSH2 0x1E4A JUMP JUMPDEST PUSH1 0x1F DUP2 GT PUSH2 0xE3A JUMPI JUMPDEST POP PUSH1 0x20 PUSH1 0x1F DUP3 GT PUSH1 0x1 EQ PUSH2 0xDAA JUMPI SWAP2 DUP2 PUSH1 0x40 SWAP3 PUSH1 0x2 SWAP5 PUSH32 0x43A6FF1417F4B1A76D33362796A2AA0DEDA65BD76C51679E352F2CCE92F8FA07 SWAP11 SWAP12 PUSH1 0x0 SWAP3 PUSH2 0xD9F JUMPI JUMPDEST POP POP DUP2 PUSH1 0x1 SHL SWAP2 PUSH1 0x0 NOT SWAP1 PUSH1 0x3 SHL SHR NOT AND OR DUP5 SSTORE JUMPDEST PUSH1 0x20 DUP2 ADD MLOAD PUSH1 0x1 DUP6 ADD SSTORE ADD MLOAD SWAP2 ADD SSTORE PUSH2 0xD45 PUSH1 0x40 MLOAD PUSH8 0xA66D3165A42186FD PUSH1 0x20 DUP3 ADD MSTORE PUSH1 0x20 DUP2 MSTORE PUSH2 0x1E9F JUMP JUMPDEST PUSH2 0xD62 PUSH1 0x40 MLOAD PUSH8 0x2250E7269DC8E82F PUSH1 0x20 DUP3 ADD MSTORE PUSH1 0x20 DUP2 MSTORE PUSH2 0x1E9F JUMP JUMPDEST DUP2 PUSH1 0x40 MLOAD SWAP3 DUP4 SWAP3 DUP4 CALLDATACOPY DUP2 ADD PUSH1 0x0 DUP2 MSTORE SUB SWAP1 KECCAK256 SWAP3 PUSH2 0xD8C PUSH1 0x40 MLOAD SWAP3 DUP4 SWAP3 PUSH1 0x60 DUP5 MSTORE PUSH1 0x60 DUP5 ADD SWAP2 PUSH2 0x204C JUMP JUMPDEST PUSH1 0x44 CALLDATALOAD PUSH1 0x20 DUP4 ADD MSTORE TIMESTAMP PUSH1 0x40 DUP4 ADD MSTORE SUB SWAP1 LOG2 STOP JUMPDEST ADD MLOAD SWAP1 POP DUP12 DUP1 PUSH2 0xD04 JUMP JUMPDEST DUP4 PUSH1 0x0 MSTORE PUSH1 0x20 PUSH1 0x0 KECCAK256 SWAP9 PUSH1 0x0 JUMPDEST PUSH1 0x1F NOT DUP5 AND DUP2 LT PUSH2 0xE22 JUMPI POP DUP3 PUSH32 0x43A6FF1417F4B1A76D33362796A2AA0DEDA65BD76C51679E352F2CCE92F8FA07 SWAP10 SWAP11 PUSH1 0x2 SWAP6 SWAP4 PUSH1 0x1 SWAP4 PUSH1 0x40 SWAP7 PUSH1 0x1F NOT DUP2 AND LT PUSH2 0xE09 JUMPI JUMPDEST POP POP POP DUP2 SHL ADD DUP5 SSTORE PUSH2 0xD19 JUMP JUMPDEST ADD MLOAD PUSH1 0x0 NOT PUSH1 0xF8 DUP5 PUSH1 0x3 SHL AND SHR NOT AND SWAP1 SSTORE DUP12 DUP1 DUP1 PUSH2 0xDFC JUMP JUMPDEST DUP3 DUP3 ADD MLOAD DUP12 SSTORE PUSH1 0x1 SWAP1 SWAP11 ADD SWAP10 PUSH1 0x20 SWAP3 DUP4 ADD SWAP3 ADD PUSH2 0xDB7 JUMP JUMPDEST DUP4 PUSH1 0x0 MSTORE PUSH1 0x20 PUSH1 0x0 KECCAK256 PUSH1 0x1F DUP4 ADD PUSH1 0x5 SHR DUP2 ADD SWAP2 PUSH1 0x20 DUP5 LT PUSH2 0xE78 JUMPI JUMPDEST PUSH1 0x1F ADD PUSH1 0x5 SHR ADD SWAP1 JUMPDEST DUP2 DUP2 LT PUSH2 0xE6C JUMPI POP PUSH2 0xCC3 JUMP JUMPDEST PUSH1 0x0 DUP2 SSTORE PUSH1 0x1 ADD PUSH2 0xE5F JUMP JUMPDEST SWAP1 SWAP2 POP DUP2 SWAP1 PUSH2 0xE56 JUMP JUMPDEST CALLVALUE PUSH2 0xDF JUMPI PUSH1 0x20 CALLDATASIZE PUSH1 0x3 NOT ADD SLT PUSH2 0xDF JUMPI PUSH2 0xE9B PUSH2 0x1E07 JUMP JUMPDEST PUSH2 0xEB8 PUSH1 0x40 MLOAD PUSH8 0xAD004D128844078B PUSH1 0x20 DUP3 ADD MSTORE PUSH1 0x20 DUP2 MSTORE PUSH2 0x1E9F JUMP JUMPDEST PUSH2 0xED5 PUSH1 0x40 MLOAD PUSH8 0xF3455A07E93991DA PUSH1 0x20 DUP3 ADD MSTORE PUSH1 0x20 DUP2 MSTORE PUSH2 0x1E9F JUMP JUMPDEST PUSH1 0x5 DUP1 SLOAD PUSH1 0x1 PUSH1 0x1 PUSH1 0xA0 SHL SUB NOT AND PUSH1 0x1 PUSH1 0x1 PUSH1 0xA0 SHL SUB SWAP3 SWAP1 SWAP3 AND SWAP2 SWAP1 SWAP2 OR SWAP1 SSTORE STOP JUMPDEST CALLVALUE PUSH2 0xDF JUMPI PUSH2 0x100 CALLDATASIZE PUSH1 0x3 NOT ADD SLT PUSH2 0xDF JUMPI PUSH1 0x4 CALLDATALOAD PUSH1 0x1 PUSH1 0x1 PUSH1 0x40 SHL SUB DUP2 GT PUSH2 0xDF JUMPI PUSH2 0xF28 SWAP1 CALLDATASIZE SWAP1 PUSH1 0x4 ADD PUSH2 0x1E1D JUMP JUMPDEST SWAP1 PUSH1 0x24 CALLDATALOAD PUSH1 0x1 PUSH1 0x1 PUSH1 0x40 SHL SUB DUP2 GT PUSH2 0xDF JUMPI PUSH2 0xF48 SWAP1 CALLDATASIZE SWAP1 PUSH1 0x4 ADD PUSH2 0x1E1D JUMP JUMPDEST SWAP1 SWAP3 PUSH1 0x44 CALLDATALOAD PUSH1 0x1 PUSH1 0x1 PUSH1 0x40 SHL SUB DUP2 GT PUSH2 0xDF JUMPI PUSH2 0xF69 SWAP1 CALLDATASIZE SWAP1 PUSH1 0x4 ADD PUSH2 0x1E1D JUMP JUMPDEST SWAP3 SWAP1 SWAP2 PUSH1 0x64 CALLDATALOAD PUSH1 0x1 PUSH1 0x1 PUSH1 0x40 SHL SUB DUP2 GT PUSH2 0xDF JUMPI PUSH2 0xF8B SWAP1 CALLDATASIZE SWAP1 PUSH1 0x4 ADD PUSH2 0x1E1D JUMP JUMPDEST PUSH2 0xFA8 PUSH1 0x40 MLOAD PUSH8 0x46A98B0E4EAB3BE5 PUSH1 0x20 DUP3 ADD MSTORE PUSH1 0x20 DUP2 MSTORE PUSH2 0x1E9F JUMP JUMPDEST PUSH2 0xFC5 PUSH1 0x40 MLOAD PUSH8 0x3F3D9EF70237F0B5 PUSH1 0x20 DUP3 ADD MSTORE PUSH1 0x20 DUP2 MSTORE PUSH2 0x1E9F JUMP JUMPDEST PUSH2 0xFE2 PUSH1 0x40 MLOAD PUSH8 0x6E5E8DB6C80FC70C PUSH1 0x20 DUP3 ADD MSTORE PUSH1 0x20 DUP2 MSTORE PUSH2 0x1E9F JUMP JUMPDEST PUSH2 0xFFF PUSH1 0x40 MLOAD PUSH8 0x8318AFBD3453C1FA PUSH1 0x20 DUP3 ADD MSTORE PUSH1 0x20 DUP2 MSTORE PUSH2 0x1E9F JUMP JUMPDEST PUSH2 0x101C PUSH1 0x40 MLOAD PUSH8 0x1BA55F082F10CD35 PUSH1 0x20 DUP3 ADD MSTORE PUSH1 0x20 DUP2 MSTORE PUSH2 0x1E9F JUMP JUMPDEST CALLER PUSH1 0x0 MSTORE PUSH1 0x3 PUSH1 0x20 MSTORE PUSH2 0x1036 PUSH1 0xFF PUSH1 0x40 PUSH1 0x0 KECCAK256 SLOAD AND PUSH2 0x200F JUMP JUMPDEST PUSH2 0x1053 PUSH1 0x40 MLOAD PUSH8 0x147C892DBC725FC4 PUSH1 0x20 DUP3 ADD MSTORE PUSH1 0x20 DUP2 MSTORE PUSH2 0x1E9F JUMP JUMPDEST PUSH2 0x1070 PUSH1 0x40 MLOAD PUSH8 0x53B0C4E3D61BB742 PUSH1 0x20 DUP3 ADD MSTORE PUSH1 0x20 DUP2 MSTORE PUSH2 0x1E9F JUMP JUMPDEST PUSH2 0x108D PUSH1 0x40 MLOAD PUSH8 0x33373A2337137B3 PUSH1 0x20 DUP3 ADD MSTORE PUSH1 0x20 DUP2 MSTORE PUSH2 0x1E9F JUMP JUMPDEST PUSH2 0x10AA PUSH1 0x40 MLOAD PUSH8 0x44ED65582BDF2D44 PUSH1 0x20 DUP3 ADD MSTORE PUSH1 0x20 DUP2 MSTORE PUSH2 0x1E9F JUMP JUMPDEST PUSH2 0x10C7 PUSH1 0x40 MLOAD PUSH8 0x65CAFE44C60AF697 PUSH1 0x20 DUP3 ADD MSTORE PUSH1 0x20 DUP2 MSTORE PUSH2 0x1E9F JUMP JUMPDEST PUSH2 0x10E4 PUSH1 0x40 MLOAD PUSH8 0x974D1E0E3DDFFF57 PUSH1 0x20 DUP3 ADD MSTORE PUSH1 0x20 DUP2 MSTORE PUSH2 0x1E9F JUMP JUMPDEST PUSH1 0x5 SLOAD PUSH1 0xFF DUP2 PUSH1 0xA0 SHR AND PUSH1 0x0 EQ PUSH2 0x18DB JUMPI PUSH2 0x1112 PUSH1 0x40 MLOAD PUSH8 0x1DAD7D017857CA12 PUSH1 0x20 DUP3 ADD MSTORE PUSH1 0x20 DUP2 MSTORE PUSH2 0x1E9F JUMP JUMPDEST PUSH2 0x112F PUSH1 0x40 MLOAD PUSH8 0xE95C75DA969256EC PUSH1 0x20 DUP3 ADD MSTORE PUSH1 0x20 DUP2 MSTORE PUSH2 0x1E9F JUMP JUMPDEST PUSH2 0x114C PUSH1 0x40 MLOAD PUSH8 0xB8F1A8A3BB3A3EB7 PUSH1 0x20 DUP3 ADD MSTORE PUSH1 0x20 DUP2 MSTORE PUSH2 0x1E9F JUMP JUMPDEST PUSH2 0x1169 PUSH1 0x40 MLOAD PUSH8 0x5C6FC7346D8CB086 PUSH1 0x20 DUP3 ADD MSTORE PUSH1 0x20 DUP2 MSTORE PUSH2 0x1E9F JUMP JUMPDEST PUSH1 0x1 PUSH1 0x1 PUSH1 0xA0 SHL SUB DUP2 AND ISZERO PUSH2 0x18A3 JUMPI PUSH2 0x1195 PUSH1 0x40 MLOAD PUSH8 0xED95D6224655D0F5 PUSH1 0x20 DUP3 ADD MSTORE PUSH1 0x20 DUP2 MSTORE PUSH2 0x1E9F JUMP JUMPDEST PUSH2 0x11B2 PUSH1 0x40 MLOAD PUSH8 0x4648B8630EF2CD14 PUSH1 0x20 DUP3 ADD MSTORE PUSH1 0x20 DUP2 MSTORE PUSH2 0x1E9F JUMP JUMPDEST PUSH2 0x11CF PUSH1 0x40 MLOAD PUSH8 0x4F213CC57046E44E PUSH1 0x20 DUP3 ADD MSTORE PUSH1 0x20 DUP2 MSTORE PUSH2 0x1E9F JUMP JUMPDEST PUSH1 0x1 PUSH1 0x1 PUSH1 0xA0 SHL SUB AND SWAP2 DUP3 ISZERO PUSH2 0x187E JUMPI PUSH2 0x125B SWAP3 PUSH1 0x20 SWAP3 PUSH2 0x1201 PUSH1 0x40 MLOAD PUSH8 0x1518CACEB3B49802 DUP7 DUP3 ADD MSTORE DUP6 DUP2 MSTORE PUSH2 0x1E9F JUMP JUMPDEST PUSH2 0x121C PUSH1 0x40 MLOAD PUSH8 0x788DD5670AE96105 DUP7 DUP3 ADD MSTORE DUP6 DUP2 MSTORE PUSH2 0x1E9F JUMP JUMPDEST PUSH2 0x1237 PUSH1 0x40 MLOAD PUSH8 0x694530976DA4CAA4 DUP7 DUP3 ADD MSTORE DUP6 DUP2 MSTORE PUSH2 0x1E9F JUMP JUMPDEST PUSH1 0x40 MLOAD DUP1 SWAP6 DUP2 SWAP5 DUP3 SWAP4 PUSH4 0x625E3581 PUSH1 0xE0 SHL DUP5 MSTORE PUSH1 0xA0 PUSH1 0x4 DUP6 ADD MSTORE PUSH1 0xA4 DUP5 ADD SWAP2 PUSH2 0x204C JUMP JUMPDEST PUSH1 0x84 CALLDATALOAD PUSH1 0x24 DUP4 ADD MSTORE PUSH1 0xA4 CALLDATALOAD PUSH1 0x44 DUP4 ADD MSTORE PUSH1 0xC4 CALLDATALOAD PUSH1 0x64 DUP4 ADD MSTORE PUSH1 0xE4 CALLDATALOAD PUSH1 0x84 DUP4 ADD MSTORE SUB SWAP2 GAS STATICCALL SWAP1 DUP2 ISZERO PUSH2 0x1872 JUMPI PUSH1 0x0 SWAP2 PUSH2 0x1837 JUMPI JUMPDEST POP PUSH2 0x12AC PUSH1 0x40 MLOAD PUSH8 0x5AB5FF09303BEA67 PUSH1 0x20 DUP3 ADD MSTORE PUSH1 0x20 DUP2 MSTORE PUSH2 0x1E9F JUMP JUMPDEST PUSH2 0x12C9 PUSH1 0x40 MLOAD PUSH8 0x1B199F37918CCEA2 PUSH1 0x20 DUP3 ADD MSTORE PUSH1 0x20 DUP2 MSTORE PUSH2 0x1E9F JUMP JUMPDEST PUSH2 0x12E6 PUSH1 0x40 MLOAD PUSH8 0x39391C2EC50A63D7 PUSH1 0x20 DUP3 ADD MSTORE PUSH1 0x20 DUP2 MSTORE PUSH2 0x1E9F JUMP JUMPDEST ISZERO PUSH2 0x1802 JUMPI PUSH2 0x1308 PUSH1 0x40 MLOAD PUSH8 0xB203C10DAAB8CC8 PUSH1 0x20 DUP3 ADD MSTORE PUSH1 0x20 DUP2 MSTORE PUSH2 0x1E9F JUMP JUMPDEST PUSH2 0x1325 PUSH1 0x40 MLOAD PUSH8 0x7C50D41441FBED73 PUSH1 0x20 DUP3 ADD MSTORE PUSH1 0x20 DUP2 MSTORE PUSH2 0x1E9F JUMP JUMPDEST PUSH2 0x1342 PUSH1 0x40 MLOAD PUSH8 0xE5AF35D7842BCB20 PUSH1 0x20 DUP3 ADD MSTORE PUSH1 0x20 DUP2 MSTORE PUSH2 0x1E9F JUMP JUMPDEST PUSH2 0x134D PUSH1 0x4 SLOAD PUSH2 0x206D JUMP JUMPDEST SWAP5 DUP6 PUSH1 0x4 SSTORE PUSH2 0x136F PUSH1 0x40 MLOAD PUSH8 0xEF064867184FE46 PUSH1 0x20 DUP3 ADD MSTORE PUSH1 0x20 DUP2 MSTORE PUSH2 0x1E9F JUMP JUMPDEST PUSH1 0x40 MLOAD PUSH2 0x137B DUP2 PUSH2 0x1E84 JUMP JUMPDEST PUSH2 0x1386 CALLDATASIZE DUP5 DUP5 PUSH2 0x1FC9 JUMP JUMPDEST DUP2 MSTORE PUSH2 0x1393 CALLDATASIZE DUP6 DUP11 PUSH2 0x1FC9 JUMP JUMPDEST PUSH1 0x20 DUP3 ADD MSTORE PUSH2 0x13A3 CALLDATASIZE DUP8 DUP8 PUSH2 0x1FC9 JUMP JUMPDEST PUSH1 0x40 DUP3 ADD MSTORE CALLER PUSH1 0x60 DUP3 ADD MSTORE TIMESTAMP PUSH1 0x80 DUP3 ADD MSTORE PUSH1 0x0 PUSH1 0xA0 DUP3 ADD MSTORE PUSH1 0x0 PUSH1 0xC0 DUP3 ADD MSTORE DUP7 PUSH1 0x0 MSTORE PUSH1 0x1 PUSH1 0x20 MSTORE PUSH1 0x40 PUSH1 0x0 KECCAK256 SWAP1 DUP1 MLOAD DUP1 MLOAD SWAP1 PUSH1 0x1 PUSH1 0x1 PUSH1 0x40 SHL SUB DUP3 GT PUSH2 0x6DF JUMPI DUP2 SWAP1 PUSH2 0x13F0 DUP6 SLOAD PUSH2 0x1E4A JUMP JUMPDEST PUSH1 0x1F DUP2 GT PUSH2 0x17B2 JUMPI JUMPDEST POP PUSH1 0x20 SWAP1 PUSH1 0x1F DUP4 GT PUSH1 0x1 EQ PUSH2 0x1746 JUMPI PUSH1 0x0 SWAP3 PUSH2 0x173B JUMPI JUMPDEST POP POP DUP2 PUSH1 0x1 SHL SWAP2 PUSH1 0x0 NOT SWAP1 PUSH1 0x3 SHL SHR NOT AND OR DUP3 SSTORE JUMPDEST PUSH1 0x20 DUP2 ADD MLOAD DUP1 MLOAD SWAP1 PUSH1 0x1 PUSH1 0x1 PUSH1 0x40 SHL SUB DUP3 GT PUSH2 0x6DF JUMPI DUP2 SWAP1 PUSH2 0x144A PUSH1 0x1 DUP7 ADD SLOAD PUSH2 0x1E4A JUMP JUMPDEST PUSH1 0x1F DUP2 GT PUSH2 0x16E8 JUMPI JUMPDEST POP PUSH1 0x20 SWAP1 PUSH1 0x1F DUP4 GT PUSH1 0x1 EQ PUSH2 0x1676 JUMPI PUSH1 0x0 SWAP3 PUSH2 0x166B JUMPI JUMPDEST POP POP DUP2 PUSH1 0x1 SHL SWAP2 PUSH1 0x0 NOT SWAP1 PUSH1 0x3 SHL SHR NOT AND OR PUSH1 0x1 DUP4 ADD SSTORE JUMPDEST PUSH1 0x40 DUP2 ADD MLOAD DUP1 MLOAD SWAP1 PUSH1 0x1 PUSH1 0x1 PUSH1 0x40 SHL SUB DUP3 GT PUSH2 0x6DF JUMPI PUSH2 0x14A5 PUSH1 0x2 DUP6 ADD SLOAD PUSH2 0x1E4A JUMP JUMPDEST PUSH1 0x1F DUP2 GT PUSH2 0x1624 JUMPI JUMPDEST POP PUSH1 0x20 SWAP1 PUSH1 0x1F DUP4 GT PUSH1 0x1 EQ PUSH2 0x1597 JUMPI PUSH1 0x0 DUP1 MLOAD PUSH1 0x20 PUSH2 0x20BE DUP4 CODECOPY DUP2 MLOAD SWAP2 MSTORE SWAP10 SWAP9 SWAP8 SWAP6 SWAP4 DUP4 PUSH2 0x5FB SWAP9 SWAP7 SWAP5 PUSH1 0x6 SWAP5 PUSH1 0xC0 SWAP5 PUSH1 0x0 SWAP3 PUSH2 0x158C JUMPI JUMPDEST POP POP DUP2 PUSH1 0x1 SHL SWAP2 PUSH1 0x0 NOT SWAP1 PUSH1 0x3 SHL SHR NOT AND OR PUSH1 0x2 DUP6 ADD SSTORE JUMPDEST PUSH1 0x3 DUP5 ADD PUSH1 0x1 DUP1 PUSH1 0xA0 SHL SUB PUSH1 0x60 DUP4 ADD MLOAD AND PUSH12 0xFFFFFFFFFFFFFFFFFFFFFFFF PUSH1 0xA0 SHL DUP3 SLOAD AND OR SWAP1 SSTORE PUSH1 0x80 DUP2 ADD MLOAD PUSH1 0x4 DUP6 ADD SSTORE PUSH2 0x154E PUSH1 0xA0 DUP3 ADD MLOAD ISZERO ISZERO PUSH1 0x5 DUP7 ADD SWAP1 PUSH1 0xFF DUP1 NOT DUP4 SLOAD AND SWAP2 ISZERO ISZERO AND OR SWAP1 SSTORE JUMP JUMPDEST ADD MLOAD SWAP2 ADD SSTORE PUSH2 0x1570 PUSH1 0x40 MLOAD PUSH8 0x6689333F278657F2 PUSH1 0x20 DUP3 ADD MSTORE PUSH1 0x20 DUP2 MSTORE PUSH2 0x1E9F JUMP JUMPDEST PUSH2 0x5D8 PUSH1 0x40 MLOAD PUSH7 0xCCAA64CFC8CF28 PUSH1 0x20 DUP3 ADD MSTORE PUSH1 0x20 DUP2 MSTORE PUSH2 0x1E9F JUMP JUMPDEST ADD MLOAD SWAP1 POP DUP16 DUP1 PUSH2 0x14E6 JUMP JUMPDEST SWAP1 PUSH1 0x2 DUP6 ADD PUSH1 0x0 MSTORE PUSH1 0x20 PUSH1 0x0 KECCAK256 SWAP2 PUSH1 0x0 JUMPDEST PUSH1 0x1F NOT DUP6 AND DUP2 LT PUSH2 0x160C JUMPI POP SWAP4 PUSH1 0x1 DUP5 PUSH1 0x6 SWAP5 PUSH1 0xC0 SWAP5 PUSH1 0x0 DUP1 MLOAD PUSH1 0x20 PUSH2 0x20BE DUP4 CODECOPY DUP2 MLOAD SWAP2 MSTORE SWAP15 SWAP14 SWAP13 SWAP11 SWAP9 PUSH2 0x5FB SWAP13 SWAP11 SWAP9 PUSH1 0x1F NOT DUP2 AND LT PUSH2 0x15F3 JUMPI JUMPDEST POP POP POP DUP2 SHL ADD PUSH1 0x2 DUP6 ADD SSTORE PUSH2 0x14FE JUMP JUMPDEST ADD MLOAD PUSH1 0x0 NOT PUSH1 0xF8 DUP5 PUSH1 0x3 SHL AND SHR NOT AND SWAP1 SSTORE DUP16 DUP1 DUP1 PUSH2 0x15E3 JUMP JUMPDEST SWAP2 SWAP3 PUSH1 0x20 PUSH1 0x1 DUP2 SWAP3 DUP7 DUP6 ADD MLOAD DUP2 SSTORE ADD SWAP5 ADD SWAP3 ADD PUSH2 0x15A8 JUMP JUMPDEST PUSH1 0x2 DUP6 ADD PUSH1 0x0 MSTORE PUSH1 0x20 PUSH1 0x0 KECCAK256 PUSH1 0x1F DUP5 ADD PUSH1 0x5 SHR DUP2 ADD PUSH1 0x20 DUP6 LT PUSH2 0x1664 JUMPI JUMPDEST PUSH1 0x1F DUP4 ADD PUSH1 0x5 SHR DUP3 ADD DUP2 LT PUSH2 0x1658 JUMPI POP POP PUSH2 0x14AE JUMP JUMPDEST PUSH1 0x0 DUP2 SSTORE PUSH1 0x1 ADD PUSH2 0x1642 JUMP JUMPDEST POP DUP1 PUSH2 0x1642 JUMP JUMPDEST ADD MLOAD SWAP1 POP DUP12 DUP1 PUSH2 0x146A JUMP JUMPDEST SWAP3 POP PUSH1 0x1 DUP6 ADD PUSH1 0x0 MSTORE PUSH1 0x20 PUSH1 0x0 KECCAK256 SWAP1 PUSH1 0x0 SWAP4 JUMPDEST PUSH1 0x1F NOT DUP5 AND DUP6 LT PUSH2 0x16CD JUMPI PUSH1 0x1 SWAP5 POP DUP4 PUSH1 0x1F NOT DUP2 AND LT PUSH2 0x16B4 JUMPI JUMPDEST POP POP POP DUP2 SHL ADD PUSH1 0x1 DUP4 ADD SSTORE PUSH2 0x1482 JUMP JUMPDEST ADD MLOAD PUSH1 0x0 NOT PUSH1 0xF8 DUP5 PUSH1 0x3 SHL AND SHR NOT AND SWAP1 SSTORE DUP12 DUP1 DUP1 PUSH2 0x16A4 JUMP JUMPDEST DUP2 DUP2 ADD MLOAD DUP4 SSTORE PUSH1 0x20 SWAP5 DUP6 ADD SWAP5 PUSH1 0x1 SWAP1 SWAP4 ADD SWAP3 SWAP1 SWAP2 ADD SWAP1 PUSH2 0x1689 JUMP JUMPDEST SWAP1 SWAP2 POP PUSH1 0x1 DUP6 ADD PUSH1 0x0 MSTORE PUSH1 0x20 PUSH1 0x0 KECCAK256 PUSH1 0x1F DUP5 ADD PUSH1 0x5 SHR DUP2 ADD PUSH1 0x20 DUP6 LT PUSH2 0x1734 JUMPI JUMPDEST SWAP1 DUP5 SWAP4 SWAP3 SWAP2 JUMPDEST PUSH1 0x1F DUP4 ADD PUSH1 0x5 SHR DUP3 ADD DUP2 LT PUSH2 0x1725 JUMPI POP POP PUSH2 0x1453 JUMP JUMPDEST PUSH1 0x0 DUP2 SSTORE DUP6 SWAP5 POP PUSH1 0x1 ADD PUSH2 0x170F JUMP JUMPDEST POP DUP1 PUSH2 0x1709 JUMP JUMPDEST ADD MLOAD SWAP1 POP DUP12 DUP1 PUSH2 0x1410 JUMP JUMPDEST SWAP3 POP DUP5 PUSH1 0x0 MSTORE PUSH1 0x20 PUSH1 0x0 KECCAK256 SWAP1 PUSH1 0x0 SWAP4 JUMPDEST PUSH1 0x1F NOT DUP5 AND DUP6 LT PUSH2 0x1797 JUMPI PUSH1 0x1 SWAP5 POP DUP4 PUSH1 0x1F NOT DUP2 AND LT PUSH2 0x177E JUMPI JUMPDEST POP POP POP DUP2 SHL ADD DUP3 SSTORE PUSH2 0x1425 JUMP JUMPDEST ADD MLOAD PUSH1 0x0 NOT PUSH1 0xF8 DUP5 PUSH1 0x3 SHL AND SHR NOT AND SWAP1 SSTORE DUP12 DUP1 DUP1 PUSH2 0x1771 JUMP JUMPDEST DUP2 DUP2 ADD MLOAD DUP4 SSTORE PUSH1 0x20 SWAP5 DUP6 ADD SWAP5 PUSH1 0x1 SWAP1 SWAP4 ADD SWAP3 SWAP1 SWAP2 ADD SWAP1 PUSH2 0x1756 JUMP JUMPDEST SWAP1 SWAP2 POP DUP5 PUSH1 0x0 MSTORE PUSH1 0x20 PUSH1 0x0 KECCAK256 PUSH1 0x1F DUP5 ADD PUSH1 0x5 SHR DUP2 ADD PUSH1 0x20 DUP6 LT PUSH2 0x17FB JUMPI JUMPDEST SWAP1 DUP5 SWAP4 SWAP3 SWAP2 JUMPDEST PUSH1 0x1F DUP4 ADD PUSH1 0x5 SHR DUP3 ADD DUP2 LT PUSH2 0x17EC JUMPI POP POP PUSH2 0x13F9 JUMP JUMPDEST PUSH1 0x0 DUP2 SSTORE DUP6 SWAP5 POP PUSH1 0x1 ADD PUSH2 0x17D6 JUMP JUMPDEST POP DUP1 PUSH2 0x17D0 JUMP JUMPDEST PUSH1 0x40 MLOAD PUSH3 0x461BCD PUSH1 0xE5 SHL DUP2 MSTORE PUSH1 0x20 PUSH1 0x4 DUP3 ADD MSTORE PUSH1 0xD PUSH1 0x24 DUP3 ADD MSTORE PUSH13 0x24B73B30B634B210383937B7B3 PUSH1 0x99 SHL PUSH1 0x44 DUP3 ADD MSTORE PUSH1 0x64 SWAP1 REVERT JUMPDEST SWAP1 POP PUSH1 0x20 DUP2 RETURNDATASIZE PUSH1 0x20 GT PUSH2 0x186A JUMPI JUMPDEST DUP2 PUSH2 0x1852 PUSH1 0x20 SWAP4 DUP4 PUSH2 0x1EBA JUMP JUMPDEST DUP2 ADD SUB SLT PUSH2 0xDF JUMPI MLOAD DUP1 ISZERO ISZERO DUP2 SUB PUSH2 0xDF JUMPI DUP8 PUSH2 0x128E JUMP JUMPDEST RETURNDATASIZE SWAP2 POP PUSH2 0x1845 JUMP JUMPDEST PUSH1 0x40 MLOAD RETURNDATASIZE PUSH1 0x0 DUP3 RETURNDATACOPY RETURNDATASIZE SWAP1 REVERT JUMPDEST POP POP POP PUSH2 0x189E PUSH1 0x40 MLOAD PUSH8 0xBD9DF10AD7ED4FEF PUSH1 0x20 DUP3 ADD MSTORE PUSH1 0x20 DUP2 MSTORE PUSH2 0x1E9F JUMP JUMPDEST PUSH2 0x1308 JUMP JUMPDEST PUSH1 0x40 MLOAD PUSH3 0x461BCD PUSH1 0xE5 SHL DUP2 MSTORE PUSH1 0x20 PUSH1 0x4 DUP3 ADD MSTORE PUSH1 0x10 PUSH1 0x24 DUP3 ADD MSTORE PUSH16 0x15995C9A599A595C881B9BDD081CD95D PUSH1 0x82 SHL PUSH1 0x44 DUP3 ADD MSTORE PUSH1 0x64 SWAP1 REVERT JUMPDEST PUSH2 0x18F8 PUSH1 0x40 MLOAD PUSH8 0xAA049CDC919125C PUSH1 0x20 DUP3 ADD MSTORE PUSH1 0x20 DUP2 MSTORE PUSH2 0x1E9F JUMP JUMPDEST PUSH2 0x1195 JUMP JUMPDEST CALLVALUE PUSH2 0xDF JUMPI PUSH1 0x0 CALLDATASIZE PUSH1 0x3 NOT ADD SLT PUSH2 0xDF JUMPI PUSH1 0x5 SLOAD PUSH1 0x40 MLOAD PUSH1 0x1 PUSH1 0x1 PUSH1 0xA0 SHL SUB SWAP1 SWAP2 AND DUP2 MSTORE PUSH1 0x20 SWAP1 RETURN JUMPDEST CALLVALUE PUSH2 0xDF JUMPI PUSH1 0x20 DUP1 PUSH1 0x3 NOT CALLDATASIZE ADD SLT PUSH2 0xDF JUMPI PUSH1 0x4 CALLDATALOAD PUSH2 0x1956 PUSH1 0x40 MLOAD PUSH8 0x203B2ACFCB1550E2 DUP5 DUP3 ADD MSTORE DUP4 DUP2 MSTORE PUSH2 0x1E9F JUMP JUMPDEST PUSH2 0x1971 PUSH1 0x40 MLOAD PUSH8 0x3F3D9EF70237F0B5 DUP5 DUP3 ADD MSTORE DUP4 DUP2 MSTORE PUSH2 0x1E9F JUMP JUMPDEST PUSH2 0x198C PUSH1 0x40 MLOAD PUSH8 0x6E5E8DB6C80FC70C DUP5 DUP3 ADD MSTORE DUP4 DUP2 MSTORE PUSH2 0x1E9F JUMP JUMPDEST PUSH2 0x19A7 PUSH1 0x40 MLOAD PUSH8 0x8318AFBD3453C1FA DUP5 DUP3 ADD MSTORE DUP4 DUP2 MSTORE PUSH2 0x1E9F JUMP JUMPDEST PUSH2 0x19C2 PUSH1 0x40 MLOAD PUSH8 0x1BA55F082F10CD35 DUP5 DUP3 ADD MSTORE DUP4 DUP2 MSTORE PUSH2 0x1E9F JUMP JUMPDEST CALLER PUSH1 0x0 MSTORE PUSH1 0x3 DUP3 MSTORE PUSH2 0x19DB PUSH1 0xFF PUSH1 0x40 PUSH1 0x0 KECCAK256 SLOAD AND PUSH2 0x200F JUMP JUMPDEST PUSH2 0x19F6 PUSH1 0x40 MLOAD PUSH8 0x147C892DBC725FC4 DUP5 DUP3 ADD MSTORE DUP4 DUP2 MSTORE PUSH2 0x1E9F JUMP JUMPDEST PUSH2 0x1A11 PUSH1 0x40 MLOAD PUSH8 0x53B0C4E3D61BB742 DUP5 DUP3 ADD MSTORE DUP4 DUP2 MSTORE PUSH2 0x1E9F JUMP JUMPDEST PUSH2 0x1A2C PUSH1 0x40 MLOAD PUSH8 0x4679992E5C06CA4F DUP5 DUP3 ADD MSTORE DUP4 DUP2 MSTORE PUSH2 0x1E9F JUMP JUMPDEST PUSH2 0x1A47 PUSH1 0x40 MLOAD PUSH8 0xB22157DD65683322 DUP5 DUP3 ADD MSTORE DUP4 DUP2 MSTORE PUSH2 0x1E9F JUMP JUMPDEST PUSH2 0x1A62 PUSH1 0x40 MLOAD PUSH8 0x78BF16FD1FF7487 DUP5 DUP3 ADD MSTORE DUP4 DUP2 MSTORE PUSH2 0x1E9F JUMP JUMPDEST PUSH2 0x1A7D PUSH1 0x40 MLOAD PUSH8 0xB7196257F983ADC9 DUP5 DUP3 ADD MSTORE DUP4 DUP2 MSTORE PUSH2 0x1E9F JUMP JUMPDEST PUSH2 0x1A98 PUSH1 0x40 MLOAD PUSH8 0x76A5EE4EC7C8B4DA DUP5 DUP3 ADD MSTORE DUP4 DUP2 MSTORE PUSH2 0x1E9F JUMP JUMPDEST DUP1 PUSH1 0x0 MSTORE PUSH1 0x1 DUP3 MSTORE PUSH1 0x4 PUSH1 0x40 PUSH1 0x0 KECCAK256 ADD SLOAD ISZERO PUSH2 0x1C96 JUMPI PUSH2 0x1AC9 PUSH1 0x40 MLOAD PUSH8 0x40C98FCE709B055E DUP5 DUP3 ADD MSTORE DUP4 DUP2 MSTORE PUSH2 0x1E9F JUMP JUMPDEST PUSH2 0x1AE4 PUSH1 0x40 MLOAD PUSH8 0x7F0BC84E99D4B6B0 DUP5 DUP3 ADD MSTORE DUP4 DUP2 MSTORE PUSH2 0x1E9F JUMP JUMPDEST PUSH2 0x1AFF PUSH1 0x40 MLOAD PUSH8 0x7695AE5A726DD7B9 DUP5 DUP3 ADD MSTORE DUP4 DUP2 MSTORE PUSH2 0x1E9F JUMP JUMPDEST PUSH2 0x1B1A PUSH1 0x40 MLOAD PUSH8 0xD4C783DEFB9F681F DUP5 DUP3 ADD MSTORE DUP4 DUP2 MSTORE PUSH2 0x1E9F JUMP JUMPDEST DUP1 PUSH1 0x0 MSTORE PUSH1 0x2 DUP3 MSTORE PUSH1 0x40 PUSH1 0x0 KECCAK256 CALLER PUSH1 0x0 MSTORE DUP3 MSTORE PUSH1 0xFF PUSH1 0x40 PUSH1 0x0 KECCAK256 SLOAD AND PUSH2 0x1C5E JUMPI PUSH2 0x1B55 PUSH1 0x40 MLOAD PUSH8 0x98076093F7DDFC55 DUP5 DUP3 ADD MSTORE DUP4 DUP2 MSTORE PUSH2 0x1E9F JUMP JUMPDEST PUSH2 0x1B70 PUSH1 0x40 MLOAD PUSH8 0xC161CF00BF81027F DUP5 DUP3 ADD MSTORE DUP4 DUP2 MSTORE PUSH2 0x1E9F JUMP JUMPDEST DUP1 PUSH1 0x0 MSTORE PUSH1 0x2 DUP3 MSTORE PUSH1 0x40 PUSH1 0x0 KECCAK256 CALLER PUSH1 0x0 MSTORE DUP3 MSTORE PUSH1 0x40 PUSH1 0x0 KECCAK256 PUSH1 0x1 PUSH1 0xFF NOT DUP3 SLOAD AND OR SWAP1 SSTORE PUSH2 0x1BAE PUSH1 0x40 MLOAD PUSH8 0x7D60DA2C5608A5C2 DUP5 DUP3 ADD MSTORE DUP4 DUP2 MSTORE PUSH2 0x1E9F JUMP JUMPDEST DUP1 PUSH1 0x0 MSTORE PUSH1 0x1 DUP3 MSTORE PUSH1 0x6 PUSH1 0x40 PUSH1 0x0 KECCAK256 ADD DUP1 SLOAD SWAP1 PUSH1 0x1 DUP3 ADD DUP1 SWAP3 GT PUSH2 0x1C48 JUMPI SSTORE PUSH2 0x1BE8 PUSH1 0x40 MLOAD PUSH8 0x79BA13E942EC25B8 DUP5 DUP3 ADD MSTORE DUP4 DUP2 MSTORE PUSH2 0x1E9F JUMP JUMPDEST PUSH2 0x1C03 PUSH1 0x40 MLOAD PUSH8 0x58100B94681F008E DUP5 DUP3 ADD MSTORE DUP4 DUP2 MSTORE PUSH2 0x1E9F JUMP JUMPDEST DUP1 PUSH1 0x0 MSTORE PUSH1 0x1 DUP3 MSTORE PUSH1 0x6 PUSH1 0x40 PUSH1 0x0 KECCAK256 ADD SLOAD SWAP2 PUSH1 0x40 MLOAD SWAP3 DUP4 MSTORE TIMESTAMP SWAP1 DUP4 ADD MSTORE PUSH32 0x9F77029216D2715228BAE995E8BC0C2CF90BC82A87B1F0C569EF8EF50A465DD1 PUSH1 0x40 CALLER SWAP4 LOG3 STOP JUMPDEST PUSH4 0x4E487B71 PUSH1 0xE0 SHL PUSH1 0x0 MSTORE PUSH1 0x11 PUSH1 0x4 MSTORE PUSH1 0x24 PUSH1 0x0 REVERT JUMPDEST PUSH1 0x40 MLOAD PUSH3 0x461BCD PUSH1 0xE5 SHL DUP2 MSTORE PUSH1 0x4 DUP2 ADD DUP4 SWAP1 MSTORE PUSH1 0x10 PUSH1 0x24 DUP3 ADD MSTORE PUSH16 0x105B1C9958591E48185C1C1C9BDD9959 PUSH1 0x82 SHL PUSH1 0x44 DUP3 ADD MSTORE PUSH1 0x64 SWAP1 REVERT JUMPDEST PUSH1 0x40 MLOAD PUSH3 0x461BCD PUSH1 0xE5 SHL DUP2 MSTORE PUSH1 0x4 DUP2 ADD DUP4 SWAP1 MSTORE PUSH1 0x11 PUSH1 0x24 DUP3 ADD MSTORE PUSH17 0x14995C5D595CDD081B9BDD08199BDD5B99 PUSH1 0x7A SHL PUSH1 0x44 DUP3 ADD MSTORE PUSH1 0x64 SWAP1 REVERT JUMPDEST CALLVALUE PUSH2 0xDF JUMPI PUSH1 0x20 CALLDATASIZE PUSH1 0x3 NOT ADD SLT PUSH2 0xDF JUMPI PUSH1 0x1 PUSH1 0x1 PUSH1 0xA0 SHL SUB PUSH2 0x1CF0 PUSH2 0x1E07 JUMP JUMPDEST AND PUSH1 0x0 MSTORE PUSH1 0x3 PUSH1 0x20 MSTORE PUSH1 0x20 PUSH1 0xFF PUSH1 0x40 PUSH1 0x0 KECCAK256 SLOAD AND PUSH1 0x40 MLOAD SWAP1 ISZERO ISZERO DUP2 MSTORE RETURN JUMPDEST CALLVALUE PUSH2 0xDF JUMPI PUSH1 0x20 SWAP1 DUP2 PUSH1 0x3 NOT CALLDATASIZE ADD SLT PUSH2 0xDF JUMPI PUSH1 0x4 CALLDATALOAD SWAP2 DUP3 ISZERO ISZERO DUP1 SWAP4 SUB PUSH2 0xDF JUMPI PUSH2 0x1D4B DUP3 PUSH8 0x5F0E92089002AC09 DUP4 PUSH2 0x1DE8 SWAP6 ADD MSTORE DUP3 DUP2 MSTORE PUSH2 0x1E9F JUMP JUMPDEST PUSH2 0x1D66 PUSH1 0x40 MLOAD PUSH8 0x8603FDC96488C59B DUP4 DUP3 ADD MSTORE DUP3 DUP2 MSTORE PUSH2 0x1E9F JUMP JUMPDEST PUSH2 0x1D81 PUSH1 0x40 MLOAD PUSH8 0xB18AB1BE68A0FAD8 DUP4 DUP3 ADD MSTORE DUP3 DUP2 MSTORE PUSH2 0x1E9F JUMP JUMPDEST PUSH2 0x1D9C PUSH1 0x40 MLOAD PUSH8 0x57EB031C999E071E DUP4 DUP3 ADD MSTORE DUP3 DUP2 MSTORE PUSH2 0x1E9F JUMP JUMPDEST CALLER PUSH1 0x0 MSTORE PUSH1 0x3 DUP2 MSTORE PUSH2 0x1DB5 PUSH1 0xFF PUSH1 0x40 PUSH1 0x0 KECCAK256 SLOAD AND PUSH2 0x200F JUMP JUMPDEST PUSH2 0x1DD0 PUSH1 0x40 MLOAD PUSH8 0xF93BD23ADCD103D4 DUP4 DUP3 ADD MSTORE DUP3 DUP2 MSTORE PUSH2 0x1E9F JUMP JUMPDEST PUSH1 0x40 MLOAD SWAP1 PUSH8 0xFA92D56AAD0D5D6A DUP2 DUP4 ADD MSTORE DUP2 MSTORE PUSH2 0x1E9F JUMP JUMPDEST PUSH1 0x5 DUP1 SLOAD PUSH1 0xFF PUSH1 0xA0 SHL NOT AND PUSH1 0xA0 SWAP3 SWAP1 SWAP3 SHL PUSH1 0xFF PUSH1 0xA0 SHL AND SWAP2 SWAP1 SWAP2 OR SWAP1 SSTORE STOP JUMPDEST PUSH1 0x4 CALLDATALOAD SWAP1 PUSH1 0x1 PUSH1 0x1 PUSH1 0xA0 SHL SUB DUP3 AND DUP3 SUB PUSH2 0xDF JUMPI JUMP JUMPDEST SWAP2 DUP2 PUSH1 0x1F DUP5 ADD SLT ISZERO PUSH2 0xDF JUMPI DUP3 CALLDATALOAD SWAP2 PUSH1 0x1 PUSH1 0x1 PUSH1 0x40 SHL SUB DUP4 GT PUSH2 0xDF JUMPI PUSH1 0x20 DUP4 DUP2 DUP7 ADD SWAP6 ADD ADD GT PUSH2 0xDF JUMPI JUMP JUMPDEST SWAP1 PUSH1 0x1 DUP3 DUP2 SHR SWAP3 AND DUP1 ISZERO PUSH2 0x1E7A JUMPI JUMPDEST PUSH1 0x20 DUP4 LT EQ PUSH2 0x1E64 JUMPI JUMP JUMPDEST PUSH4 0x4E487B71 PUSH1 0xE0 SHL PUSH1 0x0 MSTORE PUSH1 0x22 PUSH1 0x4 MSTORE PUSH1 0x24 PUSH1 0x0 REVERT JUMPDEST SWAP2 PUSH1 0x7F AND SWAP2 PUSH2 0x1E59 JUMP JUMPDEST PUSH1 0xE0 DUP2 ADD SWAP1 DUP2 LT PUSH1 0x1 PUSH1 0x1 PUSH1 0x40 SHL SUB DUP3 GT OR PUSH2 0x6DF JUMPI PUSH1 0x40 MSTORE JUMP JUMPDEST PUSH1 0x40 DUP2 ADD SWAP1 DUP2 LT PUSH1 0x1 PUSH1 0x1 PUSH1 0x40 SHL SUB DUP3 GT OR PUSH2 0x6DF JUMPI PUSH1 0x40 MSTORE JUMP JUMPDEST SWAP1 PUSH1 0x1F DUP1 NOT SWAP2 ADD AND DUP2 ADD SWAP1 DUP2 LT PUSH1 0x1 PUSH1 0x1 PUSH1 0x40 SHL SUB DUP3 GT OR PUSH2 0x6DF JUMPI PUSH1 0x40 MSTORE JUMP JUMPDEST SWAP1 PUSH1 0x40 MLOAD SWAP2 DUP3 PUSH1 0x0 DUP3 SLOAD SWAP3 PUSH2 0x1EEF DUP5 PUSH2 0x1E4A JUMP JUMPDEST SWAP1 DUP2 DUP5 MSTORE PUSH1 0x1 SWAP5 DUP6 DUP2 AND SWAP1 DUP2 PUSH1 0x0 EQ PUSH2 0x1F5E JUMPI POP PUSH1 0x1 EQ PUSH2 0x1F1B JUMPI JUMPDEST POP POP PUSH2 0x1F19 SWAP3 POP SUB DUP4 PUSH2 0x1EBA JUMP JUMPDEST JUMP JUMPDEST SWAP1 SWAP4 SWAP2 POP PUSH1 0x0 MSTORE PUSH1 0x20 SWAP1 DUP2 PUSH1 0x0 KECCAK256 SWAP4 PUSH1 0x0 SWAP2 JUMPDEST DUP2 DUP4 LT PUSH2 0x1F46 JUMPI POP POP PUSH2 0x1F19 SWAP4 POP DUP3 ADD ADD CODESIZE DUP1 PUSH2 0x1F0B JUMP JUMPDEST DUP6 SLOAD DUP9 DUP5 ADD DUP6 ADD MSTORE SWAP5 DUP6 ADD SWAP5 DUP8 SWAP5 POP SWAP2 DUP4 ADD SWAP2 PUSH2 0x1F2E JUMP JUMPDEST SWAP2 POP POP PUSH2 0x1F19 SWAP5 POP PUSH1 0x20 SWAP3 POP PUSH1 0xFF NOT AND DUP3 DUP5 ADD MSTORE ISZERO ISZERO PUSH1 0x5 SHL DUP3 ADD ADD CODESIZE DUP1 PUSH2 0x1F0B JUMP JUMPDEST PUSH1 0x0 JUMPDEST DUP4 DUP2 LT PUSH2 0x1F94 JUMPI POP POP PUSH1 0x0 SWAP2 ADD MSTORE JUMP JUMPDEST DUP2 DUP2 ADD MLOAD DUP4 DUP3 ADD MSTORE PUSH1 0x20 ADD PUSH2 0x1F84 JUMP JUMPDEST SWAP1 PUSH1 0x20 SWAP2 PUSH2 0x1FBD DUP2 MLOAD DUP1 SWAP3 DUP2 DUP6 MSTORE DUP6 DUP1 DUP7 ADD SWAP2 ADD PUSH2 0x1F81 JUMP JUMPDEST PUSH1 0x1F ADD PUSH1 0x1F NOT AND ADD ADD SWAP1 JUMP JUMPDEST SWAP3 SWAP2 SWAP3 PUSH1 0x1 PUSH1 0x1 PUSH1 0x40 SHL SUB DUP3 GT PUSH2 0x6DF JUMPI PUSH1 0x40 MLOAD SWAP2 PUSH2 0x1FF2 PUSH1 0x1F DUP3 ADD PUSH1 0x1F NOT AND PUSH1 0x20 ADD DUP5 PUSH2 0x1EBA JUMP JUMPDEST DUP3 SWAP5 DUP2 DUP5 MSTORE DUP2 DUP4 ADD GT PUSH2 0xDF JUMPI DUP3 DUP2 PUSH1 0x20 SWAP4 DUP5 PUSH1 0x0 SWAP7 ADD CALLDATACOPY ADD ADD MSTORE JUMP JUMPDEST ISZERO PUSH2 0x2016 JUMPI JUMP JUMPDEST PUSH1 0x40 MLOAD PUSH3 0x461BCD PUSH1 0xE5 SHL DUP2 MSTORE PUSH1 0x20 PUSH1 0x4 DUP3 ADD MSTORE PUSH1 0xE PUSH1 0x24 DUP3 ADD MSTORE PUSH14 0x139BDD08185D5D1A1BDC9A5E9959 PUSH1 0x92 SHL PUSH1 0x44 DUP3 ADD MSTORE PUSH1 0x64 SWAP1 REVERT JUMPDEST SWAP1 DUP1 PUSH1 0x20 SWAP4 SWAP3 DUP2 DUP5 MSTORE DUP5 DUP5 ADD CALLDATACOPY PUSH1 0x0 DUP3 DUP3 ADD DUP5 ADD MSTORE PUSH1 0x1F ADD PUSH1 0x1F NOT AND ADD ADD SWAP1 JUMP JUMPDEST PUSH1 0x0 NOT DUP2 EQ PUSH2 0x1C48 JUMPI PUSH1 0x1 ADD SWAP1 JUMP JUMPDEST SWAP3 SWAP1 SWAP4 PUSH2 0x209B PUSH1 0x60 SWAP6 PUSH2 0x20A9 SWAP5 SWAP10 SWAP9 SWAP8 SWAP10 PUSH1 0x80 DUP8 MSTORE PUSH1 0x80 DUP8 ADD SWAP2 PUSH2 0x204C JUMP JUMPDEST SWAP2 DUP5 DUP4 SUB PUSH1 0x20 DUP7 ADD MSTORE PUSH2 0x204C JUMP JUMPDEST PUSH1 0x1 PUSH1 0x1 PUSH1 0xA0 SHL SUB SWAP1 SWAP6 AND PUSH1 0x40 DUP3 ADD MSTORE ADD MSTORE JUMP INVALID 0x21 0xF7 0x5D 0x5D 0xEF CODESIZE 0x26 0x5C 0xC8 EXP PUSH24 0x515B127D27C9121B1CE435E4B3451C1748761F345DA26469 PUSH17 0x66735822122086A695C111C53590B87EEF 0xB3 SLT 0xC9 0xD6 MULMOD 0xA8 XOR 0xD4 DUP11 0x4E CALL 0xD4 0xDE PUSH20 0x7163D4452A102D64736F6C634300081400330000 "},"methodIdentifiers":{"approveRedaction(uint256)":"2544a470","authorizedUsers(address)":"1828983a","medicalRecords(string)":"c9f020ac","nextRequestId()":"6a84a985","redactionApprovals(uint256,address)":"e73e07d6","redactionRequests(uint256)":"ad4bae23","requestDataRedaction(string,string,string)":"d0173cf5","requestDataRedactionWithProof(string,string,string,bytes,bytes32,bytes32,bytes32,bytes32)":"43e23864","requireProofs()":"fa74b97c","setAuthorized(address,bool)":"711bf9b2","setRequireProofs(bool)":"11e5b5a9","setVerifier(address)":"5437988d","storeMedicalData(string,string,bytes32)":"65ade204","verifier()":"2b7ac3f3"}}}}}