{"src/MedicalDataManager.sol":{"MedicalDataManager":{"abi":[{"inputs":[{"internalType":"address","name":"_verifier","type":"address"},{"internalType":"address","name":"_nullifierRegistry","type":"address"}],"stateMutability":"nonpayable","type":"constructor"},{"anonymous":false,"inputs":[{"indexed":true,"internalType":"uint256","name":"requestId","type":"uint256"},{"indexed":false,"internalType":"bytes32","name":"consistencyProofHash","type":"bytes32"},{"indexed":false,"internalType":"bytes32","name":"preStateHash","type":"bytes32"},{"indexed":false,"internalType":"bytes32","name":"postStateHash","type":"bytes32"}],"name":"ConsistencyProofStored","type":"event"},{"anonymous":false,"inputs":[{"indexed":true,"internalType":"string","name":"patientId","type":"string"},{"indexed":false,"internalType":"string","name":"ipfsHash","type":"string"},{"indexed":false,"internalType":"bytes32","name":"ciphertextHash","type":"bytes32"},{"indexed":false,"internalType":"uint256","name":"timestamp","type":"uint256"}],"name":"DataStored","type":"event"},{"anonymous":false,"inputs":[{"indexed":true,"internalType":"uint256","name":"requestId","type":"uint256"},{"indexed":true,"internalType":"bytes32","name":"nullifier","type":"bytes32"}],"name":"NullifierRecorded","type":"event"},{"anonymous":false,"inputs":[{"indexed":true,"internalType":"uint256","name":"requestId","type":"uint256"},{"indexed":false,"internalType":"string","name":"verifierType","type":"string"},{"indexed":false,"internalType":"string","name":"reason","type":"string"},{"indexed":false,"internalType":"uint256","name":"timestamp","type":"uint256"}],"name":"ProofVerificationFailed","type":"event"},{"anonymous":false,"inputs":[{"indexed":true,"internalType":"uint256","name":"requestId","type":"uint256"},{"indexed":false,"internalType":"string","name":"verifierType","type":"string"},{"indexed":false,"internalType":"uint256","name":"timestamp","type":"uint256"}],"name":"ProofVerificationSucceeded","type":"event"},{"anonymous":false,"inputs":[{"indexed":true,"internalType":"uint256","name":"requestId","type":"uint256"},{"indexed":true,"internalType":"bytes32","name":"nullifier","type":"bytes32"},{"indexed":false,"internalType":"bytes32","name":"zkProofHash","type":"bytes32"},{"indexed":false,"internalType":"bytes32","name":"consistencyProofHash","type":"bytes32"},{"indexed":false,"internalType":"uint256","name":"timestamp","type":"uint256"}],"name":"ProofVerifiedOnChain","type":"event"},{"anonymous":false,"inputs":[{"indexed":true,"internalType":"uint256","name":"requestId","type":"uint256"},{"indexed":true,"internalType":"address","name":"approver","type":"address"},{"indexed":false,"internalType":"uint256","name":"approvals","type":"uint256"},{"indexed":false,"internalType":"uint256","name":"timestamp","type":"uint256"}],"name":"RedactionApproved","type":"event"},{"anonymous":false,"inputs":[{"indexed":true,"internalType":"uint256","name":"requestId","type":"uint256"},{"indexed":true,"internalType":"string","name":"patientId","type":"string"},{"indexed":false,"internalType":"string","name":"redactionType","type":"string"},{"indexed":false,"internalType":"string","name":"reason","type":"string"},{"indexed":false,"internalType":"address","name":"requester","type":"address"},{"indexed":false,"internalType":"uint256","name":"timestamp","type":"uint256"}],"name":"RedactionRequested","type":"event"},{"inputs":[{"internalType":"uint256","name":"requestId","type":"uint256"}],"name":"approveRedaction","outputs":[],"stateMutability":"nonpayable","type":"function"},{"inputs":[{"internalType":"address","name":"","type":"address"}],"name":"authorizedUsers","outputs":[{"internalType":"bool","name":"","type":"bool"}],"stateMutability":"view","type":"function"},{"inputs":[{"internalType":"uint256","name":"requestId","type":"uint256"}],"name":"getRedactionProofDetails","outputs":[{"internalType":"bytes32","name":"zkProofHash","type":"bytes32"},{"internalType":"bytes32","name":"consistencyProofHash","type":"bytes32"},{"internalType":"bytes32","name":"nullifier","type":"bytes32"},{"internalType":"bytes32","name":"preStateHash","type":"bytes32"},{"internalType":"bytes32","name":"postStateHash","type":"bytes32"}],"stateMutability":"view","type":"function"},{"inputs":[{"internalType":"bytes32","name":"nullifier","type":"bytes32"}],"name":"isNullifierValid","outputs":[{"internalType":"bool","name":"","type":"bool"}],"stateMutability":"view","type":"function"},{"inputs":[{"internalType":"string","name":"","type":"string"}],"name":"medicalRecords","outputs":[{"internalType":"string","name":"ipfsHash","type":"string"},{"internalType":"bytes32","name":"ciphertextHash","type":"bytes32"},{"internalType":"uint256","name":"lastUpdated","type":"uint256"}],"stateMutability":"view","type":"function"},{"inputs":[],"name":"nextRequestId","outputs":[{"internalType":"uint256","name":"","type":"uint256"}],"stateMutability":"view","type":"function"},{"inputs":[],"name":"nullifierRegistry","outputs":[{"internalType":"contract INullifierRegistry","name":"","type":"address"}],"stateMutability":"view","type":"function"},{"inputs":[{"internalType":"uint256","name":"","type":"uint256"},{"internalType":"address","name":"","type":"address"}],"name":"redactionApprovals","outputs":[{"internalType":"bool","name":"","type":"bool"}],"stateMutability":"view","type":"function"},{"inputs":[{"internalType":"uint256","name":"","type":"uint256"}],"name":"redactionRequests","outputs":[{"internalType":"string","name":"patientId","type":"string"},{"internalType":"string","name":"redactionType","type":"string"},{"internalType":"string","name":"reason","type":"string"},{"internalType":"address","name":"requester","type":"address"},{"internalType":"uint256","name":"timestamp","type":"uint256"},{"internalType":"bool","name":"executed","type":"bool"},{"internalType":"uint256","name":"approvals","type":"uint256"},{"internalType":"bytes32","name":"zkProofHash","type":"bytes32"},{"internalType":"bytes32","name":"consistencyProofHash","type":"bytes32"},{"internalType":"bytes32","name":"nullifier","type":"bytes32"},{"internalType":"bytes32","name":"preStateHash","type":"bytes32"},{"internalType":"bytes32","name":"postStateHash","type":"bytes32"}],"stateMutability":"view","type":"function"},{"inputs":[{"internalType":"string","name":"patientId","type":"string"},{"internalType":"string","name":"redactionType","type":"string"},{"internalType":"string","name":"reason","type":"string"}],"name":"requestDataRedaction","outputs":[],"stateMutability":"nonpayable","type":"function"},{"inputs":[{"internalType":"string","name":"patientId","type":"string"},{"internalType":"string","name":"redactionType","type":"string"},{"internalType":"string","name":"reason","type":"string"},{"internalType":"uint256[2]","name":"pA","type":"uint256[2]"},{"internalType":"uint256[2][2]","name":"pB","type":"uint256[2][2]"},{"internalType":"uint256[2]","name":"pC","type":"uint256[2]"},{"internalType":"uint256[1]","name":"pubSignals","type":"uint256[1]"},{"internalType":"bytes32","name":"nullifier","type":"bytes32"},{"internalType":"bytes32","name":"consistencyProofHash","type":"bytes32"},{"internalType":"bytes32","name":"preStateHash","type":"bytes32"},{"internalType":"bytes32","name":"postStateHash","type":"bytes32"}],"name":"requestDataRedactionWithFullProofs","outputs":[{"internalType":"uint256","name":"requestId","type":"uint256"}],"stateMutability":"nonpayable","type":"function"},{"inputs":[{"internalType":"string","name":"patientId","type":"string"},{"internalType":"string","name":"redactionType","type":"string"},{"internalType":"string","name":"reason","type":"string"},{"internalType":"uint256[2]","name":"pA","type":"uint256[2]"},{"internalType":"uint256[2][2]","name":"pB","type":"uint256[2][2]"},{"internalType":"uint256[2]","name":"pC","type":"uint256[2]"},{"internalType":"uint256[1]","name":"pubSignals","type":"uint256[1]"}],"name":"requestDataRedactionWithGroth16Proof","outputs":[],"stateMutability":"nonpayable","type":"function"},{"inputs":[{"internalType":"string","name":"patientId","type":"string"},{"internalType":"string","name":"redactionType","type":"string"},{"internalType":"string","name":"reason","type":"string"},{"internalType":"bytes","name":"proof","type":"bytes"},{"internalType":"bytes32","name":"policyHash","type":"bytes32"},{"internalType":"bytes32","name":"merkleRoot","type":"bytes32"},{"internalType":"bytes32","name":"originalHash","type":"bytes32"},{"internalType":"bytes32","name":"redactedHash","type":"bytes32"}],"name":"requestDataRedactionWithProof","outputs":[],"stateMutability":"nonpayable","type":"function"},{"inputs":[],"name":"requireProofs","outputs":[{"internalType":"bool","name":"","type":"bool"}],"stateMutability":"view","type":"function"},{"inputs":[{"internalType":"address","name":"user","type":"address"},{"internalType":"bool","name":"enabled","type":"bool"}],"name":"setAuthorized","outputs":[],"stateMutability":"nonpayable","type":"function"},{"inputs":[{"internalType":"address","name":"_nullifierRegistry","type":"address"}],"name":"setNullifierRegistry","outputs":[],"stateMutability":"nonpayable","type":"function"},{"inputs":[{"internalType":"bool","name":"value","type":"bool"}],"name":"setRequireProofs","outputs":[],"stateMutability":"nonpayable","type":"function"},{"inputs":[{"internalType":"address","name":"verifierAddr","type":"address"}],"name":"setVerifier","outputs":[],"stateMutability":"nonpayable","type":"function"},{"inputs":[{"internalType":"uint8","name":"mode","type":"uint8"}],"name":"setVerifierType","outputs":[],"stateMutability":"nonpayable","type":"function"},{"inputs":[{"internalType":"string","name":"patientId","type":"string"},{"internalType":"string","name":"ipfsHash","type":"string"},{"internalType":"bytes32","name":"ciphertextHash","type":"bytes32"}],"name":"storeMedicalData","outputs":[],"stateMutability":"nonpayable","type":"function"},{"inputs":[],"name":"verifier","outputs":[{"internalType":"address","name":"","type":"address"}],"stateMutability":"view","type":"function"},{"inputs":[],"name":"verifierType","outputs":[{"internalType":"enum MedicalDataManager.VerifierType","name":"","type":"uint8"}],"stateMutability":"view","type":"function"}],"evm":{"bytecode":{"linkReferences":{},"object":"608034620000d257601f62002e1738819003918201601f19168301916001600160401b03831184841017620000d7578084926040948552833981010312620000d2576200005a60206200005283620000ed565b9201620000ed565b60058054600680546001600160a01b0319166001600160a01b03948516179055600161ff0160a01b03191691909216908117600160a91b1760ff60a01b191690151560a01b60ff60a01b161790553360009081526003602052604090819020805460ff1916600117905551612d149081620001038239f35b600080fd5b634e487b7160e01b600052604160045260246000fd5b51906001600160a01b0382168203620000d25756fe6080604052600436101561001257600080fd5b60003560e01c806311e5b5a9146127ab578063170227f71461277e5780631828983a1461273f5780632544a470146125e35780632b7ac3f3146125ba5780632f9e3b29146125655780633b1cde371461247b57806343e2386414611d38578063477f17bc146113cd5780635437988d1461139357806365ade204146111425780636a84a98514611124578063711bf9b2146110d35780638b2d239014611051578063ad4bae2314610f5c578063b870676c14610f33578063bb6baea714610f0b578063c9f020ac14610e6e578063d0173cf514610924578063e73e07d6146108d2578063ed1d0fdc146101395763fa74b97c1461010e57600080fd5b3461013457600036600319011261013457602060ff60055460a01c166040519015158152f35b600080fd5b3461013457610180366003190112610134576004356001600160401b0381116101345761016a903690600401612818565b906024356001600160401b0381116101345761018a903690600401612818565b90926044356001600160401b038111610134576101ab903690600401612818565b9290913660a411610134573661012411610134573661016411610134573661018411610134573360005260036020526101eb60ff604060002054166129f0565b60055460ff8160a01c166108b9575b6001600160a01b03811661072b575b50610215600454612a4e565b9485600455604051602081019061023d8161022f84612c0f565b03601f19810183528261289b565b5190206040519061024d8261287f565b6102583685856129aa565b825261026536868b6129aa565b60208301526102753688886129aa565b6040830152336060830152426080830152600060a0830152600060c083015260e0820152600061010082015260006101208201526000610140820152600061016082015286600052600160205260406000209080518051906001600160401b0382116105835781906102e78554612845565b601f81116106db575b50602090601f831160011461066f57600092610664575b50508160011b916000199060031b1c19161782555b60208101518051906001600160401b0382116105835781906103416001860154612845565b601f8111610611575b50602090601f83116001146105a457600092610599575b50508160011b916000199060031b1c19161760018301555b60408101518051906001600160401b0382116105835761039c6002850154612845565b601f811161053c575b50602090601f83116001146104ae57600080516020612cbf83398151915299989795938361049e989694600b94610160946000926104a3575b50508160011b916000199060031b1c19161760028501555b6003840160018060a01b036060830151166001600160601b0360a01b8254161790556080810151600485015561044160a08201511515600586019060ff801983541691151516179055565b60c0810151600685015560e0810151600785015561010081015160088501556101208101516009850155610140810151600a8501550151910155816040519283928337810160008152039020966040519485944293339387612a5d565b0390a3005b015190508f806103de565b906002850160005260206000209160005b601f1985168110610524575093600184600b9461016094600080516020612cbf8339815191529e9d9c9a9861049e9c9a98601f1981161061050b575b505050811b0160028501556103f6565b015160001960f88460031b161c191690558f80806104fb565b919260206001819286850151815501940192016104bf565b600285016000526020600020601f840160051c81016020851061057c575b601f830160051c820181106105705750506103a5565b6000815560010161055a565b508061055a565b634e487b7160e01b600052604160045260246000fd5b015190508b80610361565b600186016000908152602081209350601f198516905b8181106105f957509084600195949392106105e0575b505050811b016001830155610379565b015160001960f88460031b161c191690558b80806105d0565b929360206001819287860151815501950193016105ba565b909150600185016000526020600020601f840160051c81016020851061065d575b90849392915b601f830160051c8201811061064e57505061034a565b60008155859450600101610638565b5080610632565b015190508b80610307565b9250846000526020600020906000935b601f19841685106106c0576001945083601f198116106106a7575b505050811b01825561031c565b015160001960f88460031b161c191690558b808061069a565b8181015183556020948501946001909301929091019061067f565b909150846000526020600020601f840160051c810160208510610724575b90849392915b601f830160051c820181106107155750506102f0565b600081558594506001016106ff565b50806106f9565b600360ff8260a81c1610156108a35761074c600260ff8360a81c1614612add565b602060405180926343753b4d60e01b8252818061076b60048201612b76565b03916001600160a01b03165afa90811561089757600091610868575b50801561081a5760045490600182018211610804576107fe917f97721077b22fa56307ba4170b24cdbfe73942066bedd3e641694b154da21b6e1604051604081528060016107ed60408301604090600781526623b937ba34189b60c91b60208201520190565b9442602084015201930390a2612b3a565b86610209565b634e487b7160e01b600052601160045260246000fd5b60045490600182018211610804576107fe917fb6d16a30085036d50eff56f37a53aed7799b984d49b452bc080dcc6742ca36b96001604051920191806108604282612bc2565b0390a2612b3a565b61088a915060203d602011610890575b610882818361289b565b810190612b22565b87610787565b503d610878565b6040513d6000823e3d90fd5b634e487b7160e01b600052602160045260246000fd5b6108cd6001600160a01b0382161515612a9e565b6101fa565b34610134576040366003190112610134576024356001600160a01b03811690819003610134576004356000526002602052604060002090600052602052602060ff604060002054166040519015158152f35b34610134576060366003190112610134576004356001600160401b03811161013457610954903690600401612818565b906024356001600160401b03811161013457610974903690600401612818565b90926044356001600160401b03811161013457610995903690600401612818565b9290913360005260036020526109b260ff604060002054166129f0565b60055460ff8160a01c169081610e5b575b50610e25576109d3600454612a4e565b94856004556040516109e48161287f565b6109ef3684846129aa565b81526109fc36858a6129aa565b6020820152610a0c3687876129aa565b6040820152336060820152426080820152600060a0820152600060c0820152600060e0820152600061010082015260006101208201526000610140820152600061016082015286600052600160205260406000209080518051906001600160401b038211610583578190610a808554612845565b601f8111610dd5575b50602090601f8311600114610d6957600092610d5e575b50508160011b916000199060031b1c19161782555b60208101518051906001600160401b038211610583578190610ada6001860154612845565b601f8111610d0b575b50602090601f8311600114610c9e57600092610c93575b50508160011b916000199060031b1c19161760018301555b60408101518051906001600160401b03821161058357610b356002850154612845565b601f8111610c4c575b50602090601f8311600114610bd857600080516020612cbf83398151915299989795938361049e989694600b94610160946000926104a35750508160011b916000199060031b1c19161760028501556003840160018060a01b036060830151166001600160601b0360a01b8254161790556080810151600485015561044160a08201511515600586019060ff801983541691151516179055565b906002850160005260206000209160005b601f1985168110610c34575093600184600b9461016094600080516020612cbf8339815191529e9d9c9a9861049e9c9a98601f1981161061050b57505050811b0160028501556103f6565b91926020600181928685015181550194019201610be9565b600285016000526020600020601f840160051c810160208510610c8c575b601f830160051c82018110610c80575050610b3e565b60008155600101610c6a565b5080610c6a565b015190508b80610afa565b600186016000908152602081209350601f198516905b818110610cf35750908460019594939210610cda575b505050811b016001830155610b12565b015160001960f88460031b161c191690558b8080610cca565b92936020600181928786015181550195019301610cb4565b909150600185016000526020600020601f840160051c810160208510610d57575b90849392915b601f830160051c82018110610d48575050610ae3565b60008155859450600101610d32565b5080610d2c565b015190508b80610aa0565b9250846000526020600020906000935b601f1984168510610dba576001945083601f19811610610da1575b505050811b018255610ab5565b015160001960f88460031b161c191690558b8080610d94565b81810151835560209485019460019093019290910190610d79565b909150846000526020600020601f840160051c810160208510610e1e575b90849392915b601f830160051c82018110610e0f575050610a89565b60008155859450600101610df9565b5080610df3565b60405162461bcd60e51b815260206004820152600e60248201526d141c9bdbd9881c995c5d5a5c995960921b6044820152606490fd5b6001600160a01b031615159050876109c3565b34610134576020366003190112610134576004356001600160401b038111610134573660238201121561013457610eca6020610eb7610efc9336906024816004013591016129aa565b8160405193828580945193849201612962565b81016000815203019020610edd816128bc565b9060026001820154910154604051938493606085526060850190612985565b91602084015260408301520390f35b34610134576020366003190112610134576020610f29600435612c5a565b6040519015158152f35b34610134576000366003190112610134576006546040516001600160a01b039091168152602090f35b346101345760203660031901126101345760043560005260016020526040600020610ffd610f89826128bc565b91610f96600182016128bc565b92610fa3600283016128bc565b9160018060a01b0360038201541692600482015460ff600584015416600684015460078501549160088601549361101960098801549661100b600b600a8b01549a01549a6040519e8f9e8f92610180808552840190612985565b916020818403910152612985565b8c810360408e015290612985565b9860608b015260808a0152151560a089015260c088015260e08701526101008601526101208501526101408401526101608301520390f35b346101345760203660031901126101345760043560ff8116808203610134576002811161109f57600311156108a3576005805460ff60a81b191660a89290921b60ff60a81b16919091179055005b60405162461bcd60e51b815260206004820152600c60248201526b696e76616c6964206d6f646560a01b6044820152606490fd5b34610134576040366003190112610134576110ec612802565b6024358015158103610134576111229160018060a01b0316600052600360205260406000209060ff801983541691151516179055565b005b34610134576000366003190112610134576020600454604051908152f35b34610134576060366003190112610134576001600160401b0360043581811161013457611173903690600401612818565b906024358381116101345761118c903690600401612818565b9290913360005260036020526111a960ff604060002054166129f0565b6040516060810181811087821117610583576040526111c93686866129aa565b81526044356020820152426040820152604051838382376020818581016000815203019020908051968751908111610583576112058354612845565b601f811161134b575b506020601f82116001146112bb5791816040926002947f43a6ff1417f4b1a76d33362796a2aa0deda65bd76c51679e352f2cce92f8fa079a9b6000926112b0575b50508160011b916000199060031b1c19161784555b6020810151600185015501519101558160405192839283378101600081520390209261129d604051928392606084526060840191612a2d565b60443560208301524260408301520390a2005b015190508b8061124f565b8360005260206000209860005b601f19841681106113335750827f43a6ff1417f4b1a76d33362796a2aa0deda65bd76c51679e352f2cce92f8fa07999a60029593600193604096601f1981161061131a575b505050811b018455611264565b015160001960f88460031b161c191690558b808061130d565b828201518b556001909a0199602092830192016112c8565b836000526020600020601f830160051c81019160208410611389575b601f0160051c01905b81811061137d575061120e565b60008155600101611370565b9091508190611367565b34610134576020366003190112610134576001600160a01b036113b4612802565b166001600160601b0360a01b6005541617600555600080f35b3461013457610200366003190112610134576004356001600160401b038111610134576113fe903690600401612818565b906024356001600160401b0381116101345761141e903690600401612818565b91906044356001600160401b0381116101345761143f903690600401612818565b94903660a4116101345736610124116101345736610164116101345736610184116101345733600052600360205261147e60ff604060002054166129f0565b6006546001600160a01b031680611c88575b6005546001600160a01b038116151580611c7b575b611adf575b5080611a03575b506114bd600454612a4e565b948560045560405160208101906114d78161022f84612c0f565b519020946040516114e78161287f565b6114f23686846129aa565b81526114ff3684886129aa565b602082015261150f368a866129aa565b6040820152336060820152426080820152600060a0820152600060c08201528660e08201526101a435610100820152610184356101208201526101c4356101408201526101e43561016082015287600052600160205260406000209080518051906001600160401b03821161058357819061158a8554612845565b601f81116119b3575b50602090601f83116001146119475760009261193c575b50508160011b916000199060031b1c19161782555b60208101518051906001600160401b0382116105835781906115e46001860154612845565b601f81116118e9575b50602090601f83116001146118775760009261186c575b50508160011b916000199060031b1c19161760018301555b60408101518051906001600160401b0382116105835761163f6002850154612845565b601f8111611825575b509160209b9593918b9795938d90601f831160011461177e576116eb96959383600080516020612cbf8339815191529b9c9694600b94610160946000926117735750508160011b916000199060031b1c19161760028501556003840160018060a01b036060830151166001600160601b0360a01b8254161790556080810151600485015561044160a08201511515600586019060ff801983541691151516179055565b0390a36040519081526101a43583820152426040820152817f7748b8dc949a8f076282f45b5950a1109fb290fe8c1b7884f4131f70478e49fc60606101843593a3807fa95c8395c5e6000e8ceac086f54d6d8faa88a7178c07fa98ebe823ae637f591f60606040516101a43581526101c435868201526101e4356040820152a2604051908152f35b0151905038806103de565b999493929190600284016000528e6000209a60005b601f19841681106117f6575092600183600080516020612cbf8339815191529c9d610160946116eb9b9a999897600b97601f198116106117dd57505050811b0160028501556103f6565b015160001960f88460031b161c191690553880806104fb565b929496989a5090929496989a8f600181928685015181550194019201908e9a98969492919b999795939b611793565b600285016000526020600020601f840160051c810160208510611865575b601f830160051c82018110611859575050611648565b60008155600101611843565b5080611843565b015190508c80611604565b9250600185016000526020600020906000935b601f19841685106118ce576001945083601f198116106118b5575b505050811b01600183015561161c565b015160001960f88460031b161c191690558c80806118a5565b8181015183556020948501946001909301929091019061188a565b909150600185016000526020600020601f840160051c810160208510611935575b90849392915b601f830160051c820181106119265750506115ed565b60008155859450600101611910565b508061190a565b015190508c806115aa565b9250846000526020600020906000935b601f1984168510611998576001945083601f1981161061197f575b505050811b0182556115bf565b015160001960f88460031b161c191690558c8080611972565b81810151835560209485019460019093019290910190611957565b909150846000526020600020601f840160051c8101602085106119fc575b90849392915b601f830160051c820181106119ed575050611593565b600081558594506001016119d7565b50806119d1565b6020600091602460405180948193633cb69c8f60e21b83526101843560048401525af190811561089757600091611ac0575b5015611a7b576004546001810181116108045760016101843591017f561b7b14d2f06bfedafe93f2997b3b5b23dd367e7ed5d159837c71fdee0b74eb600080a3866114b1565b60405162461bcd60e51b815260206004820152601a60248201527f4661696c656420746f207265636f7264206e756c6c69666965720000000000006044820152606490fd5b611ad9915060203d60201161089057610882818361289b565b87611a35565b60ff8160a81c1660038110156108a357600203611c3d57602060405180926343753b4d60e01b82528180611b1560048201612b76565b03916001600160a01b03165afa90811561089757600091611c1e575b5015611ba357600454600181018111610804577f97721077b22fa56307ba4170b24cdbfe73942066bedd3e641694b154da21b6e160405160408152806001611b9160408301604090600781526623b937ba34189b60c91b60208201520190565b9442602084015201930390a2876114aa565b60045460018101809111610804577fb6d16a30085036d50eff56f37a53aed7799b984d49b452bc080dcc6742ca36b960405180611be04282612bc2565b0390a260405162461bcd60e51b815260206004820152601360248201527224b73b30b634b21029a720a92590383937b7b360691b6044820152606490fd5b611c37915060203d60201161089057610882818361289b565b88611b31565b60405162461bcd60e51b81526020600482015260166024820152750accae4d2ccd2cae440e8f2e0ca40dad2e6dac2e8c6d60531b6044820152606490fd5b5060ff8160a01c166114a5565b60405163bb6baea760e01b8152610184356004820152602081602481855afa90811561089757600091611d19575b506114905760405162461bcd60e51b815260206004820152603060248201527f4e756c6c696669657220616c7265616479207573656420287265706c6179206160448201526f747461636b2070726576656e7465642960801b6064820152608490fd5b611d32915060203d60201161089057610882818361289b565b88611cb6565b3461013457610100366003190112610134576004356001600160401b03811161013457611d69903690600401612818565b906024356001600160401b03811161013457611d89903690600401612818565b90926044356001600160401b03811161013457611daa903690600401612818565b9290916064356001600160401b03811161013457611dcc903690600401612818565b959095336000526003602052611de960ff604060002054166129f0565b60055460ff8160a01c16612462575b6001600160a01b0381166122b6575b50611e6160a0611e18600454612a4e565b98896004558360405194859260208401376084356020828401015260a4356040828401015260c4356060828401015260e43560808284010152810103608081018452018261289b565b6020815191012060405190611e758261287f565b611e803685856129aa565b8252611e8d36868b6129aa565b6020830152611e9d3688886129aa565b6040830152336060830152426080830152600060a0830152600060c083015260e08201526000610100820152600061012082015260c43561014082015260e43561016082015286600052600160205260406000209080518051906001600160401b038211610583578190611f118554612845565b601f8111612266575b50602090601f83116001146121fa576000926121ef575b50508160011b916000199060031b1c19161782555b60208101518051906001600160401b038211610583578190611f6b6001860154612845565b601f811161219c575b50602090601f831160011461212f57600092612124575b50508160011b916000199060031b1c19161760018301555b60408101518051906001600160401b03821161058357611fc66002850154612845565b601f81116120dd575b50602090601f831160011461206957600080516020612cbf83398151915299989795938361049e989694600b94610160946000926104a35750508160011b916000199060031b1c19161760028501556003840160018060a01b036060830151166001600160601b0360a01b8254161790556080810151600485015561044160a08201511515600586019060ff801983541691151516179055565b906002850160005260206000209160005b601f19851681106120c5575093600184600b9461016094600080516020612cbf8339815191529e9d9c9a9861049e9c9a98601f1981161061050b57505050811b0160028501556103f6565b9192602060018192868501518155019401920161207a565b600285016000526020600020601f840160051c81016020851061211d575b601f830160051c82018110612111575050611fcf565b600081556001016120fb565b50806120fb565b015190508b80611f8b565b600186016000908152602081209350601f198516905b818110612184575090846001959493921061216b575b505050811b016001830155611fa3565b015160001960f88460031b161c191690558b808061215b565b92936020600181928786015181550195019301612145565b909150600185016000526020600020601f840160051c8101602085106121e8575b90849392915b601f830160051c820181106121d9575050611f74565b600081558594506001016121c3565b50806121bd565b015190508b80611f31565b9250846000526020600020906000935b601f198416851061224b576001945083601f19811610612232575b505050811b018255611f46565b015160001960f88460031b161c191690558b8080612225565b8181015183556020948501946001909301929091019061220a565b909150846000526020600020601f840160051c8101602085106122af575b90849392915b601f830160051c820181106122a0575050611f1a565b6000815585945060010161228a565b5080612284565b600360ff8260a81c1610156108a3576122d7600160ff8360a81c1614612add565b60405163625e358160e01b815260a06004820152906020908290818061230160a48201888f612a2d565b60848035602484015260a435604484015260c435606484015260e4359083015203916001600160a01b03165afa90811561089757600091612443575b5080156123a85760045490600182018211610804576123a2917f97721077b22fa56307ba4170b24cdbfe73942066bedd3e641694b154da21b6e1604051604081528060016107ed6040830160409060068152654c656761637960d01b60208201520190565b88611e07565b60045490600182018211610804576123a2917fb6d16a30085036d50eff56f37a53aed7799b984d49b452bc080dcc6742ca36b9604051606081528060016124326124096060840160409060068152654c656761637960d01b60208201520190565b8381036020850152604090600d81526c24b73b30b634b210383937b7b360991b60208201520190565b9442604084015201930390a2612b3a565b61245c915060203d60201161089057610882818361289b565b8961233d565b6124766001600160a01b0382161515612a9e565b611df8565b3461013457602036600319011261013457600435600052600160205260a06040600020610160604051916124ae8361287f565b6124b7816128bc565b83526124c5600182016128bc565b60208401526124d6600282016128bc565b6040840152600180851b0360038201541660608401526004810154608084015260ff600582015416151584840152600681015460c08401526007810154928360e082015260088201548061010083015260098301549182610120820152600b600a8501549485610140840152015494859101526040519485526020850152604084015260608301526080820152f35b346101345760203660031901126101345761257e612802565b33600052600360205261259860ff604060002054166129f0565b600680546001600160a01b0319166001600160a01b0392909216919091179055005b34610134576000366003190112610134576005546040516001600160a01b039091168152602090f35b346101345760208060031936011261013457600435336000526003825261261160ff604060002054166129f0565b806000526001825260046040600020015415612706578060005260028252604060002033600052825260ff604060002054166126ce57806000526002825260406000203360005282526040600020600160ff198254161790558060005260018252600660406000200180549060018201809211610804575580600052600182526006604060002001549160405192835242908301527f9f77029216d2715228bae995e8bc0c2cf90bc82a87b1f0c569ef8ef50a465dd160403393a3005b60405162461bcd60e51b815260048101839052601060248201526f105b1c9958591e48185c1c1c9bdd995960821b6044820152606490fd5b60405162461bcd60e51b815260048101839052601160248201527014995c5d595cdd081b9bdd08199bdd5b99607a1b6044820152606490fd5b34610134576020366003190112610134576001600160a01b03612760612802565b166000526003602052602060ff604060002054166040519015158152f35b346101345760003660031901126101345760ff60055460a81c1660405160038210156108a3576020918152f35b3461013457602036600319011261013457600435801515809103610134573360005260036020526127e360ff604060002054166129f0565b6005805460ff60a01b191660a09290921b60ff60a01b16919091179055005b600435906001600160a01b038216820361013457565b9181601f84011215610134578235916001600160401b038311610134576020838186019501011161013457565b90600182811c92168015612875575b602083101461285f57565b634e487b7160e01b600052602260045260246000fd5b91607f1691612854565b61018081019081106001600160401b0382111761058357604052565b90601f801991011681019081106001600160401b0382111761058357604052565b90604051918260008254926128d084612845565b90818452600194858116908160001461293f57506001146128fc575b50506128fa9250038361289b565b565b9093915060005260209081600020936000915b8183106129275750506128fa935082010138806128ec565b8554888401850152948501948794509183019161290f565b9150506128fa94506020925060ff191682840152151560051b82010138806128ec565b60005b8381106129755750506000910152565b8181015183820152602001612965565b9060209161299e81518092818552858086019101612962565b601f01601f1916010190565b9291926001600160401b03821161058357604051916129d3601f8201601f19166020018461289b565b829481845281830111610134578281602093846000960137010152565b156129f757565b60405162461bcd60e51b815260206004820152600e60248201526d139bdd08185d5d1a1bdc9a5e995960921b6044820152606490fd5b908060209392818452848401376000828201840152601f01601f1916010190565b60001981146108045760010190565b929093612a7c606095612a8a9499989799608087526080870191612a2d565b918483036020860152612a2d565b6001600160a01b0390951660408201520152565b15612aa557565b60405162461bcd60e51b815260206004820152601060248201526f15995c9a599a595c881b9bdd081cd95d60821b6044820152606490fd5b15612ae457565b60405162461bcd60e51b81526020600482015260166024820152750eccae4d2ccd2cae440e8f2e0ca40dad2e6dac2e8c6d60531b6044820152606490fd5b90816020910312610134575180151581036101345790565b15612b4157565b60405162461bcd60e51b815260206004820152600d60248201526c24b73b30b634b210383937b7b360991b6044820152606490fd5b906101208201916040806064833760a460008383015b60028210612bad57505050610100826101649261012460c060209601370137565b83808281866001953701930191019091612b8c565b60608082526007908201526623b937ba34189b60c91b608082015260a060208201819052600d908201526c24b73b30b634b210383937b7b360991b60c08201529190604060e08401930152565b6040806064833760a460008383015b60028210612c4557505050906101209161012460c083013760206101646101008301370190565b83808281866001953701930191019091612c1e565b6006546001600160a01b0316908115612cb75760209060246040518094819363bb6baea760e01b835260048301525afa90811561089757600091612c9c575090565b612cb4915060203d811161089057610882818361289b565b90565b505060019056fe21f75d5def38265cc80a77515b127d27c9121b1ce435e4b3451c1748761f345da26469706673582212207a0d663c2264bab05a28e6dd702bdaec92de79b1fde9d402a84e6aecf416c8c564736f6c63430008140033","opcodes":"PUSH1 0x80 CALLVALUE PUSH3 0xD2 JUMPI PUSH1 0x1F PUSH3 0x2E17 CODESIZE DUP2 SWAP1 SUB SWAP2 DUP3 ADD PUSH1 0x1F NOT AND DUP4 ADD SWAP2 PUSH1 0x1 PUSH1 0x1 PUSH1 0x40 SHL SUB DUP4 GT DUP5 DUP5 LT OR PUSH3 0xD7 JUMPI DUP1 DUP5 SWAP3 PUSH1 0x40 SWAP5 DUP6 MSTORE DUP4 CODECOPY DUP2 ADD SUB SLT PUSH3 0xD2 JUMPI PUSH3 0x5A PUSH1 0x20 PUSH3 0x52 DUP4 PUSH3 0xED JUMP JUMPDEST SWAP3 ADD PUSH3 0xED JUMP JUMPDEST PUSH1 0x5 DUP1 SLOAD PUSH1 0x6 DUP1 SLOAD PUSH1 0x1 PUSH1 0x1 PUSH1 0xA0 SHL SUB NOT AND PUSH1 0x1 PUSH1 0x1 PUSH1 0xA0 SHL SUB SWAP5 DUP6 AND OR SWAP1 SSTORE PUSH1 0x1 PUSH2 0xFF01 PUSH1 0xA0 SHL SUB NOT AND SWAP2 SWAP1 SWAP3 AND SWAP1 DUP2 OR PUSH1 0x1 PUSH1 0xA9 SHL OR PUSH1 0xFF PUSH1 0xA0 SHL NOT AND SWAP1 ISZERO ISZERO PUSH1 0xA0 SHL PUSH1 0xFF PUSH1 0xA0 SHL AND OR SWAP1 SSTORE CALLER PUSH1 0x0 SWAP1 DUP2 MSTORE PUSH1 0x3 PUSH1 0x20 MSTORE PUSH1 0x40 SWAP1 DUP2 SWAP1 KECCAK256 DUP1 SLOAD PUSH1 0xFF NOT AND PUSH1 0x1 OR SWAP1 SSTORE MLOAD PUSH2 0x2D14 SWAP1 DUP2 PUSH3 0x103 DUP3 CODECOPY RETURN JUMPDEST PUSH1 0x0 DUP1 REVERT JUMPDEST PUSH4 0x4E487B71 PUSH1 0xE0 SHL PUSH1 0x0 MSTORE PUSH1 0x41 PUSH1 0x4 MSTORE PUSH1 0x24 PUSH1 0x0 REVERT JUMPDEST MLOAD SWAP1 PUSH1 0x1 PUSH1 0x1 PUSH1 0xA0 SHL SUB DUP3 AND DUP3 SUB PUSH3 0xD2 JUMPI JUMP INVALID PUSH1 0x80 PUSH1 0x40 MSTORE PUSH1 0x4 CALLDATASIZE LT ISZERO PUSH2 0x12 JUMPI PUSH1 0x0 DUP1 REVERT JUMPDEST PUSH1 0x0 CALLDATALOAD PUSH1 0xE0 SHR DUP1 PUSH4 0x11E5B5A9 EQ PUSH2 0x27AB JUMPI DUP1 PUSH4 0x170227F7 EQ PUSH2 0x277E JUMPI DUP1 PUSH4 0x1828983A EQ PUSH2 0x273F JUMPI DUP1 PUSH4 0x2544A470 EQ PUSH2 0x25E3 JUMPI DUP1 PUSH4 0x2B7AC3F3 EQ PUSH2 0x25BA JUMPI DUP1 PUSH4 0x2F9E3B29 EQ PUSH2 0x2565 JUMPI DUP1 PUSH4 0x3B1CDE37 EQ PUSH2 0x247B JUMPI DUP1 PUSH4 0x43E23864 EQ PUSH2 0x1D38 JUMPI DUP1 PUSH4 0x477F17BC EQ PUSH2 0x13CD JUMPI DUP1 PUSH4 0x5437988D EQ PUSH2 0x1393 JUMPI DUP1 PUSH4 0x65ADE204 EQ PUSH2 0x1142 JUMPI DUP1 PUSH4 0x6A84A985 EQ PUSH2 0x1124 JUMPI DUP1 PUSH4 0x711BF9B2 EQ PUSH2 0x10D3 JUMPI DUP1 PUSH4 0x8B2D2390 EQ PUSH2 0x1051 JUMPI DUP1 PUSH4 0xAD4BAE23 EQ PUSH2 0xF5C JUMPI DUP1 PUSH4 0xB870676C EQ PUSH2 0xF33 JUMPI DUP1 PUSH4 0xBB6BAEA7 EQ PUSH2 0xF0B JUMPI DUP1 PUSH4 0xC9F020AC EQ PUSH2 0xE6E JUMPI DUP1 PUSH4 0xD0173CF5 EQ PUSH2 0x924 JUMPI DUP1 PUSH4 0xE73E07D6 EQ PUSH2 0x8D2 JUMPI DUP1 PUSH4 0xED1D0FDC EQ PUSH2 0x139 JUMPI PUSH4 0xFA74B97C EQ PUSH2 0x10E JUMPI PUSH1 0x0 DUP1 REVERT JUMPDEST CALLVALUE PUSH2 0x134 JUMPI PUSH1 0x0 CALLDATASIZE PUSH1 0x3 NOT ADD SLT PUSH2 0x134 JUMPI PUSH1 0x20 PUSH1 0xFF PUSH1 0x5 SLOAD PUSH1 0xA0 SHR AND PUSH1 0x40 MLOAD SWAP1 ISZERO ISZERO DUP2 MSTORE RETURN JUMPDEST PUSH1 0x0 DUP1 REVERT JUMPDEST CALLVALUE PUSH2 0x134 JUMPI PUSH2 0x180 CALLDATASIZE PUSH1 0x3 NOT ADD SLT PUSH2 0x134 JUMPI PUSH1 0x4 CALLDATALOAD PUSH1 0x1 PUSH1 0x1 PUSH1 0x40 SHL SUB DUP2 GT PUSH2 0x134 JUMPI PUSH2 0x16A SWAP1 CALLDATASIZE SWAP1 PUSH1 0x4 ADD PUSH2 0x2818 JUMP JUMPDEST SWAP1 PUSH1 0x24 CALLDATALOAD PUSH1 0x1 PUSH1 0x1 PUSH1 0x40 SHL SUB DUP2 GT PUSH2 0x134 JUMPI PUSH2 0x18A SWAP1 CALLDATASIZE SWAP1 PUSH1 0x4 ADD PUSH2 0x2818 JUMP JUMPDEST SWAP1 SWAP3 PUSH1 0x44 CALLDATALOAD PUSH1 0x1 PUSH1 0x1 PUSH1 0x40 SHL SUB DUP2 GT PUSH2 0x134 JUMPI PUSH2 0x1AB SWAP1 CALLDATASIZE SWAP1 PUSH1 0x4 ADD PUSH2 0x2818 JUMP JUMPDEST SWAP3 SWAP1 SWAP2 CALLDATASIZE PUSH1 0xA4 GT PUSH2 0x134 JUMPI CALLDATASIZE PUSH2 0x124 GT PUSH2 0x134 JUMPI CALLDATASIZE PUSH2 0x164 GT PUSH2 0x134 JUMPI CALLDATASIZE PUSH2 0x184 GT PUSH2 0x134 JUMPI CALLER PUSH1 0x0 MSTORE PUSH1 0x3 PUSH1 0x20 MSTORE PUSH2 0x1EB PUSH1 0xFF PUSH1 0x40 PUSH1 0x0 KECCAK256 SLOAD AND PUSH2 0x29F0 JUMP JUMPDEST PUSH1 0x5 SLOAD PUSH1 0xFF DUP2 PUSH1 0xA0 SHR AND PUSH2 0x8B9 JUMPI JUMPDEST PUSH1 0x1 PUSH1 0x1 PUSH1 0xA0 SHL SUB DUP2 AND PUSH2 0x72B JUMPI JUMPDEST POP PUSH2 0x215 PUSH1 0x4 SLOAD PUSH2 0x2A4E JUMP JUMPDEST SWAP5 DUP6 PUSH1 0x4 SSTORE PUSH1 0x40 MLOAD PUSH1 0x20 DUP2 ADD SWAP1 PUSH2 0x23D DUP2 PUSH2 0x22F DUP5 PUSH2 0x2C0F JUMP JUMPDEST SUB PUSH1 0x1F NOT DUP2 ADD DUP4 MSTORE DUP3 PUSH2 0x289B JUMP JUMPDEST MLOAD SWAP1 KECCAK256 PUSH1 0x40 MLOAD SWAP1 PUSH2 0x24D DUP3 PUSH2 0x287F JUMP JUMPDEST PUSH2 0x258 CALLDATASIZE DUP6 DUP6 PUSH2 0x29AA JUMP JUMPDEST DUP3 MSTORE PUSH2 0x265 CALLDATASIZE DUP7 DUP12 PUSH2 0x29AA JUMP JUMPDEST PUSH1 0x20 DUP4 ADD MSTORE PUSH2 0x275 CALLDATASIZE DUP9 DUP9 PUSH2 0x29AA JUMP JUMPDEST PUSH1 0x40 DUP4 ADD MSTORE CALLER PUSH1 0x60 DUP4 ADD MSTORE TIMESTAMP PUSH1 0x80 DUP4 ADD MSTORE PUSH1 0x0 PUSH1 0xA0 DUP4 ADD MSTORE PUSH1 0x0 PUSH1 0xC0 DUP4 ADD MSTORE PUSH1 0xE0 DUP3 ADD MSTORE PUSH1 0x0 PUSH2 0x100 DUP3 ADD MSTORE PUSH1 0x0 PUSH2 0x120 DUP3 ADD MSTORE PUSH1 0x0 PUSH2 0x140 DUP3 ADD MSTORE PUSH1 0x0 PUSH2 0x160 DUP3 ADD MSTORE DUP7 PUSH1 0x0 MSTORE PUSH1 0x1 PUSH1 0x20 MSTORE PUSH1 0x40 PUSH1 0x0 KECCAK256 SWAP1 DUP1 MLOAD DUP1 MLOAD SWAP1 PUSH1 0x1 PUSH1 0x1 PUSH1 0x40 SHL SUB DUP3 GT PUSH2 0x583 JUMPI DUP2 SWAP1 PUSH2 0x2E7 DUP6 SLOAD PUSH2 0x2845 JUMP JUMPDEST PUSH1 0x1F DUP2 GT PUSH2 0x6DB JUMPI JUMPDEST POP PUSH1 0x20 SWAP1 PUSH1 0x1F DUP4 GT PUSH1 0x1 EQ PUSH2 0x66F JUMPI PUSH1 0x0 SWAP3 PUSH2 0x664 JUMPI JUMPDEST POP POP DUP2 PUSH1 0x1 SHL SWAP2 PUSH1 0x0 NOT SWAP1 PUSH1 0x3 SHL SHR NOT AND OR DUP3 SSTORE JUMPDEST PUSH1 0x20 DUP2 ADD MLOAD DUP1 MLOAD SWAP1 PUSH1 0x1 PUSH1 0x1 PUSH1 0x40 SHL SUB DUP3 GT PUSH2 0x583 JUMPI DUP2 SWAP1 PUSH2 0x341 PUSH1 0x1 DUP7 ADD SLOAD PUSH2 0x2845 JUMP JUMPDEST PUSH1 0x1F DUP2 GT PUSH2 0x611 JUMPI JUMPDEST POP PUSH1 0x20 SWAP1 PUSH1 0x1F DUP4 GT PUSH1 0x1 EQ PUSH2 0x5A4 JUMPI PUSH1 0x0 SWAP3 PUSH2 0x599 JUMPI JUMPDEST POP POP DUP2 PUSH1 0x1 SHL SWAP2 PUSH1 0x0 NOT SWAP1 PUSH1 0x3 SHL SHR NOT AND OR PUSH1 0x1 DUP4 ADD SSTORE JUMPDEST PUSH1 0x40 DUP2 ADD MLOAD DUP1 MLOAD SWAP1 PUSH1 0x1 PUSH1 0x1 PUSH1 0x40 SHL SUB DUP3 GT PUSH2 0x583 JUMPI PUSH2 0x39C PUSH1 0x2 DUP6 ADD SLOAD PUSH2 0x2845 JUMP JUMPDEST PUSH1 0x1F DUP2 GT PUSH2 0x53C JUMPI JUMPDEST POP PUSH1 0x20 SWAP1 PUSH1 0x1F DUP4 GT PUSH1 0x1 EQ PUSH2 0x4AE JUMPI PUSH1 0x0 DUP1 MLOAD PUSH1 0x20 PUSH2 0x2CBF DUP4 CODECOPY DUP2 MLOAD SWAP2 MSTORE SWAP10 SWAP9 SWAP8 SWAP6 SWAP4 DUP4 PUSH2 0x49E SWAP9 SWAP7 SWAP5 PUSH1 0xB SWAP5 PUSH2 0x160 SWAP5 PUSH1 0x0 SWAP3 PUSH2 0x4A3 JUMPI JUMPDEST POP POP DUP2 PUSH1 0x1 SHL SWAP2 PUSH1 0x0 NOT SWAP1 PUSH1 0x3 SHL SHR NOT AND OR PUSH1 0x2 DUP6 ADD SSTORE JUMPDEST PUSH1 0x3 DUP5 ADD PUSH1 0x1 DUP1 PUSH1 0xA0 SHL SUB PUSH1 0x60 DUP4 ADD MLOAD AND PUSH1 0x1 PUSH1 0x1 PUSH1 0x60 SHL SUB PUSH1 0xA0 SHL DUP3 SLOAD AND OR SWAP1 SSTORE PUSH1 0x80 DUP2 ADD MLOAD PUSH1 0x4 DUP6 ADD SSTORE PUSH2 0x441 PUSH1 0xA0 DUP3 ADD MLOAD ISZERO ISZERO PUSH1 0x5 DUP7 ADD SWAP1 PUSH1 0xFF DUP1 NOT DUP4 SLOAD AND SWAP2 ISZERO ISZERO AND OR SWAP1 SSTORE JUMP JUMPDEST PUSH1 0xC0 DUP2 ADD MLOAD PUSH1 0x6 DUP6 ADD SSTORE PUSH1 0xE0 DUP2 ADD MLOAD PUSH1 0x7 DUP6 ADD SSTORE PUSH2 0x100 DUP2 ADD MLOAD PUSH1 0x8 DUP6 ADD SSTORE PUSH2 0x120 DUP2 ADD MLOAD PUSH1 0x9 DUP6 ADD SSTORE PUSH2 0x140 DUP2 ADD MLOAD PUSH1 0xA DUP6 ADD SSTORE ADD MLOAD SWAP2 ADD SSTORE DUP2 PUSH1 0x40 MLOAD SWAP3 DUP4 SWAP3 DUP4 CALLDATACOPY DUP2 ADD PUSH1 0x0 DUP2 MSTORE SUB SWAP1 KECCAK256 SWAP7 PUSH1 0x40 MLOAD SWAP5 DUP6 SWAP5 TIMESTAMP SWAP4 CALLER SWAP4 DUP8 PUSH2 0x2A5D JUMP JUMPDEST SUB SWAP1 LOG3 STOP JUMPDEST ADD MLOAD SWAP1 POP DUP16 DUP1 PUSH2 0x3DE JUMP JUMPDEST SWAP1 PUSH1 0x2 DUP6 ADD PUSH1 0x0 MSTORE PUSH1 0x20 PUSH1 0x0 KECCAK256 SWAP2 PUSH1 0x0 JUMPDEST PUSH1 0x1F NOT DUP6 AND DUP2 LT PUSH2 0x524 JUMPI POP SWAP4 PUSH1 0x1 DUP5 PUSH1 0xB SWAP5 PUSH2 0x160 SWAP5 PUSH1 0x0 DUP1 MLOAD PUSH1 0x20 PUSH2 0x2CBF DUP4 CODECOPY DUP2 MLOAD SWAP2 MSTORE SWAP15 SWAP14 SWAP13 SWAP11 SWAP9 PUSH2 0x49E SWAP13 SWAP11 SWAP9 PUSH1 0x1F NOT DUP2 AND LT PUSH2 0x50B JUMPI JUMPDEST POP POP POP DUP2 SHL ADD PUSH1 0x2 DUP6 ADD SSTORE PUSH2 0x3F6 JUMP JUMPDEST ADD MLOAD PUSH1 0x0 NOT PUSH1 0xF8 DUP5 PUSH1 0x3 SHL AND SHR NOT AND SWAP1 SSTORE DUP16 DUP1 DUP1 PUSH2 0x4FB JUMP JUMPDEST SWAP2 SWAP3 PUSH1 0x20 PUSH1 0x1 DUP2 SWAP3 DUP7 DUP6 ADD MLOAD DUP2 SSTORE ADD SWAP5 ADD SWAP3 ADD PUSH2 0x4BF JUMP JUMPDEST PUSH1 0x2 DUP6 ADD PUSH1 0x0 MSTORE PUSH1 0x20 PUSH1 0x0 KECCAK256 PUSH1 0x1F DUP5 ADD PUSH1 0x5 SHR DUP2 ADD PUSH1 0x20 DUP6 LT PUSH2 0x57C JUMPI JUMPDEST PUSH1 0x1F DUP4 ADD PUSH1 0x5 SHR DUP3 ADD DUP2 LT PUSH2 0x570 JUMPI POP POP PUSH2 0x3A5 JUMP JUMPDEST PUSH1 0x0 DUP2 SSTORE PUSH1 0x1 ADD PUSH2 0x55A JUMP JUMPDEST POP DUP1 PUSH2 0x55A JUMP JUMPDEST PUSH4 0x4E487B71 PUSH1 0xE0 SHL PUSH1 0x0 MSTORE PUSH1 0x41 PUSH1 0x4 MSTORE PUSH1 0x24 PUSH1 0x0 REVERT JUMPDEST ADD MLOAD SWAP1 POP DUP12 DUP1 PUSH2 0x361 JUMP JUMPDEST PUSH1 0x1 DUP7 ADD PUSH1 0x0 SWAP1 DUP2 MSTORE PUSH1 0x20 DUP2 KECCAK256 SWAP4 POP PUSH1 0x1F NOT DUP6 AND SWAP1 JUMPDEST DUP2 DUP2 LT PUSH2 0x5F9 JUMPI POP SWAP1 DUP5 PUSH1 0x1 SWAP6 SWAP5 SWAP4 SWAP3 LT PUSH2 0x5E0 JUMPI JUMPDEST POP POP POP DUP2 SHL ADD PUSH1 0x1 DUP4 ADD SSTORE PUSH2 0x379 JUMP JUMPDEST ADD MLOAD PUSH1 0x0 NOT PUSH1 0xF8 DUP5 PUSH1 0x3 SHL AND SHR NOT AND SWAP1 SSTORE DUP12 DUP1 DUP1 PUSH2 0x5D0 JUMP JUMPDEST SWAP3 SWAP4 PUSH1 0x20 PUSH1 0x1 DUP2 SWAP3 DUP8 DUP7 ADD MLOAD DUP2 SSTORE ADD SWAP6 ADD SWAP4 ADD PUSH2 0x5BA JUMP JUMPDEST SWAP1 SWAP2 POP PUSH1 0x1 DUP6 ADD PUSH1 0x0 MSTORE PUSH1 0x20 PUSH1 0x0 KECCAK256 PUSH1 0x1F DUP5 ADD PUSH1 0x5 SHR DUP2 ADD PUSH1 0x20 DUP6 LT PUSH2 0x65D JUMPI JUMPDEST SWAP1 DUP5 SWAP4 SWAP3 SWAP2 JUMPDEST PUSH1 0x1F DUP4 ADD PUSH1 0x5 SHR DUP3 ADD DUP2 LT PUSH2 0x64E JUMPI POP POP PUSH2 0x34A JUMP JUMPDEST PUSH1 0x0 DUP2 SSTORE DUP6 SWAP5 POP PUSH1 0x1 ADD PUSH2 0x638 JUMP JUMPDEST POP DUP1 PUSH2 0x632 JUMP JUMPDEST ADD MLOAD SWAP1 POP DUP12 DUP1 PUSH2 0x307 JUMP JUMPDEST SWAP3 POP DUP5 PUSH1 0x0 MSTORE PUSH1 0x20 PUSH1 0x0 KECCAK256 SWAP1 PUSH1 0x0 SWAP4 JUMPDEST PUSH1 0x1F NOT DUP5 AND DUP6 LT PUSH2 0x6C0 JUMPI PUSH1 0x1 SWAP5 POP DUP4 PUSH1 0x1F NOT DUP2 AND LT PUSH2 0x6A7 JUMPI JUMPDEST POP POP POP DUP2 SHL ADD DUP3 SSTORE PUSH2 0x31C JUMP JUMPDEST ADD MLOAD PUSH1 0x0 NOT PUSH1 0xF8 DUP5 PUSH1 0x3 SHL AND SHR NOT AND SWAP1 SSTORE DUP12 DUP1 DUP1 PUSH2 0x69A JUMP JUMPDEST DUP2 DUP2 ADD MLOAD DUP4 SSTORE PUSH1 0x20 SWAP5 DUP6 ADD SWAP5 PUSH1 0x1 SWAP1 SWAP4 ADD SWAP3 SWAP1 SWAP2 ADD SWAP1 PUSH2 0x67F JUMP JUMPDEST SWAP1 SWAP2 POP DUP5 PUSH1 0x0 MSTORE PUSH1 0x20 PUSH1 0x0 KECCAK256 PUSH1 0x1F DUP5 ADD PUSH1 0x5 SHR DUP2 ADD PUSH1 0x20 DUP6 LT PUSH2 0x724 JUMPI JUMPDEST SWAP1 DUP5 SWAP4 SWAP3 SWAP2 JUMPDEST PUSH1 0x1F DUP4 ADD PUSH1 0x5 SHR DUP3 ADD DUP2 LT PUSH2 0x715 JUMPI POP POP PUSH2 0x2F0 JUMP JUMPDEST PUSH1 0x0 DUP2 SSTORE DUP6 SWAP5 POP PUSH1 0x1 ADD PUSH2 0x6FF JUMP JUMPDEST POP DUP1 PUSH2 0x6F9 JUMP JUMPDEST PUSH1 0x3 PUSH1 0xFF DUP3 PUSH1 0xA8 SHR AND LT ISZERO PUSH2 0x8A3 JUMPI PUSH2 0x74C PUSH1 0x2 PUSH1 0xFF DUP4 PUSH1 0xA8 SHR AND EQ PUSH2 0x2ADD JUMP JUMPDEST PUSH1 0x20 PUSH1 0x40 MLOAD DUP1 SWAP3 PUSH4 0x43753B4D PUSH1 0xE0 SHL DUP3 MSTORE DUP2 DUP1 PUSH2 0x76B PUSH1 0x4 DUP3 ADD PUSH2 0x2B76 JUMP JUMPDEST SUB SWAP2 PUSH1 0x1 PUSH1 0x1 PUSH1 0xA0 SHL SUB AND GAS STATICCALL SWAP1 DUP2 ISZERO PUSH2 0x897 JUMPI PUSH1 0x0 SWAP2 PUSH2 0x868 JUMPI JUMPDEST POP DUP1 ISZERO PUSH2 0x81A JUMPI PUSH1 0x4 SLOAD SWAP1 PUSH1 0x1 DUP3 ADD DUP3 GT PUSH2 0x804 JUMPI PUSH2 0x7FE SWAP2 PUSH32 0x97721077B22FA56307BA4170B24CDBFE73942066BEDD3E641694B154DA21B6E1 PUSH1 0x40 MLOAD PUSH1 0x40 DUP2 MSTORE DUP1 PUSH1 0x1 PUSH2 0x7ED PUSH1 0x40 DUP4 ADD PUSH1 0x40 SWAP1 PUSH1 0x7 DUP2 MSTORE PUSH7 0x23B937BA34189B PUSH1 0xC9 SHL PUSH1 0x20 DUP3 ADD MSTORE ADD SWAP1 JUMP JUMPDEST SWAP5 TIMESTAMP PUSH1 0x20 DUP5 ADD MSTORE ADD SWAP4 SUB SWAP1 LOG2 PUSH2 0x2B3A JUMP JUMPDEST DUP7 PUSH2 0x209 JUMP JUMPDEST PUSH4 0x4E487B71 PUSH1 0xE0 SHL PUSH1 0x0 MSTORE PUSH1 0x11 PUSH1 0x4 MSTORE PUSH1 0x24 PUSH1 0x0 REVERT JUMPDEST PUSH1 0x4 SLOAD SWAP1 PUSH1 0x1 DUP3 ADD DUP3 GT PUSH2 0x804 JUMPI PUSH2 0x7FE SWAP2 PUSH32 0xB6D16A30085036D50EFF56F37A53AED7799B984D49B452BC080DCC6742CA36B9 PUSH1 0x1 PUSH1 0x40 MLOAD SWAP3 ADD SWAP2 DUP1 PUSH2 0x860 TIMESTAMP DUP3 PUSH2 0x2BC2 JUMP JUMPDEST SUB SWAP1 LOG2 PUSH2 0x2B3A JUMP JUMPDEST PUSH2 0x88A SWAP2 POP PUSH1 0x20 RETURNDATASIZE PUSH1 0x20 GT PUSH2 0x890 JUMPI JUMPDEST PUSH2 0x882 DUP2 DUP4 PUSH2 0x289B JUMP JUMPDEST DUP2 ADD SWAP1 PUSH2 0x2B22 JUMP JUMPDEST DUP8 PUSH2 0x787 JUMP JUMPDEST POP RETURNDATASIZE PUSH2 0x878 JUMP JUMPDEST PUSH1 0x40 MLOAD RETURNDATASIZE PUSH1 0x0 DUP3 RETURNDATACOPY RETURNDATASIZE SWAP1 REVERT JUMPDEST PUSH4 0x4E487B71 PUSH1 0xE0 SHL PUSH1 0x0 MSTORE PUSH1 0x21 PUSH1 0x4 MSTORE PUSH1 0x24 PUSH1 0x0 REVERT JUMPDEST PUSH2 0x8CD PUSH1 0x1 PUSH1 0x1 PUSH1 0xA0 SHL SUB DUP3 AND ISZERO ISZERO PUSH2 0x2A9E JUMP JUMPDEST PUSH2 0x1FA JUMP JUMPDEST CALLVALUE PUSH2 0x134 JUMPI PUSH1 0x40 CALLDATASIZE PUSH1 0x3 NOT ADD SLT PUSH2 0x134 JUMPI PUSH1 0x24 CALLDATALOAD PUSH1 0x1 PUSH1 0x1 PUSH1 0xA0 SHL SUB DUP2 AND SWAP1 DUP2 SWAP1 SUB PUSH2 0x134 JUMPI PUSH1 0x4 CALLDATALOAD PUSH1 0x0 MSTORE PUSH1 0x2 PUSH1 0x20 MSTORE PUSH1 0x40 PUSH1 0x0 KECCAK256 SWAP1 PUSH1 0x0 MSTORE PUSH1 0x20 MSTORE PUSH1 0x20 PUSH1 0xFF PUSH1 0x40 PUSH1 0x0 KECCAK256 SLOAD AND PUSH1 0x40 MLOAD SWAP1 ISZERO ISZERO DUP2 MSTORE RETURN JUMPDEST CALLVALUE PUSH2 0x134 JUMPI PUSH1 0x60 CALLDATASIZE PUSH1 0x3 NOT ADD SLT PUSH2 0x134 JUMPI PUSH1 0x4 CALLDATALOAD PUSH1 0x1 PUSH1 0x1 PUSH1 0x40 SHL SUB DUP2 GT PUSH2 0x134 JUMPI PUSH2 0x954 SWAP1 CALLDATASIZE SWAP1 PUSH1 0x4 ADD PUSH2 0x2818 JUMP JUMPDEST SWAP1 PUSH1 0x24 CALLDATALOAD PUSH1 0x1 PUSH1 0x1 PUSH1 0x40 SHL SUB DUP2 GT PUSH2 0x134 JUMPI PUSH2 0x974 SWAP1 CALLDATASIZE SWAP1 PUSH1 0x4 ADD PUSH2 0x2818 JUMP JUMPDEST SWAP1 SWAP3 PUSH1 0x44 CALLDATALOAD PUSH1 0x1 PUSH1 0x1 PUSH1 0x40 SHL SUB DUP2 GT PUSH2 0x134 JUMPI PUSH2 0x995 SWAP1 CALLDATASIZE SWAP1 PUSH1 0x4 ADD PUSH2 0x2818 JUMP JUMPDEST SWAP3 SWAP1 SWAP2 CALLER PUSH1 0x0 MSTORE PUSH1 0x3 PUSH1 0x20 MSTORE PUSH2 0x9B2 PUSH1 0xFF PUSH1 0x40 PUSH1 0x0 KECCAK256 SLOAD AND PUSH2 0x29F0 JUMP JUMPDEST PUSH1 0x5 SLOAD PUSH1 0xFF DUP2 PUSH1 0xA0 SHR AND SWAP1 DUP2 PUSH2 0xE5B JUMPI JUMPDEST POP PUSH2 0xE25 JUMPI PUSH2 0x9D3 PUSH1 0x4 SLOAD PUSH2 0x2A4E JUMP JUMPDEST SWAP5 DUP6 PUSH1 0x4 SSTORE PUSH1 0x40 MLOAD PUSH2 0x9E4 DUP2 PUSH2 0x287F JUMP JUMPDEST PUSH2 0x9EF CALLDATASIZE DUP5 DUP5 PUSH2 0x29AA JUMP JUMPDEST DUP2 MSTORE PUSH2 0x9FC CALLDATASIZE DUP6 DUP11 PUSH2 0x29AA JUMP JUMPDEST PUSH1 0x20 DUP3 ADD MSTORE PUSH2 0xA0C CALLDATASIZE DUP8 DUP8 PUSH2 0x29AA JUMP JUMPDEST PUSH1 0x40 DUP3 ADD MSTORE CALLER PUSH1 0x60 DUP3 ADD MSTORE TIMESTAMP PUSH1 0x80 DUP3 ADD MSTORE PUSH1 0x0 PUSH1 0xA0 DUP3 ADD MSTORE PUSH1 0x0 PUSH1 0xC0 DUP3 ADD MSTORE PUSH1 0x0 PUSH1 0xE0 DUP3 ADD MSTORE PUSH1 0x0 PUSH2 0x100 DUP3 ADD MSTORE PUSH1 0x0 PUSH2 0x120 DUP3 ADD MSTORE PUSH1 0x0 PUSH2 0x140 DUP3 ADD MSTORE PUSH1 0x0 PUSH2 0x160 DUP3 ADD MSTORE DUP7 PUSH1 0x0 MSTORE PUSH1 0x1 PUSH1 0x20 MSTORE PUSH1 0x40 PUSH1 0x0 KECCAK256 SWAP1 DUP1 MLOAD DUP1 MLOAD SWAP1 PUSH1 0x1 PUSH1 0x1 PUSH1 0x40 SHL SUB DUP3 GT PUSH2 0x583 JUMPI DUP2 SWAP1 PUSH2 0xA80 DUP6 SLOAD PUSH2 0x2845 JUMP JUMPDEST PUSH1 0x1F DUP2 GT PUSH2 0xDD5 JUMPI JUMPDEST POP PUSH1 0x20 SWAP1 PUSH1 0x1F DUP4 GT PUSH1 0x1 EQ PUSH2 0xD69 JUMPI PUSH1 0x0 SWAP3 PUSH2 0xD5E JUMPI JUMPDEST POP POP DUP2 PUSH1 0x1 SHL SWAP2 PUSH1 0x0 NOT SWAP1 PUSH1 0x3 SHL SHR NOT AND OR DUP3 SSTORE JUMPDEST PUSH1 0x20 DUP2 ADD MLOAD DUP1 MLOAD SWAP1 PUSH1 0x1 PUSH1 0x1 PUSH1 0x40 SHL SUB DUP3 GT PUSH2 0x583 JUMPI DUP2 SWAP1 PUSH2 0xADA PUSH1 0x1 DUP7 ADD SLOAD PUSH2 0x2845 JUMP JUMPDEST PUSH1 0x1F DUP2 GT PUSH2 0xD0B JUMPI JUMPDEST POP PUSH1 0x20 SWAP1 PUSH1 0x1F DUP4 GT PUSH1 0x1 EQ PUSH2 0xC9E JUMPI PUSH1 0x0 SWAP3 PUSH2 0xC93 JUMPI JUMPDEST POP POP DUP2 PUSH1 0x1 SHL SWAP2 PUSH1 0x0 NOT SWAP1 PUSH1 0x3 SHL SHR NOT AND OR PUSH1 0x1 DUP4 ADD SSTORE JUMPDEST PUSH1 0x40 DUP2 ADD MLOAD DUP1 MLOAD SWAP1 PUSH1 0x1 PUSH1 0x1 PUSH1 0x40 SHL SUB DUP3 GT PUSH2 0x583 JUMPI PUSH2 0xB35 PUSH1 0x2 DUP6 ADD SLOAD PUSH2 0x2845 JUMP JUMPDEST PUSH1 0x1F DUP2 GT PUSH2 0xC4C JUMPI JUMPDEST POP PUSH1 0x20 SWAP1 PUSH1 0x1F DUP4 GT PUSH1 0x1 EQ PUSH2 0xBD8 JUMPI PUSH1 0x0 DUP1 MLOAD PUSH1 0x20 PUSH2 0x2CBF DUP4 CODECOPY DUP2 MLOAD SWAP2 MSTORE SWAP10 SWAP9 SWAP8 SWAP6 SWAP4 DUP4 PUSH2 0x49E SWAP9 SWAP7 SWAP5 PUSH1 0xB SWAP5 PUSH2 0x160 SWAP5 PUSH1 0x0 SWAP3 PUSH2 0x4A3 JUMPI POP POP DUP2 PUSH1 0x1 SHL SWAP2 PUSH1 0x0 NOT SWAP1 PUSH1 0x3 SHL SHR NOT AND OR PUSH1 0x2 DUP6 ADD SSTORE PUSH1 0x3 DUP5 ADD PUSH1 0x1 DUP1 PUSH1 0xA0 SHL SUB PUSH1 0x60 DUP4 ADD MLOAD AND PUSH1 0x1 PUSH1 0x1 PUSH1 0x60 SHL SUB PUSH1 0xA0 SHL DUP3 SLOAD AND OR SWAP1 SSTORE PUSH1 0x80 DUP2 ADD MLOAD PUSH1 0x4 DUP6 ADD SSTORE PUSH2 0x441 PUSH1 0xA0 DUP3 ADD MLOAD ISZERO ISZERO PUSH1 0x5 DUP7 ADD SWAP1 PUSH1 0xFF DUP1 NOT DUP4 SLOAD AND SWAP2 ISZERO ISZERO AND OR SWAP1 SSTORE JUMP JUMPDEST SWAP1 PUSH1 0x2 DUP6 ADD PUSH1 0x0 MSTORE PUSH1 0x20 PUSH1 0x0 KECCAK256 SWAP2 PUSH1 0x0 JUMPDEST PUSH1 0x1F NOT DUP6 AND DUP2 LT PUSH2 0xC34 JUMPI POP SWAP4 PUSH1 0x1 DUP5 PUSH1 0xB SWAP5 PUSH2 0x160 SWAP5 PUSH1 0x0 DUP1 MLOAD PUSH1 0x20 PUSH2 0x2CBF DUP4 CODECOPY DUP2 MLOAD SWAP2 MSTORE SWAP15 SWAP14 SWAP13 SWAP11 SWAP9 PUSH2 0x49E SWAP13 SWAP11 SWAP9 PUSH1 0x1F NOT DUP2 AND LT PUSH2 0x50B JUMPI POP POP POP DUP2 SHL ADD PUSH1 0x2 DUP6 ADD SSTORE PUSH2 0x3F6 JUMP JUMPDEST SWAP2 SWAP3 PUSH1 0x20 PUSH1 0x1 DUP2 SWAP3 DUP7 DUP6 ADD MLOAD DUP2 SSTORE ADD SWAP5 ADD SWAP3 ADD PUSH2 0xBE9 JUMP JUMPDEST PUSH1 0x2 DUP6 ADD PUSH1 0x0 MSTORE PUSH1 0x20 PUSH1 0x0 KECCAK256 PUSH1 0x1F DUP5 ADD PUSH1 0x5 SHR DUP2 ADD PUSH1 0x20 DUP6 LT PUSH2 0xC8C JUMPI JUMPDEST PUSH1 0x1F DUP4 ADD PUSH1 0x5 SHR DUP3 ADD DUP2 LT PUSH2 0xC80 JUMPI POP POP PUSH2 0xB3E JUMP JUMPDEST PUSH1 0x0 DUP2 SSTORE PUSH1 0x1 ADD PUSH2 0xC6A JUMP JUMPDEST POP DUP1 PUSH2 0xC6A JUMP JUMPDEST ADD MLOAD SWAP1 POP DUP12 DUP1 PUSH2 0xAFA JUMP JUMPDEST PUSH1 0x1 DUP7 ADD PUSH1 0x0 SWAP1 DUP2 MSTORE PUSH1 0x20 DUP2 KECCAK256 SWAP4 POP PUSH1 0x1F NOT DUP6 AND SWAP1 JUMPDEST DUP2 DUP2 LT PUSH2 0xCF3 JUMPI POP SWAP1 DUP5 PUSH1 0x1 SWAP6 SWAP5 SWAP4 SWAP3 LT PUSH2 0xCDA JUMPI JUMPDEST POP POP POP DUP2 SHL ADD PUSH1 0x1 DUP4 ADD SSTORE PUSH2 0xB12 JUMP JUMPDEST ADD MLOAD PUSH1 0x0 NOT PUSH1 0xF8 DUP5 PUSH1 0x3 SHL AND SHR NOT AND SWAP1 SSTORE DUP12 DUP1 DUP1 PUSH2 0xCCA JUMP JUMPDEST SWAP3 SWAP4 PUSH1 0x20 PUSH1 0x1 DUP2 SWAP3 DUP8 DUP7 ADD MLOAD DUP2 SSTORE ADD SWAP6 ADD SWAP4 ADD PUSH2 0xCB4 JUMP JUMPDEST SWAP1 SWAP2 POP PUSH1 0x1 DUP6 ADD PUSH1 0x0 MSTORE PUSH1 0x20 PUSH1 0x0 KECCAK256 PUSH1 0x1F DUP5 ADD PUSH1 0x5 SHR DUP2 ADD PUSH1 0x20 DUP6 LT PUSH2 0xD57 JUMPI JUMPDEST SWAP1 DUP5 SWAP4 SWAP3 SWAP2 JUMPDEST PUSH1 0x1F DUP4 ADD PUSH1 0x5 SHR DUP3 ADD DUP2 LT PUSH2 0xD48 JUMPI POP POP PUSH2 0xAE3 JUMP JUMPDEST PUSH1 0x0 DUP2 SSTORE DUP6 SWAP5 POP PUSH1 0x1 ADD PUSH2 0xD32 JUMP JUMPDEST POP DUP1 PUSH2 0xD2C JUMP JUMPDEST ADD MLOAD SWAP1 POP DUP12 DUP1 PUSH2 0xAA0 JUMP JUMPDEST SWAP3 POP DUP5 PUSH1 0x0 MSTORE PUSH1 0x20 PUSH1 0x0 KECCAK256 SWAP1 PUSH1 0x0 SWAP4 JUMPDEST PUSH1 0x1F NOT DUP5 AND DUP6 LT PUSH2 0xDBA JUMPI PUSH1 0x1 SWAP5 POP DUP4 PUSH1 0x1F NOT DUP2 AND LT PUSH2 0xDA1 JUMPI JUMPDEST POP POP POP DUP2 SHL ADD DUP3 SSTORE PUSH2 0xAB5 JUMP JUMPDEST ADD MLOAD PUSH1 0x0 NOT PUSH1 0xF8 DUP5 PUSH1 0x3 SHL AND SHR NOT AND SWAP1 SSTORE DUP12 DUP1 DUP1 PUSH2 0xD94 JUMP JUMPDEST DUP2 DUP2 ADD MLOAD DUP4 SSTORE PUSH1 0x20 SWAP5 DUP6 ADD SWAP5 PUSH1 0x1 SWAP1 SWAP4 ADD SWAP3 SWAP1 SWAP2 ADD SWAP1 PUSH2 0xD79 JUMP JUMPDEST SWAP1 SWAP2 POP DUP5 PUSH1 0x0 MSTORE PUSH1 0x20 PUSH1 0x0 KECCAK256 PUSH1 0x1F DUP5 ADD PUSH1 0x5 SHR DUP2 ADD PUSH1 0x20 DUP6 LT PUSH2 0xE1E JUMPI JUMPDEST SWAP1 DUP5 SWAP4 SWAP3 SWAP2 JUMPDEST PUSH1 0x1F DUP4 ADD PUSH1 0x5 SHR DUP3 ADD DUP2 LT PUSH2 0xE0F JUMPI POP POP PUSH2 0xA89 JUMP JUMPDEST PUSH1 0x0 DUP2 SSTORE DUP6 SWAP5 POP PUSH1 0x1 ADD PUSH2 0xDF9 JUMP JUMPDEST POP DUP1 PUSH2 0xDF3 JUMP JUMPDEST PUSH1 0x40 MLOAD PUSH3 0x461BCD PUSH1 0xE5 SHL DUP2 MSTORE PUSH1 0x20 PUSH1 0x4 DUP3 ADD MSTORE PUSH1 0xE PUSH1 0x24 DUP3 ADD MSTORE PUSH14 0x141C9BDBD9881C995C5D5A5C9959 PUSH1 0x92 SHL PUSH1 0x44 DUP3 ADD MSTORE PUSH1 0x64 SWAP1 REVERT JUMPDEST PUSH1 0x1 PUSH1 0x1 PUSH1 0xA0 SHL SUB AND ISZERO ISZERO SWAP1 POP DUP8 PUSH2 0x9C3 JUMP JUMPDEST CALLVALUE PUSH2 0x134 JUMPI PUSH1 0x20 CALLDATASIZE PUSH1 0x3 NOT ADD SLT PUSH2 0x134 JUMPI PUSH1 0x4 CALLDATALOAD PUSH1 0x1 PUSH1 0x1 PUSH1 0x40 SHL SUB DUP2 GT PUSH2 0x134 JUMPI CALLDATASIZE PUSH1 0x23 DUP3 ADD SLT ISZERO PUSH2 0x134 JUMPI PUSH2 0xECA PUSH1 0x20 PUSH2 0xEB7 PUSH2 0xEFC SWAP4 CALLDATASIZE SWAP1 PUSH1 0x24 DUP2 PUSH1 0x4 ADD CALLDATALOAD SWAP2 ADD PUSH2 0x29AA JUMP JUMPDEST DUP2 PUSH1 0x40 MLOAD SWAP4 DUP3 DUP6 DUP1 SWAP5 MLOAD SWAP4 DUP5 SWAP3 ADD PUSH2 0x2962 JUMP JUMPDEST DUP2 ADD PUSH1 0x0 DUP2 MSTORE SUB ADD SWAP1 KECCAK256 PUSH2 0xEDD DUP2 PUSH2 0x28BC JUMP JUMPDEST SWAP1 PUSH1 0x2 PUSH1 0x1 DUP3 ADD SLOAD SWAP2 ADD SLOAD PUSH1 0x40 MLOAD SWAP4 DUP5 SWAP4 PUSH1 0x60 DUP6 MSTORE PUSH1 0x60 DUP6 ADD SWAP1 PUSH2 0x2985 JUMP JUMPDEST SWAP2 PUSH1 0x20 DUP5 ADD MSTORE PUSH1 0x40 DUP4 ADD MSTORE SUB SWAP1 RETURN JUMPDEST CALLVALUE PUSH2 0x134 JUMPI PUSH1 0x20 CALLDATASIZE PUSH1 0x3 NOT ADD SLT PUSH2 0x134 JUMPI PUSH1 0x20 PUSH2 0xF29 PUSH1 0x4 CALLDATALOAD PUSH2 0x2C5A JUMP JUMPDEST PUSH1 0x40 MLOAD SWAP1 ISZERO ISZERO DUP2 MSTORE RETURN JUMPDEST CALLVALUE PUSH2 0x134 JUMPI PUSH1 0x0 CALLDATASIZE PUSH1 0x3 NOT ADD SLT PUSH2 0x134 JUMPI PUSH1 0x6 SLOAD PUSH1 0x40 MLOAD PUSH1 0x1 PUSH1 0x1 PUSH1 0xA0 SHL SUB SWAP1 SWAP2 AND DUP2 MSTORE PUSH1 0x20 SWAP1 RETURN JUMPDEST CALLVALUE PUSH2 0x134 JUMPI PUSH1 0x20 CALLDATASIZE PUSH1 0x3 NOT ADD SLT PUSH2 0x134 JUMPI PUSH1 0x4 CALLDATALOAD PUSH1 0x0 MSTORE PUSH1 0x1 PUSH1 0x20 MSTORE PUSH1 0x40 PUSH1 0x0 KECCAK256 PUSH2 0xFFD PUSH2 0xF89 DUP3 PUSH2 0x28BC JUMP JUMPDEST SWAP2 PUSH2 0xF96 PUSH1 0x1 DUP3 ADD PUSH2 0x28BC JUMP JUMPDEST SWAP3 PUSH2 0xFA3 PUSH1 0x2 DUP4 ADD PUSH2 0x28BC JUMP JUMPDEST SWAP2 PUSH1 0x1 DUP1 PUSH1 0xA0 SHL SUB PUSH1 0x3 DUP3 ADD SLOAD AND SWAP3 PUSH1 0x4 DUP3 ADD SLOAD PUSH1 0xFF PUSH1 0x5 DUP5 ADD SLOAD AND PUSH1 0x6 DUP5 ADD SLOAD PUSH1 0x7 DUP6 ADD SLOAD SWAP2 PUSH1 0x8 DUP7 ADD SLOAD SWAP4 PUSH2 0x1019 PUSH1 0x9 DUP9 ADD SLOAD SWAP7 PUSH2 0x100B PUSH1 0xB PUSH1 0xA DUP12 ADD SLOAD SWAP11 ADD SLOAD SWAP11 PUSH1 0x40 MLOAD SWAP15 DUP16 SWAP15 DUP16 SWAP3 PUSH2 0x180 DUP1 DUP6 MSTORE DUP5 ADD SWAP1 PUSH2 0x2985 JUMP JUMPDEST SWAP2 PUSH1 0x20 DUP2 DUP5 SUB SWAP2 ADD MSTORE PUSH2 0x2985 JUMP JUMPDEST DUP13 DUP2 SUB PUSH1 0x40 DUP15 ADD MSTORE SWAP1 PUSH2 0x2985 JUMP JUMPDEST SWAP9 PUSH1 0x60 DUP12 ADD MSTORE PUSH1 0x80 DUP11 ADD MSTORE ISZERO ISZERO PUSH1 0xA0 DUP10 ADD MSTORE PUSH1 0xC0 DUP9 ADD MSTORE PUSH1 0xE0 DUP8 ADD MSTORE PUSH2 0x100 DUP7 ADD MSTORE PUSH2 0x120 DUP6 ADD MSTORE PUSH2 0x140 DUP5 ADD MSTORE PUSH2 0x160 DUP4 ADD MSTORE SUB SWAP1 RETURN JUMPDEST CALLVALUE PUSH2 0x134 JUMPI PUSH1 0x20 CALLDATASIZE PUSH1 0x3 NOT ADD SLT PUSH2 0x134 JUMPI PUSH1 0x4 CALLDATALOAD PUSH1 0xFF DUP2 AND DUP1 DUP3 SUB PUSH2 0x134 JUMPI PUSH1 0x2 DUP2 GT PUSH2 0x109F JUMPI PUSH1 0x3 GT ISZERO PUSH2 0x8A3 JUMPI PUSH1 0x5 DUP1 SLOAD PUSH1 0xFF PUSH1 0xA8 SHL NOT AND PUSH1 0xA8 SWAP3 SWAP1 SWAP3 SHL PUSH1 0xFF PUSH1 0xA8 SHL AND SWAP2 SWAP1 SWAP2 OR SWAP1 SSTORE STOP JUMPDEST PUSH1 0x40 MLOAD PUSH3 0x461BCD PUSH1 0xE5 SHL DUP2 MSTORE PUSH1 0x20 PUSH1 0x4 DUP3 ADD MSTORE PUSH1 0xC PUSH1 0x24 DUP3 ADD MSTORE PUSH12 0x696E76616C6964206D6F6465 PUSH1 0xA0 SHL PUSH1 0x44 DUP3 ADD MSTORE PUSH1 0x64 SWAP1 REVERT JUMPDEST CALLVALUE PUSH2 0x134 JUMPI PUSH1 0x40 CALLDATASIZE PUSH1 0x3 NOT ADD SLT PUSH2 0x134 JUMPI PUSH2 0x10EC PUSH2 0x2802 JUMP JUMPDEST PUSH1 0x24 CALLDATALOAD DUP1 ISZERO ISZERO DUP2 SUB PUSH2 0x134 JUMPI PUSH2 0x1122 SWAP2 PUSH1 0x1 DUP1 PUSH1 0xA0 SHL SUB AND PUSH1 0x0 MSTORE PUSH1 0x3 PUSH1 0x20 MSTORE PUSH1 0x40 PUSH1 0x0 KECCAK256 SWAP1 PUSH1 0xFF DUP1 NOT DUP4 SLOAD AND SWAP2 ISZERO ISZERO AND OR SWAP1 SSTORE JUMP JUMPDEST STOP JUMPDEST CALLVALUE PUSH2 0x134 JUMPI PUSH1 0x0 CALLDATASIZE PUSH1 0x3 NOT ADD SLT PUSH2 0x134 JUMPI PUSH1 0x20 PUSH1 0x4 SLOAD PUSH1 0x40 MLOAD SWAP1 DUP2 MSTORE RETURN JUMPDEST CALLVALUE PUSH2 0x134 JUMPI PUSH1 0x60 CALLDATASIZE PUSH1 0x3 NOT ADD SLT PUSH2 0x134 JUMPI PUSH1 0x1 PUSH1 0x1 PUSH1 0x40 SHL SUB PUSH1 0x4 CALLDATALOAD DUP2 DUP2 GT PUSH2 0x134 JUMPI PUSH2 0x1173 SWAP1 CALLDATASIZE SWAP1 PUSH1 0x4 ADD PUSH2 0x2818 JUMP JUMPDEST SWAP1 PUSH1 0x24 CALLDATALOAD DUP4 DUP2 GT PUSH2 0x134 JUMPI PUSH2 0x118C SWAP1 CALLDATASIZE SWAP1 PUSH1 0x4 ADD PUSH2 0x2818 JUMP JUMPDEST SWAP3 SWAP1 SWAP2 CALLER PUSH1 0x0 MSTORE PUSH1 0x3 PUSH1 0x20 MSTORE PUSH2 0x11A9 PUSH1 0xFF PUSH1 0x40 PUSH1 0x0 KECCAK256 SLOAD AND PUSH2 0x29F0 JUMP JUMPDEST PUSH1 0x40 MLOAD PUSH1 0x60 DUP2 ADD DUP2 DUP2 LT DUP8 DUP3 GT OR PUSH2 0x583 JUMPI PUSH1 0x40 MSTORE PUSH2 0x11C9 CALLDATASIZE DUP7 DUP7 PUSH2 0x29AA JUMP JUMPDEST DUP2 MSTORE PUSH1 0x44 CALLDATALOAD PUSH1 0x20 DUP3 ADD MSTORE TIMESTAMP PUSH1 0x40 DUP3 ADD MSTORE PUSH1 0x40 MLOAD DUP4 DUP4 DUP3 CALLDATACOPY PUSH1 0x20 DUP2 DUP6 DUP2 ADD PUSH1 0x0 DUP2 MSTORE SUB ADD SWAP1 KECCAK256 SWAP1 DUP1 MLOAD SWAP7 DUP8 MLOAD SWAP1 DUP2 GT PUSH2 0x583 JUMPI PUSH2 0x1205 DUP4 SLOAD PUSH2 0x2845 JUMP JUMPDEST PUSH1 0x1F DUP2 GT PUSH2 0x134B JUMPI JUMPDEST POP PUSH1 0x20 PUSH1 0x1F DUP3 GT PUSH1 0x1 EQ PUSH2 0x12BB JUMPI SWAP2 DUP2 PUSH1 0x40 SWAP3 PUSH1 0x2 SWAP5 PUSH32 0x43A6FF1417F4B1A76D33362796A2AA0DEDA65BD76C51679E352F2CCE92F8FA07 SWAP11 SWAP12 PUSH1 0x0 SWAP3 PUSH2 0x12B0 JUMPI JUMPDEST POP POP DUP2 PUSH1 0x1 SHL SWAP2 PUSH1 0x0 NOT SWAP1 PUSH1 0x3 SHL SHR NOT AND OR DUP5 SSTORE JUMPDEST PUSH1 0x20 DUP2 ADD MLOAD PUSH1 0x1 DUP6 ADD SSTORE ADD MLOAD SWAP2 ADD SSTORE DUP2 PUSH1 0x40 MLOAD SWAP3 DUP4 SWAP3 DUP4 CALLDATACOPY DUP2 ADD PUSH1 0x0 DUP2 MSTORE SUB SWAP1 KECCAK256 SWAP3 PUSH2 0x129D PUSH1 0x40 MLOAD SWAP3 DUP4 SWAP3 PUSH1 0x60 DUP5 MSTORE PUSH1 0x60 DUP5 ADD SWAP2 PUSH2 0x2A2D JUMP JUMPDEST PUSH1 0x44 CALLDATALOAD PUSH1 0x20 DUP4 ADD MSTORE TIMESTAMP PUSH1 0x40 DUP4 ADD MSTORE SUB SWAP1 LOG2 STOP JUMPDEST ADD MLOAD SWAP1 POP DUP12 DUP1 PUSH2 0x124F JUMP JUMPDEST DUP4 PUSH1 0x0 MSTORE PUSH1 0x20 PUSH1 0x0 KECCAK256 SWAP9 PUSH1 0x0 JUMPDEST PUSH1 0x1F NOT DUP5 AND DUP2 LT PUSH2 0x1333 JUMPI POP DUP3 PUSH32 0x43A6FF1417F4B1A76D33362796A2AA0DEDA65BD76C51679E352F2CCE92F8FA07 SWAP10 SWAP11 PUSH1 0x2 SWAP6 SWAP4 PUSH1 0x1 SWAP4 PUSH1 0x40 SWAP7 PUSH1 0x1F NOT DUP2 AND LT PUSH2 0x131A JUMPI JUMPDEST POP POP POP DUP2 SHL ADD DUP5 SSTORE PUSH2 0x1264 JUMP JUMPDEST ADD MLOAD PUSH1 0x0 NOT PUSH1 0xF8 DUP5 PUSH1 0x3 SHL AND SHR NOT AND SWAP1 SSTORE DUP12 DUP1 DUP1 PUSH2 0x130D JUMP JUMPDEST DUP3 DUP3 ADD MLOAD DUP12 SSTORE PUSH1 0x1 SWAP1 SWAP11 ADD SWAP10 PUSH1 0x20 SWAP3 DUP4 ADD SWAP3 ADD PUSH2 0x12C8 JUMP JUMPDEST DUP4 PUSH1 0x0 MSTORE PUSH1 0x20 PUSH1 0x0 KECCAK256 PUSH1 0x1F DUP4 ADD PUSH1 0x5 SHR DUP2 ADD SWAP2 PUSH1 0x20 DUP5 LT PUSH2 0x1389 JUMPI JUMPDEST PUSH1 0x1F ADD PUSH1 0x5 SHR ADD SWAP1 JUMPDEST DUP2 DUP2 LT PUSH2 0x137D JUMPI POP PUSH2 0x120E JUMP JUMPDEST PUSH1 0x0 DUP2 SSTORE PUSH1 0x1 ADD PUSH2 0x1370 JUMP JUMPDEST SWAP1 SWAP2 POP DUP2 SWAP1 PUSH2 0x1367 JUMP JUMPDEST CALLVALUE PUSH2 0x134 JUMPI PUSH1 0x20 CALLDATASIZE PUSH1 0x3 NOT ADD SLT PUSH2 0x134 JUMPI PUSH1 0x1 PUSH1 0x1 PUSH1 0xA0 SHL SUB PUSH2 0x13B4 PUSH2 0x2802 JUMP JUMPDEST AND PUSH1 0x1 PUSH1 0x1 PUSH1 0x60 SHL SUB PUSH1 0xA0 SHL PUSH1 0x5 SLOAD AND OR PUSH1 0x5 SSTORE PUSH1 0x0 DUP1 RETURN JUMPDEST CALLVALUE PUSH2 0x134 JUMPI PUSH2 0x200 CALLDATASIZE PUSH1 0x3 NOT ADD SLT PUSH2 0x134 JUMPI PUSH1 0x4 CALLDATALOAD PUSH1 0x1 PUSH1 0x1 PUSH1 0x40 SHL SUB DUP2 GT PUSH2 0x134 JUMPI PUSH2 0x13FE SWAP1 CALLDATASIZE SWAP1 PUSH1 0x4 ADD PUSH2 0x2818 JUMP JUMPDEST SWAP1 PUSH1 0x24 CALLDATALOAD PUSH1 0x1 PUSH1 0x1 PUSH1 0x40 SHL SUB DUP2 GT PUSH2 0x134 JUMPI PUSH2 0x141E SWAP1 CALLDATASIZE SWAP1 PUSH1 0x4 ADD PUSH2 0x2818 JUMP JUMPDEST SWAP2 SWAP1 PUSH1 0x44 CALLDATALOAD PUSH1 0x1 PUSH1 0x1 PUSH1 0x40 SHL SUB DUP2 GT PUSH2 0x134 JUMPI PUSH2 0x143F SWAP1 CALLDATASIZE SWAP1 PUSH1 0x4 ADD PUSH2 0x2818 JUMP JUMPDEST SWAP5 SWAP1 CALLDATASIZE PUSH1 0xA4 GT PUSH2 0x134 JUMPI CALLDATASIZE PUSH2 0x124 GT PUSH2 0x134 JUMPI CALLDATASIZE PUSH2 0x164 GT PUSH2 0x134 JUMPI CALLDATASIZE PUSH2 0x184 GT PUSH2 0x134 JUMPI CALLER PUSH1 0x0 MSTORE PUSH1 0x3 PUSH1 0x20 MSTORE PUSH2 0x147E PUSH1 0xFF PUSH1 0x40 PUSH1 0x0 KECCAK256 SLOAD AND PUSH2 0x29F0 JUMP JUMPDEST PUSH1 0x6 SLOAD PUSH1 0x1 PUSH1 0x1 PUSH1 0xA0 SHL SUB AND DUP1 PUSH2 0x1C88 JUMPI JUMPDEST PUSH1 0x5 SLOAD PUSH1 0x1 PUSH1 0x1 PUSH1 0xA0 SHL SUB DUP2 AND ISZERO ISZERO DUP1 PUSH2 0x1C7B JUMPI JUMPDEST PUSH2 0x1ADF JUMPI JUMPDEST POP DUP1 PUSH2 0x1A03 JUMPI JUMPDEST POP PUSH2 0x14BD PUSH1 0x4 SLOAD PUSH2 0x2A4E JUMP JUMPDEST SWAP5 DUP6 PUSH1 0x4 SSTORE PUSH1 0x40 MLOAD PUSH1 0x20 DUP2 ADD SWAP1 PUSH2 0x14D7 DUP2 PUSH2 0x22F DUP5 PUSH2 0x2C0F JUMP JUMPDEST MLOAD SWAP1 KECCAK256 SWAP5 PUSH1 0x40 MLOAD PUSH2 0x14E7 DUP2 PUSH2 0x287F JUMP JUMPDEST PUSH2 0x14F2 CALLDATASIZE DUP7 DUP5 PUSH2 0x29AA JUMP JUMPDEST DUP2 MSTORE PUSH2 0x14FF CALLDATASIZE DUP5 DUP9 PUSH2 0x29AA JUMP JUMPDEST PUSH1 0x20 DUP3 ADD MSTORE PUSH2 0x150F CALLDATASIZE DUP11 DUP7 PUSH2 0x29AA JUMP JUMPDEST PUSH1 0x40 DUP3 ADD MSTORE CALLER PUSH1 0x60 DUP3 ADD MSTORE TIMESTAMP PUSH1 0x80 DUP3 ADD MSTORE PUSH1 0x0 PUSH1 0xA0 DUP3 ADD MSTORE PUSH1 0x0 PUSH1 0xC0 DUP3 ADD MSTORE DUP7 PUSH1 0xE0 DUP3 ADD MSTORE PUSH2 0x1A4 CALLDATALOAD PUSH2 0x100 DUP3 ADD MSTORE PUSH2 0x184 CALLDATALOAD PUSH2 0x120 DUP3 ADD MSTORE PUSH2 0x1C4 CALLDATALOAD PUSH2 0x140 DUP3 ADD MSTORE PUSH2 0x1E4 CALLDATALOAD PUSH2 0x160 DUP3 ADD MSTORE DUP8 PUSH1 0x0 MSTORE PUSH1 0x1 PUSH1 0x20 MSTORE PUSH1 0x40 PUSH1 0x0 KECCAK256 SWAP1 DUP1 MLOAD DUP1 MLOAD SWAP1 PUSH1 0x1 PUSH1 0x1 PUSH1 0x40 SHL SUB DUP3 GT PUSH2 0x583 JUMPI DUP2 SWAP1 PUSH2 0x158A DUP6 SLOAD PUSH2 0x2845 JUMP JUMPDEST PUSH1 0x1F DUP2 GT PUSH2 0x19B3 JUMPI JUMPDEST POP PUSH1 0x20 SWAP1 PUSH1 0x1F DUP4 GT PUSH1 0x1 EQ PUSH2 0x1947 JUMPI PUSH1 0x0 SWAP3 PUSH2 0x193C JUMPI JUMPDEST POP POP DUP2 PUSH1 0x1 SHL SWAP2 PUSH1 0x0 NOT SWAP1 PUSH1 0x3 SHL SHR NOT AND OR DUP3 SSTORE JUMPDEST PUSH1 0x20 DUP2 ADD MLOAD DUP1 MLOAD SWAP1 PUSH1 0x1 PUSH1 0x1 PUSH1 0x40 SHL SUB DUP3 GT PUSH2 0x583 JUMPI DUP2 SWAP1 PUSH2 0x15E4 PUSH1 0x1 DUP7 ADD SLOAD PUSH2 0x2845 JUMP JUMPDEST PUSH1 0x1F DUP2 GT PUSH2 0x18E9 JUMPI JUMPDEST POP PUSH1 0x20 SWAP1 PUSH1 0x1F DUP4 GT PUSH1 0x1 EQ PUSH2 0x1877 JUMPI PUSH1 0x0 SWAP3 PUSH2 0x186C JUMPI JUMPDEST POP POP DUP2 PUSH1 0x1 SHL SWAP2 PUSH1 0x0 NOT SWAP1 PUSH1 0x3 SHL SHR NOT AND OR PUSH1 0x1 DUP4 ADD SSTORE JUMPDEST PUSH1 0x40 DUP2 ADD MLOAD DUP1 MLOAD SWAP1 PUSH1 0x1 PUSH1 0x1 PUSH1 0x40 SHL SUB DUP3 GT PUSH2 0x583 JUMPI PUSH2 0x163F PUSH1 0x2 DUP6 ADD SLOAD PUSH2 0x2845 JUMP JUMPDEST PUSH1 0x1F DUP2 GT PUSH2 0x1825 JUMPI JUMPDEST POP SWAP2 PUSH1 0x20 SWAP12 SWAP6 SWAP4 SWAP2 DUP12 SWAP8 SWAP6 SWAP4 DUP14 SWAP1 PUSH1 0x1F DUP4 GT PUSH1 0x1 EQ PUSH2 0x177E JUMPI PUSH2 0x16EB SWAP7 SWAP6 SWAP4 DUP4 PUSH1 0x0 DUP1 MLOAD PUSH1 0x20 PUSH2 0x2CBF DUP4 CODECOPY DUP2 MLOAD SWAP2 MSTORE SWAP12 SWAP13 SWAP7 SWAP5 PUSH1 0xB SWAP5 PUSH2 0x160 SWAP5 PUSH1 0x0 SWAP3 PUSH2 0x1773 JUMPI POP POP DUP2 PUSH1 0x1 SHL SWAP2 PUSH1 0x0 NOT SWAP1 PUSH1 0x3 SHL SHR NOT AND OR PUSH1 0x2 DUP6 ADD SSTORE PUSH1 0x3 DUP5 ADD PUSH1 0x1 DUP1 PUSH1 0xA0 SHL SUB PUSH1 0x60 DUP4 ADD MLOAD AND PUSH1 0x1 PUSH1 0x1 PUSH1 0x60 SHL SUB PUSH1 0xA0 SHL DUP3 SLOAD AND OR SWAP1 SSTORE PUSH1 0x80 DUP2 ADD MLOAD PUSH1 0x4 DUP6 ADD SSTORE PUSH2 0x441 PUSH1 0xA0 DUP3 ADD MLOAD ISZERO ISZERO PUSH1 0x5 DUP7 ADD SWAP1 PUSH1 0xFF DUP1 NOT DUP4 SLOAD AND SWAP2 ISZERO ISZERO AND OR SWAP1 SSTORE JUMP JUMPDEST SUB SWAP1 LOG3 PUSH1 0x40 MLOAD SWAP1 DUP2 MSTORE PUSH2 0x1A4 CALLDATALOAD DUP4 DUP3 ADD MSTORE TIMESTAMP PUSH1 0x40 DUP3 ADD MSTORE DUP2 PUSH32 0x7748B8DC949A8F076282F45B5950A1109FB290FE8C1B7884F4131F70478E49FC PUSH1 0x60 PUSH2 0x184 CALLDATALOAD SWAP4 LOG3 DUP1 PUSH32 0xA95C8395C5E6000E8CEAC086F54D6D8FAA88A7178C07FA98EBE823AE637F591F PUSH1 0x60 PUSH1 0x40 MLOAD PUSH2 0x1A4 CALLDATALOAD DUP2 MSTORE PUSH2 0x1C4 CALLDATALOAD DUP7 DUP3 ADD MSTORE PUSH2 0x1E4 CALLDATALOAD PUSH1 0x40 DUP3 ADD MSTORE LOG2 PUSH1 0x40 MLOAD SWAP1 DUP2 MSTORE RETURN JUMPDEST ADD MLOAD SWAP1 POP CODESIZE DUP1 PUSH2 0x3DE JUMP JUMPDEST SWAP10 SWAP5 SWAP4 SWAP3 SWAP2 SWAP1 PUSH1 0x2 DUP5 ADD PUSH1 0x0 MSTORE DUP15 PUSH1 0x0 KECCAK256 SWAP11 PUSH1 0x0 JUMPDEST PUSH1 0x1F NOT DUP5 AND DUP2 LT PUSH2 0x17F6 JUMPI POP SWAP3 PUSH1 0x1 DUP4 PUSH1 0x0 DUP1 MLOAD PUSH1 0x20 PUSH2 0x2CBF DUP4 CODECOPY DUP2 MLOAD SWAP2 MSTORE SWAP13 SWAP14 PUSH2 0x160 SWAP5 PUSH2 0x16EB SWAP12 SWAP11 SWAP10 SWAP9 SWAP8 PUSH1 0xB SWAP8 PUSH1 0x1F NOT DUP2 AND LT PUSH2 0x17DD JUMPI POP POP POP DUP2 SHL ADD PUSH1 0x2 DUP6 ADD SSTORE PUSH2 0x3F6 JUMP JUMPDEST ADD MLOAD PUSH1 0x0 NOT PUSH1 0xF8 DUP5 PUSH1 0x3 SHL AND SHR NOT AND SWAP1 SSTORE CODESIZE DUP1 DUP1 PUSH2 0x4FB JUMP JUMPDEST SWAP3 SWAP5 SWAP7 SWAP9 SWAP11 POP SWAP1 SWAP3 SWAP5 SWAP7 SWAP9 SWAP11 DUP16 PUSH1 0x1 DUP2 SWAP3 DUP7 DUP6 ADD MLOAD DUP2 SSTORE ADD SWAP5 ADD SWAP3 ADD SWAP1 DUP15 SWAP11 SWAP9 SWAP7 SWAP5 SWAP3 SWAP2 SWAP12 SWAP10 SWAP8 SWAP6 SWAP4 SWAP12 PUSH2 0x1793 JUMP JUMPDEST PUSH1 0x2 DUP6 ADD PUSH1 0x0 MSTORE PUSH1 0x20 PUSH1 0x0 KECCAK256 PUSH1 0x1F DUP5 ADD PUSH1 0x5 SHR DUP2 ADD PUSH1 0x20 DUP6 LT PUSH2 0x1865 JUMPI JUMPDEST PUSH1 0x1F DUP4 ADD PUSH1 0x5 SHR DUP3 ADD DUP2 LT PUSH2 0x1859 JUMPI POP POP PUSH2 0x1648 JUMP JUMPDEST PUSH1 0x0 DUP2 SSTORE PUSH1 0x1 ADD PUSH2 0x1843 JUMP JUMPDEST POP DUP1 PUSH2 0x1843 JUMP JUMPDEST ADD MLOAD SWAP1 POP DUP13 DUP1 PUSH2 0x1604 JUMP JUMPDEST SWAP3 POP PUSH1 0x1 DUP6 ADD PUSH1 0x0 MSTORE PUSH1 0x20 PUSH1 0x0 KECCAK256 SWAP1 PUSH1 0x0 SWAP4 JUMPDEST PUSH1 0x1F NOT DUP5 AND DUP6 LT PUSH2 0x18CE JUMPI PUSH1 0x1 SWAP5 POP DUP4 PUSH1 0x1F NOT DUP2 AND LT PUSH2 0x18B5 JUMPI JUMPDEST POP POP POP DUP2 SHL ADD PUSH1 0x1 DUP4 ADD SSTORE PUSH2 0x161C JUMP JUMPDEST ADD MLOAD PUSH1 0x0 NOT PUSH1 0xF8 DUP5 PUSH1 0x3 SHL AND SHR NOT AND SWAP1 SSTORE DUP13 DUP1 DUP1 PUSH2 0x18A5 JUMP JUMPDEST DUP2 DUP2 ADD MLOAD DUP4 SSTORE PUSH1 0x20 SWAP5 DUP6 ADD SWAP5 PUSH1 0x1 SWAP1 SWAP4 ADD SWAP3 SWAP1 SWAP2 ADD SWAP1 PUSH2 0x188A JUMP JUMPDEST SWAP1 SWAP2 POP PUSH1 0x1 DUP6 ADD PUSH1 0x0 MSTORE PUSH1 0x20 PUSH1 0x0 KECCAK256 PUSH1 0x1F DUP5 ADD PUSH1 0x5 SHR DUP2 ADD PUSH1 0x20 DUP6 LT PUSH2 0x1935 JUMPI JUMPDEST SWAP1 DUP5 SWAP4 SWAP3 SWAP2 JUMPDEST PUSH1 0x1F DUP4 ADD PUSH1 0x5 SHR DUP3 ADD DUP2 LT PUSH2 0x1926 JUMPI POP POP PUSH2 0x15ED JUMP JUMPDEST PUSH1 0x0 DUP2 SSTORE DUP6 SWAP5 POP PUSH1 0x1 ADD PUSH2 0x1910 JUMP JUMPDEST POP DUP1 PUSH2 0x190A JUMP JUMPDEST ADD MLOAD SWAP1 POP DUP13 DUP1 PUSH2 0x15AA JUMP JUMPDEST SWAP3 POP DUP5 PUSH1 0x0 MSTORE PUSH1 0x20 PUSH1 0x0 KECCAK256 SWAP1 PUSH1 0x0 SWAP4 JUMPDEST PUSH1 0x1F NOT DUP5 AND DUP6 LT PUSH2 0x1998 JUMPI PUSH1 0x1 SWAP5 POP DUP4 PUSH1 0x1F NOT DUP2 AND LT PUSH2 0x197F JUMPI JUMPDEST POP POP POP DUP2 SHL ADD DUP3 SSTORE PUSH2 0x15BF JUMP JUMPDEST ADD MLOAD PUSH1 0x0 NOT PUSH1 0xF8 DUP5 PUSH1 0x3 SHL AND SHR NOT AND SWAP1 SSTORE DUP13 DUP1 DUP1 PUSH2 0x1972 JUMP JUMPDEST DUP2 DUP2 ADD MLOAD DUP4 SSTORE PUSH1 0x20 SWAP5 DUP6 ADD SWAP5 PUSH1 0x1 SWAP1 SWAP4 ADD SWAP3 SWAP1 SWAP2 ADD SWAP1 PUSH2 0x1957 JUMP JUMPDEST SWAP1 SWAP2 POP DUP5 PUSH1 0x0 MSTORE PUSH1 0x20 PUSH1 0x0 KECCAK256 PUSH1 0x1F DUP5 ADD PUSH1 0x5 SHR DUP2 ADD PUSH1 0x20 DUP6 LT PUSH2 0x19FC JUMPI JUMPDEST SWAP1 DUP5 SWAP4 SWAP3 SWAP2 JUMPDEST PUSH1 0x1F DUP4 ADD PUSH1 0x5 SHR DUP3 ADD DUP2 LT PUSH2 0x19ED JUMPI POP POP PUSH2 0x1593 JUMP JUMPDEST PUSH1 0x0 DUP2 SSTORE DUP6 SWAP5 POP PUSH1 0x1 ADD PUSH2 0x19D7 JUMP JUMPDEST POP DUP1 PUSH2 0x19D1 JUMP JUMPDEST PUSH1 0x20 PUSH1 0x0 SWAP2 PUSH1 0x24 PUSH1 0x40 MLOAD DUP1 SWAP5 DUP2 SWAP4 PUSH4 0x3CB69C8F PUSH1 0xE2 SHL DUP4 MSTORE PUSH2 0x184 CALLDATALOAD PUSH1 0x4 DUP5 ADD MSTORE GAS CALL SWAP1 DUP2 ISZERO PUSH2 0x897 JUMPI PUSH1 0x0 SWAP2 PUSH2 0x1AC0 JUMPI JUMPDEST POP ISZERO PUSH2 0x1A7B JUMPI PUSH1 0x4 SLOAD PUSH1 0x1 DUP2 ADD DUP2 GT PUSH2 0x804 JUMPI PUSH1 0x1 PUSH2 0x184 CALLDATALOAD SWAP2 ADD PUSH32 0x561B7B14D2F06BFEDAFE93F2997B3B5B23DD367E7ED5D159837C71FDEE0B74EB PUSH1 0x0 DUP1 LOG3 DUP7 PUSH2 0x14B1 JUMP JUMPDEST PUSH1 0x40 MLOAD PUSH3 0x461BCD PUSH1 0xE5 SHL DUP2 MSTORE PUSH1 0x20 PUSH1 0x4 DUP3 ADD MSTORE PUSH1 0x1A PUSH1 0x24 DUP3 ADD MSTORE PUSH32 0x4661696C656420746F207265636F7264206E756C6C6966696572000000000000 PUSH1 0x44 DUP3 ADD MSTORE PUSH1 0x64 SWAP1 REVERT JUMPDEST PUSH2 0x1AD9 SWAP2 POP PUSH1 0x20 RETURNDATASIZE PUSH1 0x20 GT PUSH2 0x890 JUMPI PUSH2 0x882 DUP2 DUP4 PUSH2 0x289B JUMP JUMPDEST DUP8 PUSH2 0x1A35 JUMP JUMPDEST PUSH1 0xFF DUP2 PUSH1 0xA8 SHR AND PUSH1 0x3 DUP2 LT ISZERO PUSH2 0x8A3 JUMPI PUSH1 0x2 SUB PUSH2 0x1C3D JUMPI PUSH1 0x20 PUSH1 0x40 MLOAD DUP1 SWAP3 PUSH4 0x43753B4D PUSH1 0xE0 SHL DUP3 MSTORE DUP2 DUP1 PUSH2 0x1B15 PUSH1 0x4 DUP3 ADD PUSH2 0x2B76 JUMP JUMPDEST SUB SWAP2 PUSH1 0x1 PUSH1 0x1 PUSH1 0xA0 SHL SUB AND GAS STATICCALL SWAP1 DUP2 ISZERO PUSH2 0x897 JUMPI PUSH1 0x0 SWAP2 PUSH2 0x1C1E JUMPI JUMPDEST POP ISZERO PUSH2 0x1BA3 JUMPI PUSH1 0x4 SLOAD PUSH1 0x1 DUP2 ADD DUP2 GT PUSH2 0x804 JUMPI PUSH32 0x97721077B22FA56307BA4170B24CDBFE73942066BEDD3E641694B154DA21B6E1 PUSH1 0x40 MLOAD PUSH1 0x40 DUP2 MSTORE DUP1 PUSH1 0x1 PUSH2 0x1B91 PUSH1 0x40 DUP4 ADD PUSH1 0x40 SWAP1 PUSH1 0x7 DUP2 MSTORE PUSH7 0x23B937BA34189B PUSH1 0xC9 SHL PUSH1 0x20 DUP3 ADD MSTORE ADD SWAP1 JUMP JUMPDEST SWAP5 TIMESTAMP PUSH1 0x20 DUP5 ADD MSTORE ADD SWAP4 SUB SWAP1 LOG2 DUP8 PUSH2 0x14AA JUMP JUMPDEST PUSH1 0x4 SLOAD PUSH1 0x1 DUP2 ADD DUP1 SWAP2 GT PUSH2 0x804 JUMPI PUSH32 0xB6D16A30085036D50EFF56F37A53AED7799B984D49B452BC080DCC6742CA36B9 PUSH1 0x40 MLOAD DUP1 PUSH2 0x1BE0 TIMESTAMP DUP3 PUSH2 0x2BC2 JUMP JUMPDEST SUB SWAP1 LOG2 PUSH1 0x40 MLOAD PUSH3 0x461BCD PUSH1 0xE5 SHL DUP2 MSTORE PUSH1 0x20 PUSH1 0x4 DUP3 ADD MSTORE PUSH1 0x13 PUSH1 0x24 DUP3 ADD MSTORE PUSH19 0x24B73B30B634B21029A720A92590383937B7B3 PUSH1 0x69 SHL PUSH1 0x44 DUP3 ADD MSTORE PUSH1 0x64 SWAP1 REVERT JUMPDEST PUSH2 0x1C37 SWAP2 POP PUSH1 0x20 RETURNDATASIZE PUSH1 0x20 GT PUSH2 0x890 JUMPI PUSH2 0x882 DUP2 DUP4 PUSH2 0x289B JUMP JUMPDEST DUP9 PUSH2 0x1B31 JUMP JUMPDEST PUSH1 0x40 MLOAD PUSH3 0x461BCD PUSH1 0xE5 SHL DUP2 MSTORE PUSH1 0x20 PUSH1 0x4 DUP3 ADD MSTORE PUSH1 0x16 PUSH1 0x24 DUP3 ADD MSTORE PUSH22 0xACCAE4D2CCD2CAE440E8F2E0CA40DAD2E6DAC2E8C6D PUSH1 0x53 SHL PUSH1 0x44 DUP3 ADD MSTORE PUSH1 0x64 SWAP1 REVERT JUMPDEST POP PUSH1 0xFF DUP2 PUSH1 0xA0 SHR AND PUSH2 0x14A5 JUMP JUMPDEST PUSH1 0x40 MLOAD PUSH4 0xBB6BAEA7 PUSH1 0xE0 SHL DUP2 MSTORE PUSH2 0x184 CALLDATALOAD PUSH1 0x4 DUP3 ADD MSTORE PUSH1 0x20 DUP2 PUSH1 0x24 DUP2 DUP6 GAS STATICCALL SWAP1 DUP2 ISZERO PUSH2 0x897 JUMPI PUSH1 0x0 SWAP2 PUSH2 0x1D19 JUMPI JUMPDEST POP PUSH2 0x1490 JUMPI PUSH1 0x40 MLOAD PUSH3 0x461BCD PUSH1 0xE5 SHL DUP2 MSTORE PUSH1 0x20 PUSH1 0x4 DUP3 ADD MSTORE PUSH1 0x30 PUSH1 0x24 DUP3 ADD MSTORE PUSH32 0x4E756C6C696669657220616C7265616479207573656420287265706C61792061 PUSH1 0x44 DUP3 ADD MSTORE PUSH16 0x747461636B2070726576656E74656429 PUSH1 0x80 SHL PUSH1 0x64 DUP3 ADD MSTORE PUSH1 0x84 SWAP1 REVERT JUMPDEST PUSH2 0x1D32 SWAP2 POP PUSH1 0x20 RETURNDATASIZE PUSH1 0x20 GT PUSH2 0x890 JUMPI PUSH2 0x882 DUP2 DUP4 PUSH2 0x289B JUMP JUMPDEST DUP9 PUSH2 0x1CB6 JUMP JUMPDEST CALLVALUE PUSH2 0x134 JUMPI PUSH2 0x100 CALLDATASIZE PUSH1 0x3 NOT ADD SLT PUSH2 0x134 JUMPI PUSH1 0x4 CALLDATALOAD PUSH1 0x1 PUSH1 0x1 PUSH1 0x40 SHL SUB DUP2 GT PUSH2 0x134 JUMPI PUSH2 0x1D69 SWAP1 CALLDATASIZE SWAP1 PUSH1 0x4 ADD PUSH2 0x2818 JUMP JUMPDEST SWAP1 PUSH1 0x24 CALLDATALOAD PUSH1 0x1 PUSH1 0x1 PUSH1 0x40 SHL SUB DUP2 GT PUSH2 0x134 JUMPI PUSH2 0x1D89 SWAP1 CALLDATASIZE SWAP1 PUSH1 0x4 ADD PUSH2 0x2818 JUMP JUMPDEST SWAP1 SWAP3 PUSH1 0x44 CALLDATALOAD PUSH1 0x1 PUSH1 0x1 PUSH1 0x40 SHL SUB DUP2 GT PUSH2 0x134 JUMPI PUSH2 0x1DAA SWAP1 CALLDATASIZE SWAP1 PUSH1 0x4 ADD PUSH2 0x2818 JUMP JUMPDEST SWAP3 SWAP1 SWAP2 PUSH1 0x64 CALLDATALOAD PUSH1 0x1 PUSH1 0x1 PUSH1 0x40 SHL SUB DUP2 GT PUSH2 0x134 JUMPI PUSH2 0x1DCC SWAP1 CALLDATASIZE SWAP1 PUSH1 0x4 ADD PUSH2 0x2818 JUMP JUMPDEST SWAP6 SWAP1 SWAP6 CALLER PUSH1 0x0 MSTORE PUSH1 0x3 PUSH1 0x20 MSTORE PUSH2 0x1DE9 PUSH1 0xFF PUSH1 0x40 PUSH1 0x0 KECCAK256 SLOAD AND PUSH2 0x29F0 JUMP JUMPDEST PUSH1 0x5 SLOAD PUSH1 0xFF DUP2 PUSH1 0xA0 SHR AND PUSH2 0x2462 JUMPI JUMPDEST PUSH1 0x1 PUSH1 0x1 PUSH1 0xA0 SHL SUB DUP2 AND PUSH2 0x22B6 JUMPI JUMPDEST POP PUSH2 0x1E61 PUSH1 0xA0 PUSH2 0x1E18 PUSH1 0x4 SLOAD PUSH2 0x2A4E JUMP JUMPDEST SWAP9 DUP10 PUSH1 0x4 SSTORE DUP4 PUSH1 0x40 MLOAD SWAP5 DUP6 SWAP3 PUSH1 0x20 DUP5 ADD CALLDATACOPY PUSH1 0x84 CALLDATALOAD PUSH1 0x20 DUP3 DUP5 ADD ADD MSTORE PUSH1 0xA4 CALLDATALOAD PUSH1 0x40 DUP3 DUP5 ADD ADD MSTORE PUSH1 0xC4 CALLDATALOAD PUSH1 0x60 DUP3 DUP5 ADD ADD MSTORE PUSH1 0xE4 CALLDATALOAD PUSH1 0x80 DUP3 DUP5 ADD ADD MSTORE DUP2 ADD SUB PUSH1 0x80 DUP2 ADD DUP5 MSTORE ADD DUP3 PUSH2 0x289B JUMP JUMPDEST PUSH1 0x20 DUP2 MLOAD SWAP2 ADD KECCAK256 PUSH1 0x40 MLOAD SWAP1 PUSH2 0x1E75 DUP3 PUSH2 0x287F JUMP JUMPDEST PUSH2 0x1E80 CALLDATASIZE DUP6 DUP6 PUSH2 0x29AA JUMP JUMPDEST DUP3 MSTORE PUSH2 0x1E8D CALLDATASIZE DUP7 DUP12 PUSH2 0x29AA JUMP JUMPDEST PUSH1 0x20 DUP4 ADD MSTORE PUSH2 0x1E9D CALLDATASIZE DUP9 DUP9 PUSH2 0x29AA JUMP JUMPDEST PUSH1 0x40 DUP4 ADD MSTORE CALLER PUSH1 0x60 DUP4 ADD MSTORE TIMESTAMP PUSH1 0x80 DUP4 ADD MSTORE PUSH1 0x0 PUSH1 0xA0 DUP4 ADD MSTORE PUSH1 0x0 PUSH1 0xC0 DUP4 ADD MSTORE PUSH1 0xE0 DUP3 ADD MSTORE PUSH1 0x0 PUSH2 0x100 DUP3 ADD MSTORE PUSH1 0x0 PUSH2 0x120 DUP3 ADD MSTORE PUSH1 0xC4 CALLDATALOAD PUSH2 0x140 DUP3 ADD MSTORE PUSH1 0xE4 CALLDATALOAD PUSH2 0x160 DUP3 ADD MSTORE DUP7 PUSH1 0x0 MSTORE PUSH1 0x1 PUSH1 0x20 MSTORE PUSH1 0x40 PUSH1 0x0 KECCAK256 SWAP1 DUP1 MLOAD DUP1 MLOAD SWAP1 PUSH1 0x1 PUSH1 0x1 PUSH1 0x40 SHL SUB DUP3 GT PUSH2 0x583 JUMPI DUP2 SWAP1 PUSH2 0x1F11 DUP6 SLOAD PUSH2 0x2845 JUMP JUMPDEST PUSH1 0x1F DUP2 GT PUSH2 0x2266 JUMPI JUMPDEST POP PUSH1 0x20 SWAP1 PUSH1 0x1F DUP4 GT PUSH1 0x1 EQ PUSH2 0x21FA JUMPI PUSH1 0x0 SWAP3 PUSH2 0x21EF JUMPI JUMPDEST POP POP DUP2 PUSH1 0x1 SHL SWAP2 PUSH1 0x0 NOT SWAP1 PUSH1 0x3 SHL SHR NOT AND OR DUP3 SSTORE JUMPDEST PUSH1 0x20 DUP2 ADD MLOAD DUP1 MLOAD SWAP1 PUSH1 0x1 PUSH1 0x1 PUSH1 0x40 SHL SUB DUP3 GT PUSH2 0x583 JUMPI DUP2 SWAP1 PUSH2 0x1F6B PUSH1 0x1 DUP7 ADD SLOAD PUSH2 0x2845 JUMP JUMPDEST PUSH1 0x1F DUP2 GT PUSH2 0x219C JUMPI JUMPDEST POP PUSH1 0x20 SWAP1 PUSH1 0x1F DUP4 GT PUSH1 0x1 EQ PUSH2 0x212F JUMPI PUSH1 0x0 SWAP3 PUSH2 0x2124 JUMPI JUMPDEST POP POP DUP2 PUSH1 0x1 SHL SWAP2 PUSH1 0x0 NOT SWAP1 PUSH1 0x3 SHL SHR NOT AND OR PUSH1 0x1 DUP4 ADD SSTORE JUMPDEST PUSH1 0x40 DUP2 ADD MLOAD DUP1 MLOAD SWAP1 PUSH1 0x1 PUSH1 0x1 PUSH1 0x40 SHL SUB DUP3 GT PUSH2 0x583 JUMPI PUSH2 0x1FC6 PUSH1 0x2 DUP6 ADD SLOAD PUSH2 0x2845 JUMP JUMPDEST PUSH1 0x1F DUP2 GT PUSH2 0x20DD JUMPI JUMPDEST POP PUSH1 0x20 SWAP1 PUSH1 0x1F DUP4 GT PUSH1 0x1 EQ PUSH2 0x2069 JUMPI PUSH1 0x0 DUP1 MLOAD PUSH1 0x20 PUSH2 0x2CBF DUP4 CODECOPY DUP2 MLOAD SWAP2 MSTORE SWAP10 SWAP9 SWAP8 SWAP6 SWAP4 DUP4 PUSH2 0x49E SWAP9 SWAP7 SWAP5 PUSH1 0xB SWAP5 PUSH2 0x160 SWAP5 PUSH1 0x0 SWAP3 PUSH2 0x4A3 JUMPI POP POP DUP2 PUSH1 0x1 SHL SWAP2 PUSH1 0x0 NOT SWAP1 PUSH1 0x3 SHL SHR NOT AND OR PUSH1 0x2 DUP6 ADD SSTORE PUSH1 0x3 DUP5 ADD PUSH1 0x1 DUP1 PUSH1 0xA0 SHL SUB PUSH1 0x60 DUP4 ADD MLOAD AND PUSH1 0x1 PUSH1 0x1 PUSH1 0x60 SHL SUB PUSH1 0xA0 SHL DUP3 SLOAD AND OR SWAP1 SSTORE PUSH1 0x80 DUP2 ADD MLOAD PUSH1 0x4 DUP6 ADD SSTORE PUSH2 0x441 PUSH1 0xA0 DUP3 ADD MLOAD ISZERO ISZERO PUSH1 0x5 DUP7 ADD SWAP1 PUSH1 0xFF DUP1 NOT DUP4 SLOAD AND SWAP2 ISZERO ISZERO AND OR SWAP1 SSTORE JUMP JUMPDEST SWAP1 PUSH1 0x2 DUP6 ADD PUSH1 0x0 MSTORE PUSH1 0x20 PUSH1 0x0 KECCAK256 SWAP2 PUSH1 0x0 JUMPDEST PUSH1 0x1F NOT DUP6 AND DUP2 LT PUSH2 0x20C5 JUMPI POP SWAP4 PUSH1 0x1 DUP5 PUSH1 0xB SWAP5 PUSH2 0x160 SWAP5 PUSH1 0x0 DUP1 MLOAD PUSH1 0x20 PUSH2 0x2CBF DUP4 CODECOPY DUP2 MLOAD SWAP2 MSTORE SWAP15 SWAP14 SWAP13 SWAP11 SWAP9 PUSH2 0x49E SWAP13 SWAP11 SWAP9 PUSH1 0x1F NOT DUP2 AND LT PUSH2 0x50B JUMPI POP POP POP DUP2 SHL ADD PUSH1 0x2 DUP6 ADD SSTORE PUSH2 0x3F6 JUMP JUMPDEST SWAP2 SWAP3 PUSH1 0x20 PUSH1 0x1 DUP2 SWAP3 DUP7 DUP6 ADD MLOAD DUP2 SSTORE ADD SWAP5 ADD SWAP3 ADD PUSH2 0x207A JUMP JUMPDEST PUSH1 0x2 DUP6 ADD PUSH1 0x0 MSTORE PUSH1 0x20 PUSH1 0x0 KECCAK256 PUSH1 0x1F DUP5 ADD PUSH1 0x5 SHR DUP2 ADD PUSH1 0x20 DUP6 LT PUSH2 0x211D JUMPI JUMPDEST PUSH1 0x1F DUP4 ADD PUSH1 0x5 SHR DUP3 ADD DUP2 LT PUSH2 0x2111 JUMPI POP POP PUSH2 0x1FCF JUMP JUMPDEST PUSH1 0x0 DUP2 SSTORE PUSH1 0x1 ADD PUSH2 0x20FB JUMP JUMPDEST POP DUP1 PUSH2 0x20FB JUMP JUMPDEST ADD MLOAD SWAP1 POP DUP12 DUP1 PUSH2 0x1F8B JUMP JUMPDEST PUSH1 0x1 DUP7 ADD PUSH1 0x0 SWAP1 DUP2 MSTORE PUSH1 0x20 DUP2 KECCAK256 SWAP4 POP PUSH1 0x1F NOT DUP6 AND SWAP1 JUMPDEST DUP2 DUP2 LT PUSH2 0x2184 JUMPI POP SWAP1 DUP5 PUSH1 0x1 SWAP6 SWAP5 SWAP4 SWAP3 LT PUSH2 0x216B JUMPI JUMPDEST POP POP POP DUP2 SHL ADD PUSH1 0x1 DUP4 ADD SSTORE PUSH2 0x1FA3 JUMP JUMPDEST ADD MLOAD PUSH1 0x0 NOT PUSH1 0xF8 DUP5 PUSH1 0x3 SHL AND SHR NOT AND SWAP1 SSTORE DUP12 DUP1 DUP1 PUSH2 0x215B JUMP JUMPDEST SWAP3 SWAP4 PUSH1 0x20 PUSH1 0x1 DUP2 SWAP3 DUP8 DUP7 ADD MLOAD DUP2 SSTORE ADD SWAP6 ADD SWAP4 ADD PUSH2 0x2145 JUMP JUMPDEST SWAP1 SWAP2 POP PUSH1 0x1 DUP6 ADD PUSH1 0x0 MSTORE PUSH1 0x20 PUSH1 0x0 KECCAK256 PUSH1 0x1F DUP5 ADD PUSH1 0x5 SHR DUP2 ADD PUSH1 0x20 DUP6 LT PUSH2 0x21E8 JUMPI JUMPDEST SWAP1 DUP5 SWAP4 SWAP3 SWAP2 JUMPDEST PUSH1 0x1F DUP4 ADD PUSH1 0x5 SHR DUP3 ADD DUP2 LT PUSH2 0x21D9 JUMPI POP POP PUSH2 0x1F74 JUMP JUMPDEST PUSH1 0x0 DUP2 SSTORE DUP6 SWAP5 POP PUSH1 0x1 ADD PUSH2 0x21C3 JUMP JUMPDEST POP DUP1 PUSH2 0x21BD JUMP JUMPDEST ADD MLOAD SWAP1 POP DUP12 DUP1 PUSH2 0x1F31 JUMP JUMPDEST SWAP3 POP DUP5 PUSH1 0x0 MSTORE PUSH1 0x20 PUSH1 0x0 KECCAK256 SWAP1 PUSH1 0x0 SWAP4 JUMPDEST PUSH1 0x1F NOT DUP5 AND DUP6 LT PUSH2 0x224B JUMPI PUSH1 0x1 SWAP5 POP DUP4 PUSH1 0x1F NOT DUP2 AND LT PUSH2 0x2232 JUMPI JUMPDEST POP POP POP DUP2 SHL ADD DUP3 SSTORE PUSH2 0x1F46 JUMP JUMPDEST ADD MLOAD PUSH1 0x0 NOT PUSH1 0xF8 DUP5 PUSH1 0x3 SHL AND SHR NOT AND SWAP1 SSTORE DUP12 DUP1 DUP1 PUSH2 0x2225 JUMP JUMPDEST DUP2 DUP2 ADD MLOAD DUP4 SSTORE PUSH1 0x20 SWAP5 DUP6 ADD SWAP5 PUSH1 0x1 SWAP1 SWAP4 ADD SWAP3 SWAP1 SWAP2 ADD SWAP1 PUSH2 0x220A JUMP JUMPDEST SWAP1 SWAP2 POP DUP5 PUSH1 0x0 MSTORE PUSH1 0x20 PUSH1 0x0 KECCAK256 PUSH1 0x1F DUP5 ADD PUSH1 0x5 SHR DUP2 ADD PUSH1 0x20 DUP6 LT PUSH2 0x22AF JUMPI JUMPDEST SWAP1 DUP5 SWAP4 SWAP3 SWAP2 JUMPDEST PUSH1 0x1F DUP4 ADD PUSH1 0x5 SHR DUP3 ADD DUP2 LT PUSH2 0x22A0 JUMPI POP POP PUSH2 0x1F1A JUMP JUMPDEST PUSH1 0x0 DUP2 SSTORE DUP6 SWAP5 POP PUSH1 0x1 ADD PUSH2 0x228A JUMP JUMPDEST POP DUP1 PUSH2 0x2284 JUMP JUMPDEST PUSH1 0x3 PUSH1 0xFF DUP3 PUSH1 0xA8 SHR AND LT ISZERO PUSH2 0x8A3 JUMPI PUSH2 0x22D7 PUSH1 0x1 PUSH1 0xFF DUP4 PUSH1 0xA8 SHR AND EQ PUSH2 0x2ADD JUMP JUMPDEST PUSH1 0x40 MLOAD PUSH4 0x625E3581 PUSH1 0xE0 SHL DUP2 MSTORE PUSH1 0xA0 PUSH1 0x4 DUP3 ADD MSTORE SWAP1 PUSH1 0x20 SWAP1 DUP3 SWAP1 DUP2 DUP1 PUSH2 0x2301 PUSH1 0xA4 DUP3 ADD DUP9 DUP16 PUSH2 0x2A2D JUMP JUMPDEST PUSH1 0x84 DUP1 CALLDATALOAD PUSH1 0x24 DUP5 ADD MSTORE PUSH1 0xA4 CALLDATALOAD PUSH1 0x44 DUP5 ADD MSTORE PUSH1 0xC4 CALLDATALOAD PUSH1 0x64 DUP5 ADD MSTORE PUSH1 0xE4 CALLDATALOAD SWAP1 DUP4 ADD MSTORE SUB SWAP2 PUSH1 0x1 PUSH1 0x1 PUSH1 0xA0 SHL SUB AND GAS STATICCALL SWAP1 DUP2 ISZERO PUSH2 0x897 JUMPI PUSH1 0x0 SWAP2 PUSH2 0x2443 JUMPI JUMPDEST POP DUP1 ISZERO PUSH2 0x23A8 JUMPI PUSH1 0x4 SLOAD SWAP1 PUSH1 0x1 DUP3 ADD DUP3 GT PUSH2 0x804 JUMPI PUSH2 0x23A2 SWAP2 PUSH32 0x97721077B22FA56307BA4170B24CDBFE73942066BEDD3E641694B154DA21B6E1 PUSH1 0x40 MLOAD PUSH1 0x40 DUP2 MSTORE DUP1 PUSH1 0x1 PUSH2 0x7ED PUSH1 0x40 DUP4 ADD PUSH1 0x40 SWAP1 PUSH1 0x6 DUP2 MSTORE PUSH6 0x4C6567616379 PUSH1 0xD0 SHL PUSH1 0x20 DUP3 ADD MSTORE ADD SWAP1 JUMP JUMPDEST DUP9 PUSH2 0x1E07 JUMP JUMPDEST PUSH1 0x4 SLOAD SWAP1 PUSH1 0x1 DUP3 ADD DUP3 GT PUSH2 0x804 JUMPI PUSH2 0x23A2 SWAP2 PUSH32 0xB6D16A30085036D50EFF56F37A53AED7799B984D49B452BC080DCC6742CA36B9 PUSH1 0x40 MLOAD PUSH1 0x60 DUP2 MSTORE DUP1 PUSH1 0x1 PUSH2 0x2432 PUSH2 0x2409 PUSH1 0x60 DUP5 ADD PUSH1 0x40 SWAP1 PUSH1 0x6 DUP2 MSTORE PUSH6 0x4C6567616379 PUSH1 0xD0 SHL PUSH1 0x20 DUP3 ADD MSTORE ADD SWAP1 JUMP JUMPDEST DUP4 DUP2 SUB PUSH1 0x20 DUP6 ADD MSTORE PUSH1 0x40 SWAP1 PUSH1 0xD DUP2 MSTORE PUSH13 0x24B73B30B634B210383937B7B3 PUSH1 0x99 SHL PUSH1 0x20 DUP3 ADD MSTORE ADD SWAP1 JUMP JUMPDEST SWAP5 TIMESTAMP PUSH1 0x40 DUP5 ADD MSTORE ADD SWAP4 SUB SWAP1 LOG2 PUSH2 0x2B3A JUMP JUMPDEST PUSH2 0x245C SWAP2 POP PUSH1 0x20 RETURNDATASIZE PUSH1 0x20 GT PUSH2 0x890 JUMPI PUSH2 0x882 DUP2 DUP4 PUSH2 0x289B JUMP JUMPDEST DUP10 PUSH2 0x233D JUMP JUMPDEST PUSH2 0x2476 PUSH1 0x1 PUSH1 0x1 PUSH1 0xA0 SHL SUB DUP3 AND ISZERO ISZERO PUSH2 0x2A9E JUMP JUMPDEST PUSH2 0x1DF8 JUMP JUMPDEST CALLVALUE PUSH2 0x134 JUMPI PUSH1 0x20 CALLDATASIZE PUSH1 0x3 NOT ADD SLT PUSH2 0x134 JUMPI PUSH1 0x4 CALLDATALOAD PUSH1 0x0 MSTORE PUSH1 0x1 PUSH1 0x20 MSTORE PUSH1 0xA0 PUSH1 0x40 PUSH1 0x0 KECCAK256 PUSH2 0x160 PUSH1 0x40 MLOAD SWAP2 PUSH2 0x24AE DUP4 PUSH2 0x287F JUMP JUMPDEST PUSH2 0x24B7 DUP2 PUSH2 0x28BC JUMP JUMPDEST DUP4 MSTORE PUSH2 0x24C5 PUSH1 0x1 DUP3 ADD PUSH2 0x28BC JUMP JUMPDEST PUSH1 0x20 DUP5 ADD MSTORE PUSH2 0x24D6 PUSH1 0x2 DUP3 ADD PUSH2 0x28BC JUMP JUMPDEST PUSH1 0x40 DUP5 ADD MSTORE PUSH1 0x1 DUP1 DUP6 SHL SUB PUSH1 0x3 DUP3 ADD SLOAD AND PUSH1 0x60 DUP5 ADD MSTORE PUSH1 0x4 DUP2 ADD SLOAD PUSH1 0x80 DUP5 ADD MSTORE PUSH1 0xFF PUSH1 0x5 DUP3 ADD SLOAD AND ISZERO ISZERO DUP5 DUP5 ADD MSTORE PUSH1 0x6 DUP2 ADD SLOAD PUSH1 0xC0 DUP5 ADD MSTORE PUSH1 0x7 DUP2 ADD SLOAD SWAP3 DUP4 PUSH1 0xE0 DUP3 ADD MSTORE PUSH1 0x8 DUP3 ADD SLOAD DUP1 PUSH2 0x100 DUP4 ADD MSTORE PUSH1 0x9 DUP4 ADD SLOAD SWAP2 DUP3 PUSH2 0x120 DUP3 ADD MSTORE PUSH1 0xB PUSH1 0xA DUP6 ADD SLOAD SWAP5 DUP6 PUSH2 0x140 DUP5 ADD MSTORE ADD SLOAD SWAP5 DUP6 SWAP2 ADD MSTORE PUSH1 0x40 MLOAD SWAP5 DUP6 MSTORE PUSH1 0x20 DUP6 ADD MSTORE PUSH1 0x40 DUP5 ADD MSTORE PUSH1 0x60 DUP4 ADD MSTORE PUSH1 0x80 DUP3 ADD MSTORE RETURN JUMPDEST CALLVALUE PUSH2 0x134 JUMPI PUSH1 0x20 CALLDATASIZE PUSH1 0x3 NOT ADD SLT PUSH2 0x134 JUMPI PUSH2 0x257E PUSH2 0x2802 JUMP JUMPDEST CALLER PUSH1 0x0 MSTORE PUSH1 0x3 PUSH1 0x20 MSTORE PUSH2 0x2598 PUSH1 0xFF PUSH1 0x40 PUSH1 0x0 KECCAK256 SLOAD AND PUSH2 0x29F0 JUMP JUMPDEST PUSH1 0x6 DUP1 SLOAD PUSH1 0x1 PUSH1 0x1 PUSH1 0xA0 SHL SUB NOT AND PUSH1 0x1 PUSH1 0x1 PUSH1 0xA0 SHL SUB SWAP3 SWAP1 SWAP3 AND SWAP2 SWAP1 SWAP2 OR SWAP1 SSTORE STOP JUMPDEST CALLVALUE PUSH2 0x134 JUMPI PUSH1 0x0 CALLDATASIZE PUSH1 0x3 NOT ADD SLT PUSH2 0x134 JUMPI PUSH1 0x5 SLOAD PUSH1 0x40 MLOAD PUSH1 0x1 PUSH1 0x1 PUSH1 0xA0 SHL SUB SWAP1 SWAP2 AND DUP2 MSTORE PUSH1 0x20 SWAP1 RETURN JUMPDEST CALLVALUE PUSH2 0x134 JUMPI PUSH1 0x20 DUP1 PUSH1 0x3 NOT CALLDATASIZE ADD SLT PUSH2 0x134 JUMPI PUSH1 0x4 CALLDATALOAD CALLER PUSH1 0x0 MSTORE PUSH1 0x3 DUP3 MSTORE PUSH2 0x2611 PUSH1 0xFF PUSH1 0x40 PUSH1 0x0 KECCAK256 SLOAD AND PUSH2 0x29F0 JUMP JUMPDEST DUP1 PUSH1 0x0 MSTORE PUSH1 0x1 DUP3 MSTORE PUSH1 0x4 PUSH1 0x40 PUSH1 0x0 KECCAK256 ADD SLOAD ISZERO PUSH2 0x2706 JUMPI DUP1 PUSH1 0x0 MSTORE PUSH1 0x2 DUP3 MSTORE PUSH1 0x40 PUSH1 0x0 KECCAK256 CALLER PUSH1 0x0 MSTORE DUP3 MSTORE PUSH1 0xFF PUSH1 0x40 PUSH1 0x0 KECCAK256 SLOAD AND PUSH2 0x26CE JUMPI DUP1 PUSH1 0x0 MSTORE PUSH1 0x2 DUP3 MSTORE PUSH1 0x40 PUSH1 0x0 KECCAK256 CALLER PUSH1 0x0 MSTORE DUP3 MSTORE PUSH1 0x40 PUSH1 0x0 KECCAK256 PUSH1 0x1 PUSH1 0xFF NOT DUP3 SLOAD AND OR SWAP1 SSTORE DUP1 PUSH1 0x0 MSTORE PUSH1 0x1 DUP3 MSTORE PUSH1 0x6 PUSH1 0x40 PUSH1 0x0 KECCAK256 ADD DUP1 SLOAD SWAP1 PUSH1 0x1 DUP3 ADD DUP1 SWAP3 GT PUSH2 0x804 JUMPI SSTORE DUP1 PUSH1 0x0 MSTORE PUSH1 0x1 DUP3 MSTORE PUSH1 0x6 PUSH1 0x40 PUSH1 0x0 KECCAK256 ADD SLOAD SWAP2 PUSH1 0x40 MLOAD SWAP3 DUP4 MSTORE TIMESTAMP SWAP1 DUP4 ADD MSTORE PUSH32 0x9F77029216D2715228BAE995E8BC0C2CF90BC82A87B1F0C569EF8EF50A465DD1 PUSH1 0x40 CALLER SWAP4 LOG3 STOP JUMPDEST PUSH1 0x40 MLOAD PUSH3 0x461BCD PUSH1 0xE5 SHL DUP2 MSTORE PUSH1 0x4 DUP2 ADD DUP4 SWAP1 MSTORE PUSH1 0x10 PUSH1 0x24 DUP3 ADD MSTORE PUSH16 0x105B1C9958591E48185C1C1C9BDD9959 PUSH1 0x82 SHL PUSH1 0x44 DUP3 ADD MSTORE PUSH1 0x64 SWAP1 REVERT JUMPDEST PUSH1 0x40 MLOAD PUSH3 0x461BCD PUSH1 0xE5 SHL DUP2 MSTORE PUSH1 0x4 DUP2 ADD DUP4 SWAP1 MSTORE PUSH1 0x11 PUSH1 0x24 DUP3 ADD MSTORE PUSH17 0x14995C5D595CDD081B9BDD08199BDD5B99 PUSH1 0x7A SHL PUSH1 0x44 DUP3 ADD MSTORE PUSH1 0x64 SWAP1 REVERT JUMPDEST CALLVALUE PUSH2 0x134 JUMPI PUSH1 0x20 CALLDATASIZE PUSH1 0x3 NOT ADD SLT PUSH2 0x134 JUMPI PUSH1 0x1 PUSH1 0x1 PUSH1 0xA0 SHL SUB PUSH2 0x2760 PUSH2 0x2802 JUMP JUMPDEST AND PUSH1 0x0 MSTORE PUSH1 0x3 PUSH1 0x20 MSTORE PUSH1 0x20 PUSH1 0xFF PUSH1 0x40 PUSH1 0x0 KECCAK256 SLOAD AND PUSH1 0x40 MLOAD SWAP1 ISZERO ISZERO DUP2 MSTORE RETURN JUMPDEST CALLVALUE PUSH2 0x134 JUMPI PUSH1 0x0 CALLDATASIZE PUSH1 0x3 NOT ADD SLT PUSH2 0x134 JUMPI PUSH1 0xFF PUSH1 0x5 SLOAD PUSH1 0xA8 SHR AND PUSH1 0x40 MLOAD PUSH1 0x3 DUP3 LT ISZERO PUSH2 0x8A3 JUMPI PUSH1 0x20 SWAP2 DUP2 MSTORE RETURN JUMPDEST CALLVALUE PUSH2 0x134 JUMPI PUSH1 0x20 CALLDATASIZE PUSH1 0x3 NOT ADD SLT PUSH2 0x134 JUMPI PUSH1 0x4 CALLDATALOAD DUP1 ISZERO ISZERO DUP1 SWAP2 SUB PUSH2 0x134 JUMPI CALLER PUSH1 0x0 MSTORE PUSH1 0x3 PUSH1 0x20 MSTORE PUSH2 0x27E3 PUSH1 0xFF PUSH1 0x40 PUSH1 0x0 KECCAK256 SLOAD AND PUSH2 0x29F0 JUMP JUMPDEST PUSH1 0x5 DUP1 SLOAD PUSH1 0xFF PUSH1 0xA0 SHL NOT AND PUSH1 0xA0 SWAP3 SWAP1 SWAP3 SHL PUSH1 0xFF PUSH1 0xA0 SHL AND SWAP2 SWAP1 SWAP2 OR SWAP1 SSTORE STOP JUMPDEST PUSH1 0x4 CALLDATALOAD SWAP1 PUSH1 0x1 PUSH1 0x1 PUSH1 0xA0 SHL SUB DUP3 AND DUP3 SUB PUSH2 0x134 JUMPI JUMP JUMPDEST SWAP2 DUP2 PUSH1 0x1F DUP5 ADD SLT ISZERO PUSH2 0x134 JUMPI DUP3 CALLDATALOAD SWAP2 PUSH1 0x1 PUSH1 0x1 PUSH1 0x40 SHL SUB DUP4 GT PUSH2 0x134 JUMPI PUSH1 0x20 DUP4 DUP2 DUP7 ADD SWAP6 ADD ADD GT PUSH2 0x134 JUMPI JUMP JUMPDEST SWAP1 PUSH1 0x1 DUP3 DUP2 SHR SWAP3 AND DUP1 ISZERO PUSH2 0x2875 JUMPI JUMPDEST PUSH1 0x20 DUP4 LT EQ PUSH2 0x285F JUMPI JUMP JUMPDEST PUSH4 0x4E487B71 PUSH1 0xE0 SHL PUSH1 0x0 MSTORE PUSH1 0x22 PUSH1 0x4 MSTORE PUSH1 0x24 PUSH1 0x0 REVERT JUMPDEST SWAP2 PUSH1 0x7F AND SWAP2 PUSH2 0x2854 JUMP JUMPDEST PUSH2 0x180 DUP2 ADD SWAP1 DUP2 LT PUSH1 0x1 PUSH1 0x1 PUSH1 0x40 SHL SUB DUP3 GT OR PUSH2 0x583 JUMPI PUSH1 0x40 MSTORE JUMP JUMPDEST SWAP1 PUSH1 0x1F DUP1 NOT SWAP2 ADD AND DUP2 ADD SWAP1 DUP2 LT PUSH1 0x1 PUSH1 0x1 PUSH1 0x40 SHL SUB DUP3 GT OR PUSH2 0x583 JUMPI PUSH1 0x40 MSTORE JUMP JUMPDEST SWAP1 PUSH1 0x40 MLOAD SWAP2 DUP3 PUSH1 0x0 DUP3 SLOAD SWAP3 PUSH2 0x28D0 DUP5 PUSH2 0x2845 JUMP JUMPDEST SWAP1 DUP2 DUP5 MSTORE PUSH1 0x1 SWAP5 DUP6 DUP2 AND SWAP1 DUP2 PUSH1 0x0 EQ PUSH2 0x293F JUMPI POP PUSH1 0x1 EQ PUSH2 0x28FC JUMPI JUMPDEST POP POP PUSH2 0x28FA SWAP3 POP SUB DUP4 PUSH2 0x289B JUMP JUMPDEST JUMP JUMPDEST SWAP1 SWAP4 SWAP2 POP PUSH1 0x0 MSTORE PUSH1 0x20 SWAP1 DUP2 PUSH1 0x0 KECCAK256 SWAP4 PUSH1 0x0 SWAP2 JUMPDEST DUP2 DUP4 LT PUSH2 0x2927 JUMPI POP POP PUSH2 0x28FA SWAP4 POP DUP3 ADD ADD CODESIZE DUP1 PUSH2 0x28EC JUMP JUMPDEST DUP6 SLOAD DUP9 DUP5 ADD DUP6 ADD MSTORE SWAP5 DUP6 ADD SWAP5 DUP8 SWAP5 POP SWAP2 DUP4 ADD SWAP2 PUSH2 0x290F JUMP JUMPDEST SWAP2 POP POP PUSH2 0x28FA SWAP5 POP PUSH1 0x20 SWAP3 POP PUSH1 0xFF NOT AND DUP3 DUP5 ADD MSTORE ISZERO ISZERO PUSH1 0x5 SHL DUP3 ADD ADD CODESIZE DUP1 PUSH2 0x28EC JUMP JUMPDEST PUSH1 0x0 JUMPDEST DUP4 DUP2 LT PUSH2 0x2975 JUMPI POP POP PUSH1 0x0 SWAP2 ADD MSTORE JUMP JUMPDEST DUP2 DUP2 ADD MLOAD DUP4 DUP3 ADD MSTORE PUSH1 0x20 ADD PUSH2 0x2965 JUMP JUMPDEST SWAP1 PUSH1 0x20 SWAP2 PUSH2 0x299E DUP2 MLOAD DUP1 SWAP3 DUP2 DUP6 MSTORE DUP6 DUP1 DUP7 ADD SWAP2 ADD PUSH2 0x2962 JUMP JUMPDEST PUSH1 0x1F ADD PUSH1 0x1F NOT AND ADD ADD SWAP1 JUMP JUMPDEST SWAP3 SWAP2 SWAP3 PUSH1 0x1 PUSH1 0x1 PUSH1 0x40 SHL SUB DUP3 GT PUSH2 0x583 JUMPI PUSH1 0x40 MLOAD SWAP2 PUSH2 0x29D3 PUSH1 0x1F DUP3 ADD PUSH1 0x1F NOT AND PUSH1 0x20 ADD DUP5 PUSH2 0x289B JUMP JUMPDEST DUP3 SWAP5 DUP2 DUP5 MSTORE DUP2 DUP4 ADD GT PUSH2 0x134 JUMPI DUP3 DUP2 PUSH1 0x20 SWAP4 DUP5 PUSH1 0x0 SWAP7 ADD CALLDATACOPY ADD ADD MSTORE JUMP JUMPDEST ISZERO PUSH2 0x29F7 JUMPI JUMP JUMPDEST PUSH1 0x40 MLOAD PUSH3 0x461BCD PUSH1 0xE5 SHL DUP2 MSTORE PUSH1 0x20 PUSH1 0x4 DUP3 ADD MSTORE PUSH1 0xE PUSH1 0x24 DUP3 ADD MSTORE PUSH14 0x139BDD08185D5D1A1BDC9A5E9959 PUSH1 0x92 SHL PUSH1 0x44 DUP3 ADD MSTORE PUSH1 0x64 SWAP1 REVERT JUMPDEST SWAP1 DUP1 PUSH1 0x20 SWAP4 SWAP3 DUP2 DUP5 MSTORE DUP5 DUP5 ADD CALLDATACOPY PUSH1 0x0 DUP3 DUP3 ADD DUP5 ADD MSTORE PUSH1 0x1F ADD PUSH1 0x1F NOT AND ADD ADD SWAP1 JUMP JUMPDEST PUSH1 0x0 NOT DUP2 EQ PUSH2 0x804 JUMPI PUSH1 0x1 ADD SWAP1 JUMP JUMPDEST SWAP3 SWAP1 SWAP4 PUSH2 0x2A7C PUSH1 0x60 SWAP6 PUSH2 0x2A8A SWAP5 SWAP10 SWAP9 SWAP8 SWAP10 PUSH1 0x80 DUP8 MSTORE PUSH1 0x80 DUP8 ADD SWAP2 PUSH2 0x2A2D JUMP JUMPDEST SWAP2 DUP5 DUP4 SUB PUSH1 0x20 DUP7 ADD MSTORE PUSH2 0x2A2D JUMP JUMPDEST PUSH1 0x1 PUSH1 0x1 PUSH1 0xA0 SHL SUB SWAP1 SWAP6 AND PUSH1 0x40 DUP3 ADD MSTORE ADD MSTORE JUMP JUMPDEST ISZERO PUSH2 0x2AA5 JUMPI JUMP JUMPDEST PUSH1 0x40 MLOAD PUSH3 0x461BCD PUSH1 0xE5 SHL DUP2 MSTORE PUSH1 0x20 PUSH1 0x4 DUP3 ADD MSTORE PUSH1 0x10 PUSH1 0x24 DUP3 ADD MSTORE PUSH16 0x15995C9A599A595C881B9BDD081CD95D PUSH1 0x82 SHL PUSH1 0x44 DUP3 ADD MSTORE PUSH1 0x64 SWAP1 REVERT JUMPDEST ISZERO PUSH2 0x2AE4 JUMPI JUMP JUMPDEST PUSH1 0x40 MLOAD PUSH3 0x461BCD PUSH1 0xE5 SHL DUP2 MSTORE PUSH1 0x20 PUSH1 0x4 DUP3 ADD MSTORE PUSH1 0x16 PUSH1 0x24 DUP3 ADD MSTORE PUSH22 0xECCAE4D2CCD2CAE440E8F2E0CA40DAD2E6DAC2E8C6D PUSH1 0x53 SHL PUSH1 0x44 DUP3 ADD MSTORE PUSH1 0x64 SWAP1 REVERT JUMPDEST SWAP1 DUP2 PUSH1 0x20 SWAP2 SUB SLT PUSH2 0x134 JUMPI MLOAD DUP1 ISZERO ISZERO DUP2 SUB PUSH2 0x134 JUMPI SWAP1 JUMP JUMPDEST ISZERO PUSH2 0x2B41 JUMPI JUMP JUMPDEST PUSH1 0x40 MLOAD PUSH3 0x461BCD PUSH1 0xE5 SHL DUP2 MSTORE PUSH1 0x20 PUSH1 0x4 DUP3 ADD MSTORE PUSH1 0xD PUSH1 0x24 DUP3 ADD MSTORE PUSH13 0x24B73B30B634B210383937B7B3 PUSH1 0x99 SHL PUSH1 0x44 DUP3 ADD MSTORE PUSH1 0x64 SWAP1 REVERT JUMPDEST SWAP1 PUSH2 0x120 DUP3 ADD SWAP2 PUSH1 0x40 DUP1 PUSH1 0x64 DUP4 CALLDATACOPY PUSH1 0xA4 PUSH1 0x0 DUP4 DUP4 ADD JUMPDEST PUSH1 0x2 DUP3 LT PUSH2 0x2BAD JUMPI POP POP POP PUSH2 0x100 DUP3 PUSH2 0x164 SWAP3 PUSH2 0x124 PUSH1 0xC0 PUSH1 0x20 SWAP7 ADD CALLDATACOPY ADD CALLDATACOPY JUMP JUMPDEST DUP4 DUP1 DUP3 DUP2 DUP7 PUSH1 0x1 SWAP6 CALLDATACOPY ADD SWAP4 ADD SWAP2 ADD SWAP1 SWAP2 PUSH2 0x2B8C JUMP JUMPDEST PUSH1 0x60 DUP1 DUP3 MSTORE PUSH1 0x7 SWAP1 DUP3 ADD MSTORE PUSH7 0x23B937BA34189B PUSH1 0xC9 SHL PUSH1 0x80 DUP3 ADD MSTORE PUSH1 0xA0 PUSH1 0x20 DUP3 ADD DUP2 SWAP1 MSTORE PUSH1 0xD SWAP1 DUP3 ADD MSTORE PUSH13 0x24B73B30B634B210383937B7B3 PUSH1 0x99 SHL PUSH1 0xC0 DUP3 ADD MSTORE SWAP2 SWAP1 PUSH1 0x40 PUSH1 0xE0 DUP5 ADD SWAP4 ADD MSTORE JUMP JUMPDEST PUSH1 0x40 DUP1 PUSH1 0x64 DUP4 CALLDATACOPY PUSH1 0xA4 PUSH1 0x0 DUP4 DUP4 ADD JUMPDEST PUSH1 0x2 DUP3 LT PUSH2 0x2C45 JUMPI POP POP POP SWAP1 PUSH2 0x120 SWAP2 PUSH2 0x124 PUSH1 0xC0 DUP4 ADD CALLDATACOPY PUSH1 0x20 PUSH2 0x164 PUSH2 0x100 DUP4 ADD CALLDATACOPY ADD SWAP1 JUMP JUMPDEST DUP4 DUP1 DUP3 DUP2 DUP7 PUSH1 0x1 SWAP6 CALLDATACOPY ADD SWAP4 ADD SWAP2 ADD SWAP1 SWAP2 PUSH2 0x2C1E JUMP JUMPDEST PUSH1 0x6 SLOAD PUSH1 0x1 PUSH1 0x1 PUSH1 0xA0 SHL SUB AND SWAP1 DUP2 ISZERO PUSH2 0x2CB7 JUMPI PUSH1 0x20 SWAP1 PUSH1 0x24 PUSH1 0x40 MLOAD DUP1 SWAP5 DUP2 SWAP4 PUSH4 0xBB6BAEA7 PUSH1 0xE0 SHL DUP4 MSTORE PUSH1 0x4 DUP4 ADD MSTORE GAS STATICCALL SWAP1 DUP2 ISZERO PUSH2 0x897 JUMPI PUSH1 0x0 SWAP2 PUSH2 0x2C9C JUMPI POP SWAP1 JUMP JUMPDEST PUSH2 0x2CB4 SWAP2 POP PUSH1 0x20 RETURNDATASIZE DUP2 GT PUSH2 0x890 JUMPI PUSH2 0x882 DUP2 DUP4 PUSH2 0x289B JUMP JUMPDEST SWAP1 JUMP JUMPDEST POP POP PUSH1 0x1 SWAP1 JUMP INVALID 0x21 0xF7 0x5D 0x5D 0xEF CODESIZE 0x26 0x5C 0xC8 EXP PUSH24 0x515B127D27C9121B1CE435E4B3451C1748761F345DA26469 PUSH17 0x6673582212207A0D663C2264BAB05A28E6 0xDD PUSH17 0x2BDAEC92DE79B1FDE9D402A84E6AECF416 0xC8 0xC5 PUSH5 0x736F6C6343 STOP ADDMOD EQ STOP CALLER "},"methodIdentifiers":{"approveRedaction(uint256)":"2544a470","authorizedUsers(address)":"1828983a","getRedactionProofDetails(uint256)":"3b1cde37","isNullifierValid(bytes32)":"bb6baea7","medicalRecords(string)":"c9f020ac","nextRequestId()":"6a84a985","nullifierRegistry()":"b870676c","redactionApprovals(uint256,address)":"e73e07d6","redactionRequests(uint256)":"ad4bae23","requestDataRedaction(string,string,string)":"d0173cf5","requestDataRedactionWithFullProofs(string,string,string,uint256[2],uint256[2][2],uint256[2],uint256[1],bytes32,bytes32,bytes32,bytes32)":"477f17bc","requestDataRedactionWithGroth16Proof(string,string,string,uint256[2],uint256[2][2],uint256[2],uint256[1])":"ed1d0fdc","requestDataRedactionWithProof(string,string,string,bytes,bytes32,bytes32,bytes32,bytes32)":"43e23864","requireProofs()":"fa74b97c","setAuthorized(address,bool)":"711bf9b2","setNullifierRegistry(address)":"2f9e3b29","setRequireProofs(bool)":"11e5b5a9","setVerifier(address)":"5437988d","setVerifierType(uint8)":"8b2d2390","storeMedicalData(string,string,bytes32)":"65ade204","verifier()":"2b7ac3f3","verifierType()":"170227f7"}}}}}