{"src/NullifierRegistry.sol":{"NullifierRegistry":{"abi":[{"inputs":[],"stateMutability":"nonpayable","type":"constructor"},{"anonymous":false,"inputs":[{"indexed":false,"internalType":"uint256","name":"count","type":"uint256"},{"indexed":false,"internalType":"uint256","name":"timestamp","type":"uint256"}],"name":"NullifierBatchRecorded","type":"event"},{"anonymous":false,"inputs":[{"indexed":true,"internalType":"bytes32","name":"nullifier","type":"bytes32"},{"indexed":false,"internalType":"uint256","name":"previousTimestamp","type":"uint256"},{"indexed":false,"internalType":"address","name":"originalSubmitter","type":"address"}],"name":"NullifierCheckFailed","type":"event"},{"anonymous":false,"inputs":[{"indexed":true,"internalType":"bytes32","name":"nullifier","type":"bytes32"},{"indexed":true,"internalType":"address","name":"submitter","type":"address"},{"indexed":false,"internalType":"uint256","name":"timestamp","type":"uint256"}],"name":"NullifierRecorded","type":"event"},{"inputs":[],"name":"admin","outputs":[{"internalType":"address","name":"","type":"address"}],"stateMutability":"view","type":"function"},{"inputs":[{"internalType":"bytes32[]","name":"nullifiers","type":"bytes32[]"}],"name":"areNullifiersValid","outputs":[{"internalType":"bool[]","name":"","type":"bool[]"}],"stateMutability":"view","type":"function"},{"inputs":[{"internalType":"bytes32","name":"nullifier","type":"bytes32"}],"name":"getNullifierInfo","outputs":[{"internalType":"uint256","name":"timestamp","type":"uint256"},{"internalType":"address","name":"submitter","type":"address"}],"stateMutability":"view","type":"function"},{"inputs":[{"internalType":"bytes32","name":"nullifier","type":"bytes32"}],"name":"isNullifierValid","outputs":[{"internalType":"bool","name":"","type":"bool"}],"stateMutability":"view","type":"function"},{"inputs":[{"internalType":"bytes32","name":"","type":"bytes32"}],"name":"nullifierSubmitter","outputs":[{"internalType":"address","name":"","type":"address"}],"stateMutability":"view","type":"function"},{"inputs":[],"name":"pause","outputs":[],"stateMutability":"nonpayable","type":"function"},{"inputs":[],"name":"paused","outputs":[{"internalType":"bool","name":"","type":"bool"}],"stateMutability":"view","type":"function"},{"inputs":[{"internalType":"bytes32","name":"nullifier","type":"bytes32"}],"name":"recordNullifier","outputs":[{"internalType":"bool","name":"","type":"bool"}],"stateMutability":"nonpayable","type":"function"},{"inputs":[{"internalType":"bytes32[]","name":"nullifiers","type":"bytes32[]"}],"name":"recordNullifierBatch","outputs":[{"internalType":"uint256","name":"successCount","type":"uint256"}],"stateMutability":"nonpayable","type":"function"},{"inputs":[{"internalType":"address","name":"newAdmin","type":"address"}],"name":"transferAdmin","outputs":[],"stateMutability":"nonpayable","type":"function"},{"inputs":[],"name":"unpause","outputs":[],"stateMutability":"nonpayable","type":"function"},{"inputs":[{"internalType":"bytes32","name":"","type":"bytes32"}],"name":"usedNullifiers","outputs":[{"internalType":"uint256","name":"","type":"uint256"}],"stateMutability":"view","type":"function"}],"evm":{"bytecode":{"linkReferences":{},"object":"6080806040523461002f57600280546001600160a81b0319163360ff60a01b19161790556107fa90816100358239f35b600080fdfe608060408181526004918236101561001657600080fd5b600092833560e01c918263206137aa1461057e575081633f4ba83a146105495781635c975abb146105225781636fdb20a1146104ef57816375829def1461045b5781638456cb591461042057816396ede63d14610294578163bb6baea714610268578163de350f6e14610157578163ec52fbdc14610112578163f2da723c146100d4575063f851a440146100a957600080fd5b346100d057816003193601126100d05760025490516001600160a01b039091168152602090f35b5080fd5b82843461010f57602036600319011261010f575061010660209261010060ff60025460a01c16156105f7565b35610638565b90519015158152f35b80fd5b839150346100d05760203660031901126100d05735815260208181528282205460018252918390205492519182526001600160a01b0390921691810191909152604090f35b839150346100d057601f61016a366105a5565b939092610176856106f5565b9386519484199485910116850185811067ffffffffffffffff82111761025557879695939497528483526101a9856106f5565b946020978885019601368737845b8181106101ff575050505083519485948186019282875251809352850193925b8281106101e657505050500390f35b83511515855286955093810193928101926001016101d7565b6102108183859b9897999a9b610748565b35855284865288852054158751821015610242579061023791878260051b8a010152610723565b9796959394976101b7565b634e487b7160e01b865260328552602486fd5b634e487b7160e01b845260418352602484fd5b9050346102905760203660031901126102905760209282913581528084522054159051908152f35b8280fd5b82843461010f57906102a5366105a5565b9190926102ba60ff60025460a01c16156105f7565b8092815b8183106102fc57602085857f8448af1ba9d4b12707fae26a317e2c2c75b0430976e3ec4362c237d784a40f438180518481524286820152a151908152f35b90919361030a858488610748565b3582526020828152848320546103a55761039e916103989161032d88878b610748565b358552848152428786205561034388878b610748565b3585526001815286852080546001600160a01b0319163317905561036888878b610748565b357fed1fe28d990b851dbd21073a0e36b4b62ac99ee2ed386a1f352ce814ddf42c618851924284523393a3610723565b94610723565b91906102be565b9461039e91957fc6019125ed35c481b03aea875d5a37d8b18d0fbdc60ae31bdce520ee635040628860016103da858984610748565b35936103e7868a85610748565b3588528781526103fc868a8c8b205495610748565b358852528786205488519182526001600160a01b03166020820152604090a2610723565b833461010f578060031936011261010f57600254610448336001600160a01b0383161461076e565b60ff60a01b1916600160a01b1760025580f35b91905034610290576020366003190112610290576001600160a01b038235818116939192908490036104eb57610497600254938416331461076e565b83156104b05750506001600160a01b0319161760025580f35b906020606492519162461bcd60e51b83528201526015602482015274496e76616c69642061646d696e206164647265737360581b6044820152fd5b8480fd5b9050346102905760203660031901126102905735825260016020908152918190205490516001600160a01b039091168152f35b5050346100d057816003193601126100d05760209060ff60025460a01c1690519015158152f35b833461010f578060031936011261010f57600254610571336001600160a01b0383161461076e565b60ff60a01b191660025580f35b929150346105a15760203660031901126105a15735835260208381529220548152f35b8380fd5b9060206003198301126105f25760043567ffffffffffffffff928382116105f257806023830112156105f25781600401359384116105f25760248460051b830101116105f2576024019190565b600080fd5b156105fe57565b60405162461bcd60e51b815260206004820152601260248201527110dbdb9d1c9858dd081a5cc81c185d5cd95960721b6044820152606490fd5b60009080825281602052604080832054806106aa5750828282939452806020524282822055600160205220336bffffffffffffffffffffffff60a01b82541617905551904282527fed1fe28d990b851dbd21073a0e36b4b62ac99ee2ed386a1f352ce814ddf42c6160203393a3600190565b600160209081528285205492519182526001600160a01b03909216918101919091527fc6019125ed35c481b03aea875d5a37d8b18d0fbdc60ae31bdce520ee6350406290604090a290565b67ffffffffffffffff811161070d5760051b60200190565b634e487b7160e01b600052604160045260246000fd5b60001981146107325760010190565b634e487b7160e01b600052601160045260246000fd5b91908110156107585760051b0190565b634e487b7160e01b600052603260045260246000fd5b1561077557565b60405162461bcd60e51b815260206004820152602160248201527f4f6e6c792061646d696e2063616e2063616c6c20746869732066756e6374696f6044820152603760f91b6064820152608490fdfea26469706673582212200f3ef6bab80952329fb7d28a7e2657f4e52c94634b72a224cb474af54e35924364736f6c63430008140033","opcodes":"PUSH1 0x80 DUP1 PUSH1 0x40 MSTORE CALLVALUE PUSH2 0x2F JUMPI PUSH1 0x2 DUP1 SLOAD PUSH1 0x1 PUSH1 0x1 PUSH1 0xA8 SHL SUB NOT AND CALLER PUSH1 0xFF PUSH1 0xA0 SHL NOT AND OR SWAP1 SSTORE PUSH2 0x7FA SWAP1 DUP2 PUSH2 0x35 DUP3 CODECOPY RETURN JUMPDEST PUSH1 0x0 DUP1 REVERT INVALID PUSH1 0x80 PUSH1 0x40 DUP2 DUP2 MSTORE PUSH1 0x4 SWAP2 DUP3 CALLDATASIZE LT ISZERO PUSH2 0x16 JUMPI PUSH1 0x0 DUP1 REVERT JUMPDEST PUSH1 0x0 SWAP3 DUP4 CALLDATALOAD PUSH1 0xE0 SHR SWAP2 DUP3 PUSH4 0x206137AA EQ PUSH2 0x57E JUMPI POP DUP2 PUSH4 0x3F4BA83A EQ PUSH2 0x549 JUMPI DUP2 PUSH4 0x5C975ABB EQ PUSH2 0x522 JUMPI DUP2 PUSH4 0x6FDB20A1 EQ PUSH2 0x4EF JUMPI DUP2 PUSH4 0x75829DEF EQ PUSH2 0x45B JUMPI DUP2 PUSH4 0x8456CB59 EQ PUSH2 0x420 JUMPI DUP2 PUSH4 0x96EDE63D EQ PUSH2 0x294 JUMPI DUP2 PUSH4 0xBB6BAEA7 EQ PUSH2 0x268 JUMPI DUP2 PUSH4 0xDE350F6E EQ PUSH2 0x157 JUMPI DUP2 PUSH4 0xEC52FBDC EQ PUSH2 0x112 JUMPI DUP2 PUSH4 0xF2DA723C EQ PUSH2 0xD4 JUMPI POP PUSH4 0xF851A440 EQ PUSH2 0xA9 JUMPI PUSH1 0x0 DUP1 REVERT JUMPDEST CALLVALUE PUSH2 0xD0 JUMPI DUP2 PUSH1 0x3 NOT CALLDATASIZE ADD SLT PUSH2 0xD0 JUMPI PUSH1 0x2 SLOAD SWAP1 MLOAD PUSH1 0x1 PUSH1 0x1 PUSH1 0xA0 SHL SUB SWAP1 SWAP2 AND DUP2 MSTORE PUSH1 0x20 SWAP1 RETURN JUMPDEST POP DUP1 REVERT JUMPDEST DUP3 DUP5 CALLVALUE PUSH2 0x10F JUMPI PUSH1 0x20 CALLDATASIZE PUSH1 0x3 NOT ADD SLT PUSH2 0x10F JUMPI POP PUSH2 0x106 PUSH1 0x20 SWAP3 PUSH2 0x100 PUSH1 0xFF PUSH1 0x2 SLOAD PUSH1 0xA0 SHR AND ISZERO PUSH2 0x5F7 JUMP JUMPDEST CALLDATALOAD PUSH2 0x638 JUMP JUMPDEST SWAP1 MLOAD SWAP1 ISZERO ISZERO DUP2 MSTORE RETURN JUMPDEST DUP1 REVERT JUMPDEST DUP4 SWAP2 POP CALLVALUE PUSH2 0xD0 JUMPI PUSH1 0x20 CALLDATASIZE PUSH1 0x3 NOT ADD SLT PUSH2 0xD0 JUMPI CALLDATALOAD DUP2 MSTORE PUSH1 0x20 DUP2 DUP2 MSTORE DUP3 DUP3 KECCAK256 SLOAD PUSH1 0x1 DUP3 MSTORE SWAP2 DUP4 SWAP1 KECCAK256 SLOAD SWAP3 MLOAD SWAP2 DUP3 MSTORE PUSH1 0x1 PUSH1 0x1 PUSH1 0xA0 SHL SUB SWAP1 SWAP3 AND SWAP2 DUP2 ADD SWAP2 SWAP1 SWAP2 MSTORE PUSH1 0x40 SWAP1 RETURN JUMPDEST DUP4 SWAP2 POP CALLVALUE PUSH2 0xD0 JUMPI PUSH1 0x1F PUSH2 0x16A CALLDATASIZE PUSH2 0x5A5 JUMP JUMPDEST SWAP4 SWAP1 SWAP3 PUSH2 0x176 DUP6 PUSH2 0x6F5 JUMP JUMPDEST SWAP4 DUP7 MLOAD SWAP5 DUP5 NOT SWAP5 DUP6 SWAP2 ADD AND DUP6 ADD DUP6 DUP2 LT PUSH8 0xFFFFFFFFFFFFFFFF DUP3 GT OR PUSH2 0x255 JUMPI DUP8 SWAP7 SWAP6 SWAP4 SWAP5 SWAP8 MSTORE DUP5 DUP4 MSTORE PUSH2 0x1A9 DUP6 PUSH2 0x6F5 JUMP JUMPDEST SWAP5 PUSH1 0x20 SWAP8 DUP9 DUP6 ADD SWAP7 ADD CALLDATASIZE DUP8 CALLDATACOPY DUP5 JUMPDEST DUP2 DUP2 LT PUSH2 0x1FF JUMPI POP POP POP POP DUP4 MLOAD SWAP5 DUP6 SWAP5 DUP2 DUP7 ADD SWAP3 DUP3 DUP8 MSTORE MLOAD DUP1 SWAP4 MSTORE DUP6 ADD SWAP4 SWAP3 JUMPDEST DUP3 DUP2 LT PUSH2 0x1E6 JUMPI POP POP POP POP SUB SWAP1 RETURN JUMPDEST DUP4 MLOAD ISZERO ISZERO DUP6 MSTORE DUP7 SWAP6 POP SWAP4 DUP2 ADD SWAP4 SWAP3 DUP2 ADD SWAP3 PUSH1 0x1 ADD PUSH2 0x1D7 JUMP JUMPDEST PUSH2 0x210 DUP2 DUP4 DUP6 SWAP12 SWAP9 SWAP8 SWAP10 SWAP11 SWAP12 PUSH2 0x748 JUMP JUMPDEST CALLDATALOAD DUP6 MSTORE DUP5 DUP7 MSTORE DUP9 DUP6 KECCAK256 SLOAD ISZERO DUP8 MLOAD DUP3 LT ISZERO PUSH2 0x242 JUMPI SWAP1 PUSH2 0x237 SWAP2 DUP8 DUP3 PUSH1 0x5 SHL DUP11 ADD ADD MSTORE PUSH2 0x723 JUMP JUMPDEST SWAP8 SWAP7 SWAP6 SWAP4 SWAP5 SWAP8 PUSH2 0x1B7 JUMP JUMPDEST PUSH4 0x4E487B71 PUSH1 0xE0 SHL DUP7 MSTORE PUSH1 0x32 DUP6 MSTORE PUSH1 0x24 DUP7 REVERT JUMPDEST PUSH4 0x4E487B71 PUSH1 0xE0 SHL DUP5 MSTORE PUSH1 0x41 DUP4 MSTORE PUSH1 0x24 DUP5 REVERT JUMPDEST SWAP1 POP CALLVALUE PUSH2 0x290 JUMPI PUSH1 0x20 CALLDATASIZE PUSH1 0x3 NOT ADD SLT PUSH2 0x290 JUMPI PUSH1 0x20 SWAP3 DUP3 SWAP2 CALLDATALOAD DUP2 MSTORE DUP1 DUP5 MSTORE KECCAK256 SLOAD ISZERO SWAP1 MLOAD SWAP1 DUP2 MSTORE RETURN JUMPDEST DUP3 DUP1 REVERT JUMPDEST DUP3 DUP5 CALLVALUE PUSH2 0x10F JUMPI SWAP1 PUSH2 0x2A5 CALLDATASIZE PUSH2 0x5A5 JUMP JUMPDEST SWAP2 SWAP1 SWAP3 PUSH2 0x2BA PUSH1 0xFF PUSH1 0x2 SLOAD PUSH1 0xA0 SHR AND ISZERO PUSH2 0x5F7 JUMP JUMPDEST DUP1 SWAP3 DUP2 JUMPDEST DUP2 DUP4 LT PUSH2 0x2FC JUMPI PUSH1 0x20 DUP6 DUP6 PUSH32 0x8448AF1BA9D4B12707FAE26A317E2C2C75B0430976E3EC4362C237D784A40F43 DUP2 DUP1 MLOAD DUP5 DUP2 MSTORE TIMESTAMP DUP7 DUP3 ADD MSTORE LOG1 MLOAD SWAP1 DUP2 MSTORE RETURN JUMPDEST SWAP1 SWAP2 SWAP4 PUSH2 0x30A DUP6 DUP5 DUP9 PUSH2 0x748 JUMP JUMPDEST CALLDATALOAD DUP3 MSTORE PUSH1 0x20 DUP3 DUP2 MSTORE DUP5 DUP4 KECCAK256 SLOAD PUSH2 0x3A5 JUMPI PUSH2 0x39E SWAP2 PUSH2 0x398 SWAP2 PUSH2 0x32D DUP9 DUP8 DUP12 PUSH2 0x748 JUMP JUMPDEST CALLDATALOAD DUP6 MSTORE DUP5 DUP2 MSTORE TIMESTAMP DUP8 DUP7 KECCAK256 SSTORE PUSH2 0x343 DUP9 DUP8 DUP12 PUSH2 0x748 JUMP JUMPDEST CALLDATALOAD DUP6 MSTORE PUSH1 0x1 DUP2 MSTORE DUP7 DUP6 KECCAK256 DUP1 SLOAD PUSH1 0x1 PUSH1 0x1 PUSH1 0xA0 SHL SUB NOT AND CALLER OR SWAP1 SSTORE PUSH2 0x368 DUP9 DUP8 DUP12 PUSH2 0x748 JUMP JUMPDEST CALLDATALOAD PUSH32 0xED1FE28D990B851DBD21073A0E36B4B62AC99EE2ED386A1F352CE814DDF42C61 DUP9 MLOAD SWAP3 TIMESTAMP DUP5 MSTORE CALLER SWAP4 LOG3 PUSH2 0x723 JUMP JUMPDEST SWAP5 PUSH2 0x723 JUMP JUMPDEST SWAP2 SWAP1 PUSH2 0x2BE JUMP JUMPDEST SWAP5 PUSH2 0x39E SWAP2 SWAP6 PUSH32 0xC6019125ED35C481B03AEA875D5A37D8B18D0FBDC60AE31BDCE520EE63504062 DUP9 PUSH1 0x1 PUSH2 0x3DA DUP6 DUP10 DUP5 PUSH2 0x748 JUMP JUMPDEST CALLDATALOAD SWAP4 PUSH2 0x3E7 DUP7 DUP11 DUP6 PUSH2 0x748 JUMP JUMPDEST CALLDATALOAD DUP9 MSTORE DUP8 DUP2 MSTORE PUSH2 0x3FC DUP7 DUP11 DUP13 DUP12 KECCAK256 SLOAD SWAP6 PUSH2 0x748 JUMP JUMPDEST CALLDATALOAD DUP9 MSTORE MSTORE DUP8 DUP7 KECCAK256 SLOAD DUP9 MLOAD SWAP2 DUP3 MSTORE PUSH1 0x1 PUSH1 0x1 PUSH1 0xA0 SHL SUB AND PUSH1 0x20 DUP3 ADD MSTORE PUSH1 0x40 SWAP1 LOG2 PUSH2 0x723 JUMP JUMPDEST DUP4 CALLVALUE PUSH2 0x10F JUMPI DUP1 PUSH1 0x3 NOT CALLDATASIZE ADD SLT PUSH2 0x10F JUMPI PUSH1 0x2 SLOAD PUSH2 0x448 CALLER PUSH1 0x1 PUSH1 0x1 PUSH1 0xA0 SHL SUB DUP4 AND EQ PUSH2 0x76E JUMP JUMPDEST PUSH1 0xFF PUSH1 0xA0 SHL NOT AND PUSH1 0x1 PUSH1 0xA0 SHL OR PUSH1 0x2 SSTORE DUP1 RETURN JUMPDEST SWAP2 SWAP1 POP CALLVALUE PUSH2 0x290 JUMPI PUSH1 0x20 CALLDATASIZE PUSH1 0x3 NOT ADD SLT PUSH2 0x290 JUMPI PUSH1 0x1 PUSH1 0x1 PUSH1 0xA0 SHL SUB DUP3 CALLDATALOAD DUP2 DUP2 AND SWAP4 SWAP2 SWAP3 SWAP1 DUP5 SWAP1 SUB PUSH2 0x4EB JUMPI PUSH2 0x497 PUSH1 0x2 SLOAD SWAP4 DUP5 AND CALLER EQ PUSH2 0x76E JUMP JUMPDEST DUP4 ISZERO PUSH2 0x4B0 JUMPI POP POP PUSH1 0x1 PUSH1 0x1 PUSH1 0xA0 SHL SUB NOT AND OR PUSH1 0x2 SSTORE DUP1 RETURN JUMPDEST SWAP1 PUSH1 0x20 PUSH1 0x64 SWAP3 MLOAD SWAP2 PUSH3 0x461BCD PUSH1 0xE5 SHL DUP4 MSTORE DUP3 ADD MSTORE PUSH1 0x15 PUSH1 0x24 DUP3 ADD MSTORE PUSH21 0x496E76616C69642061646D696E2061646472657373 PUSH1 0x58 SHL PUSH1 0x44 DUP3 ADD MSTORE REVERT JUMPDEST DUP5 DUP1 REVERT JUMPDEST SWAP1 POP CALLVALUE PUSH2 0x290 JUMPI PUSH1 0x20 CALLDATASIZE PUSH1 0x3 NOT ADD SLT PUSH2 0x290 JUMPI CALLDATALOAD DUP3 MSTORE PUSH1 0x1 PUSH1 0x20 SWAP1 DUP2 MSTORE SWAP2 DUP2 SWAP1 KECCAK256 SLOAD SWAP1 MLOAD PUSH1 0x1 PUSH1 0x1 PUSH1 0xA0 SHL SUB SWAP1 SWAP2 AND DUP2 MSTORE RETURN JUMPDEST POP POP CALLVALUE PUSH2 0xD0 JUMPI DUP2 PUSH1 0x3 NOT CALLDATASIZE ADD SLT PUSH2 0xD0 JUMPI PUSH1 0x20 SWAP1 PUSH1 0xFF PUSH1 0x2 SLOAD PUSH1 0xA0 SHR AND SWAP1 MLOAD SWAP1 ISZERO ISZERO DUP2 MSTORE RETURN JUMPDEST DUP4 CALLVALUE PUSH2 0x10F JUMPI DUP1 PUSH1 0x3 NOT CALLDATASIZE ADD SLT PUSH2 0x10F JUMPI PUSH1 0x2 SLOAD PUSH2 0x571 CALLER PUSH1 0x1 PUSH1 0x1 PUSH1 0xA0 SHL SUB DUP4 AND EQ PUSH2 0x76E JUMP JUMPDEST PUSH1 0xFF PUSH1 0xA0 SHL NOT AND PUSH1 0x2 SSTORE DUP1 RETURN JUMPDEST SWAP3 SWAP2 POP CALLVALUE PUSH2 0x5A1 JUMPI PUSH1 0x20 CALLDATASIZE PUSH1 0x3 NOT ADD SLT PUSH2 0x5A1 JUMPI CALLDATALOAD DUP4 MSTORE PUSH1 0x20 DUP4 DUP2 MSTORE SWAP3 KECCAK256 SLOAD DUP2 MSTORE RETURN JUMPDEST DUP4 DUP1 REVERT JUMPDEST SWAP1 PUSH1 0x20 PUSH1 0x3 NOT DUP4 ADD SLT PUSH2 0x5F2 JUMPI PUSH1 0x4 CALLDATALOAD PUSH8 0xFFFFFFFFFFFFFFFF SWAP3 DUP4 DUP3 GT PUSH2 0x5F2 JUMPI DUP1 PUSH1 0x23 DUP4 ADD SLT ISZERO PUSH2 0x5F2 JUMPI DUP2 PUSH1 0x4 ADD CALLDATALOAD SWAP4 DUP5 GT PUSH2 0x5F2 JUMPI PUSH1 0x24 DUP5 PUSH1 0x5 SHL DUP4 ADD ADD GT PUSH2 0x5F2 JUMPI PUSH1 0x24 ADD SWAP2 SWAP1 JUMP JUMPDEST PUSH1 0x0 DUP1 REVERT JUMPDEST ISZERO PUSH2 0x5FE JUMPI JUMP JUMPDEST PUSH1 0x40 MLOAD PUSH3 0x461BCD PUSH1 0xE5 SHL DUP2 MSTORE PUSH1 0x20 PUSH1 0x4 DUP3 ADD MSTORE PUSH1 0x12 PUSH1 0x24 DUP3 ADD MSTORE PUSH18 0x10DBDB9D1C9858DD081A5CC81C185D5CD959 PUSH1 0x72 SHL PUSH1 0x44 DUP3 ADD MSTORE PUSH1 0x64 SWAP1 REVERT JUMPDEST PUSH1 0x0 SWAP1 DUP1 DUP3 MSTORE DUP2 PUSH1 0x20 MSTORE PUSH1 0x40 DUP1 DUP4 KECCAK256 SLOAD DUP1 PUSH2 0x6AA JUMPI POP DUP3 DUP3 DUP3 SWAP4 SWAP5 MSTORE DUP1 PUSH1 0x20 MSTORE TIMESTAMP DUP3 DUP3 KECCAK256 SSTORE PUSH1 0x1 PUSH1 0x20 MSTORE KECCAK256 CALLER PUSH12 0xFFFFFFFFFFFFFFFFFFFFFFFF PUSH1 0xA0 SHL DUP3 SLOAD AND OR SWAP1 SSTORE MLOAD SWAP1 TIMESTAMP DUP3 MSTORE PUSH32 0xED1FE28D990B851DBD21073A0E36B4B62AC99EE2ED386A1F352CE814DDF42C61 PUSH1 0x20 CALLER SWAP4 LOG3 PUSH1 0x1 SWAP1 JUMP JUMPDEST PUSH1 0x1 PUSH1 0x20 SWAP1 DUP2 MSTORE DUP3 DUP6 KECCAK256 SLOAD SWAP3 MLOAD SWAP2 DUP3 MSTORE PUSH1 0x1 PUSH1 0x1 PUSH1 0xA0 SHL SUB SWAP1 SWAP3 AND SWAP2 DUP2 ADD SWAP2 SWAP1 SWAP2 MSTORE PUSH32 0xC6019125ED35C481B03AEA875D5A37D8B18D0FBDC60AE31BDCE520EE63504062 SWAP1 PUSH1 0x40 SWAP1 LOG2 SWAP1 JUMP JUMPDEST PUSH8 0xFFFFFFFFFFFFFFFF DUP2 GT PUSH2 0x70D JUMPI PUSH1 0x5 SHL PUSH1 0x20 ADD SWAP1 JUMP JUMPDEST PUSH4 0x4E487B71 PUSH1 0xE0 SHL PUSH1 0x0 MSTORE PUSH1 0x41 PUSH1 0x4 MSTORE PUSH1 0x24 PUSH1 0x0 REVERT JUMPDEST PUSH1 0x0 NOT DUP2 EQ PUSH2 0x732 JUMPI PUSH1 0x1 ADD SWAP1 JUMP JUMPDEST PUSH4 0x4E487B71 PUSH1 0xE0 SHL PUSH1 0x0 MSTORE PUSH1 0x11 PUSH1 0x4 MSTORE PUSH1 0x24 PUSH1 0x0 REVERT JUMPDEST SWAP2 SWAP1 DUP2 LT ISZERO PUSH2 0x758 JUMPI PUSH1 0x5 SHL ADD SWAP1 JUMP JUMPDEST PUSH4 0x4E487B71 PUSH1 0xE0 SHL PUSH1 0x0 MSTORE PUSH1 0x32 PUSH1 0x4 MSTORE PUSH1 0x24 PUSH1 0x0 REVERT JUMPDEST ISZERO PUSH2 0x775 JUMPI JUMP JUMPDEST PUSH1 0x40 MLOAD PUSH3 0x461BCD PUSH1 0xE5 SHL DUP2 MSTORE PUSH1 0x20 PUSH1 0x4 DUP3 ADD MSTORE PUSH1 0x21 PUSH1 0x24 DUP3 ADD MSTORE PUSH32 0x4F6E6C792061646D696E2063616E2063616C6C20746869732066756E6374696F PUSH1 0x44 DUP3 ADD MSTORE PUSH1 0x37 PUSH1 0xF9 SHL PUSH1 0x64 DUP3 ADD MSTORE PUSH1 0x84 SWAP1 REVERT INVALID LOG2 PUSH5 0x6970667358 0x22 SLT KECCAK256 0xF RETURNDATACOPY 0xF6 0xBA 0xB8 MULMOD MSTORE ORIGIN SWAP16 0xB7 0xD2 DUP11 PUSH31 0x2657F4E52C94634B72A224CB474AF54E35924364736F6C6343000814003300 "},"methodIdentifiers":{"admin()":"f851a440","areNullifiersValid(bytes32[])":"de350f6e","getNullifierInfo(bytes32)":"ec52fbdc","isNullifierValid(bytes32)":"bb6baea7","nullifierSubmitter(bytes32)":"6fdb20a1","pause()":"8456cb59","paused()":"5c975abb","recordNullifier(bytes32)":"f2da723c","recordNullifierBatch(bytes32[])":"96ede63d","transferAdmin(address)":"75829def","unpause()":"3f4ba83a","usedNullifiers(bytes32)":"206137aa"}}}}}