{
  "_format": "hh-sol-artifact-1",
  "contractName": "AlwaysFalseVerifier",
  "sourceName": "src/AlwaysFalseVerifier.sol",
  "abi": [
    {
      "inputs": [
        {
          "internalType": "bytes",
          "name": "",
          "type": "bytes"
        },
        {
          "internalType": "bytes32",
          "name": "",
          "type": "bytes32"
        },
        {
          "internalType": "bytes32",
          "name": "",
          "type": "bytes32"
        },
        {
          "internalType": "bytes32",
          "name": "",
          "type": "bytes32"
        },
        {
          "internalType": "bytes32",
          "name": "",
          "type": "bytes32"
        }
      ],
      "name": "verifyProof",
      "outputs": [
        {
          "internalType": "bool",
          "name": "",
          "type": "bool"
        }
      ],
      "stateMutability": "pure",
      "type": "function"
    }
  ],
  "bytecode": "0x608080604052346100155760ad908161001b8239f35b600080fdfe6080806040526004361015601257600080fd5b600090813560e01c63625e358114602857600080fd5b34606f5760a0366003190112606f5760043567ffffffffffffffff80821160735736602383011215607357816004013590811160735736910160240111606f576020918152f35b5080fd5b8380fdfea264697066735822122069002fe76eebf45d6c2bf63aaa779d2233e13b6993930a01047dc635e2d823a164736f6c63430008140033",
  "linkReferences": {},
  "deployedLinkReferences": {}
}