{
  "_format": "hh-sol-artifact-1",
  "contractName": "MedicalDataManager",
  "sourceName": "src/MedicalDataManager.sol",
  "abi": [
    {
      "inputs": [],
      "stateMutability": "nonpayable",
      "type": "constructor"
    },
    {
      "anonymous": false,
      "inputs": [
        {
          "indexed": true,
          "internalType": "string",
          "name": "patientId",
          "type": "string"
        },
        {
          "indexed": false,
          "internalType": "string",
          "name": "ipfsHash",
          "type": "string"
        },
        {
          "indexed": false,
          "internalType": "bytes32",
          "name": "ciphertextHash",
          "type": "bytes32"
        },
        {
          "indexed": false,
          "internalType": "uint256",
          "name": "timestamp",
          "type": "uint256"
        }
      ],
      "name": "DataStored",
      "type": "event"
    },
    {
      "anonymous": false,
      "inputs": [
        {
          "indexed": true,
          "internalType": "uint256",
          "name": "requestId",
          "type": "uint256"
        },
        {
          "indexed": true,
          "internalType": "address",
          "name": "approver",
          "type": "address"
        },
        {
          "indexed": false,
          "internalType": "uint256",
          "name": "approvals",
          "type": "uint256"
        },
        {
          "indexed": false,
          "internalType": "uint256",
          "name": "timestamp",
          "type": "uint256"
        }
      ],
      "name": "RedactionApproved",
      "type": "event"
    },
    {
      "anonymous": false,
      "inputs": [
        {
          "indexed": true,
          "internalType": "uint256",
          "name": "requestId",
          "type": "uint256"
        },
        {
          "indexed": true,
          "internalType": "string",
          "name": "patientId",
          "type": "string"
        },
        {
          "indexed": false,
          "internalType": "string",
          "name": "redactionType",
          "type": "string"
        },
        {
          "indexed": false,
          "internalType": "string",
          "name": "reason",
          "type": "string"
        },
        {
          "indexed": false,
          "internalType": "address",
          "name": "requester",
          "type": "address"
        },
        {
          "indexed": false,
          "internalType": "uint256",
          "name": "timestamp",
          "type": "uint256"
        }
      ],
      "name": "RedactionRequested",
      "type": "event"
    },
    {
      "inputs": [
        {
          "internalType": "uint256",
          "name": "requestId",
          "type": "uint256"
        }
      ],
      "name": "approveRedaction",
      "outputs": [],
      "stateMutability": "nonpayable",
      "type": "function"
    },
    {
      "inputs": [
        {
          "internalType": "address",
          "name": "",
          "type": "address"
        }
      ],
      "name": "authorizedUsers",
      "outputs": [
        {
          "internalType": "bool",
          "name": "",
          "type": "bool"
        }
      ],
      "stateMutability": "view",
      "type": "function"
    },
    {
      "inputs": [
        {
          "internalType": "string",
          "name": "",
          "type": "string"
        }
      ],
      "name": "medicalRecords",
      "outputs": [
        {
          "internalType": "string",
          "name": "ipfsHash",
          "type": "string"
        },
        {
          "internalType": "bytes32",
          "name": "ciphertextHash",
          "type": "bytes32"
        },
        {
          "internalType": "uint256",
          "name": "lastUpdated",
          "type": "uint256"
        }
      ],
      "stateMutability": "view",
      "type": "function"
    },
    {
      "inputs": [],
      "name": "nextRequestId",
      "outputs": [
        {
          "internalType": "uint256",
          "name": "",
          "type": "uint256"
        }
      ],
      "stateMutability": "view",
      "type": "function"
    },
    {
      "inputs": [
        {
          "internalType": "uint256",
          "name": "",
          "type": "uint256"
        },
        {
          "internalType": "address",
          "name": "",
          "type": "address"
        }
      ],
      "name": "redactionApprovals",
      "outputs": [
        {
          "internalType": "bool",
          "name": "",
          "type": "bool"
        }
      ],
      "stateMutability": "view",
      "type": "function"
    },
    {
      "inputs": [
        {
          "internalType": "uint256",
          "name": "",
          "type": "uint256"
        }
      ],
      "name": "redactionRequests",
      "outputs": [
        {
          "internalType": "string",
          "name": "patientId",
          "type": "string"
        },
        {
          "internalType": "string",
          "name": "redactionType",
          "type": "string"
        },
        {
          "internalType": "string",
          "name": "reason",
          "type": "string"
        },
        {
          "internalType": "address",
          "name": "requester",
          "type": "address"
        },
        {
          "internalType": "uint256",
          "name": "timestamp",
          "type": "uint256"
        },
        {
          "internalType": "bool",
          "name": "executed",
          "type": "bool"
        },
        {
          "internalType": "uint256",
          "name": "approvals",
          "type": "uint256"
        }
      ],
      "stateMutability": "view",
      "type": "function"
    },
    {
      "inputs": [
        {
          "internalType": "string",
          "name": "patientId",
          "type": "string"
        },
        {
          "internalType": "string",
          "name": "redactionType",
          "type": "string"
        },
        {
          "internalType": "string",
          "name": "reason",
          "type": "string"
        }
      ],
      "name": "requestDataRedaction",
      "outputs": [],
      "stateMutability": "nonpayable",
      "type": "function"
    },
    {
      "inputs": [
        {
          "internalType": "string",
          "name": "patientId",
          "type": "string"
        },
        {
          "internalType": "string",
          "name": "redactionType",
          "type": "string"
        },
        {
          "internalType": "string",
          "name": "reason",
          "type": "string"
        },
        {
          "internalType": "uint256[2]",
          "name": "pA",
          "type": "uint256[2]"
        },
        {
          "internalType": "uint256[2][2]",
          "name": "pB",
          "type": "uint256[2][2]"
        },
        {
          "internalType": "uint256[2]",
          "name": "pC",
          "type": "uint256[2]"
        },
        {
          "internalType": "uint256[1]",
          "name": "pubSignals",
          "type": "uint256[1]"
        }
      ],
      "name": "requestDataRedactionWithGroth16Proof",
      "outputs": [],
      "stateMutability": "nonpayable",
      "type": "function"
    },
    {
      "inputs": [
        {
          "internalType": "string",
          "name": "patientId",
          "type": "string"
        },
        {
          "internalType": "string",
          "name": "redactionType",
          "type": "string"
        },
        {
          "internalType": "string",
          "name": "reason",
          "type": "string"
        },
        {
          "internalType": "bytes",
          "name": "proof",
          "type": "bytes"
        },
        {
          "internalType": "bytes32",
          "name": "policyHash",
          "type": "bytes32"
        },
        {
          "internalType": "bytes32",
          "name": "merkleRoot",
          "type": "bytes32"
        },
        {
          "internalType": "bytes32",
          "name": "originalHash",
          "type": "bytes32"
        },
        {
          "internalType": "bytes32",
          "name": "redactedHash",
          "type": "bytes32"
        }
      ],
      "name": "requestDataRedactionWithProof",
      "outputs": [],
      "stateMutability": "nonpayable",
      "type": "function"
    },
    {
      "inputs": [],
      "name": "requireProofs",
      "outputs": [
        {
          "internalType": "bool",
          "name": "",
          "type": "bool"
        }
      ],
      "stateMutability": "view",
      "type": "function"
    },
    {
      "inputs": [
        {
          "internalType": "address",
          "name": "user",
          "type": "address"
        },
        {
          "internalType": "bool",
          "name": "enabled",
          "type": "bool"
        }
      ],
      "name": "setAuthorized",
      "outputs": [],
      "stateMutability": "nonpayable",
      "type": "function"
    },
    {
      "inputs": [
        {
          "internalType": "bool",
          "name": "value",
          "type": "bool"
        }
      ],
      "name": "setRequireProofs",
      "outputs": [],
      "stateMutability": "nonpayable",
      "type": "function"
    },
    {
      "inputs": [
        {
          "internalType": "address",
          "name": "verifierAddr",
          "type": "address"
        }
      ],
      "name": "setVerifier",
      "outputs": [],
      "stateMutability": "nonpayable",
      "type": "function"
    },
    {
      "inputs": [
        {
          "internalType": "uint8",
          "name": "mode",
          "type": "uint8"
        }
      ],
      "name": "setVerifierType",
      "outputs": [],
      "stateMutability": "nonpayable",
      "type": "function"
    },
    {
      "inputs": [
        {
          "internalType": "string",
          "name": "patientId",
          "type": "string"
        },
        {
          "internalType": "string",
          "name": "ipfsHash",
          "type": "string"
        },
        {
          "internalType": "bytes32",
          "name": "ciphertextHash",
          "type": "bytes32"
        }
      ],
      "name": "storeMedicalData",
      "outputs": [],
      "stateMutability": "nonpayable",
      "type": "function"
    },
    {
      "inputs": [],
      "name": "verifier",
      "outputs": [
        {
          "internalType": "address",
          "name": "",
          "type": "address"
        }
      ],
      "stateMutability": "view",
      "type": "function"
    },
    {
      "inputs": [],
      "name": "verifierType",
      "outputs": [
        {
          "internalType": "enum MedicalDataManager.VerifierType",
          "name": "",
          "type": "uint8"
        }
      ],
      "stateMutability": "view",
      "type": "function"
    }
  ],
  "bytecode": "0x608060405234801561001057600080fd5b50336000908152600360205260409020805460ff19166001179055611c8a8061003a6000396000f3fe608060405234801561001057600080fd5b506004361061010b5760003560e01c80636a84a985116100a2578063c9f020ac11610071578063c9f020ac1461029f578063d0173cf5146102c1578063e73e07d6146102d4578063ed1d0fdc14610302578063fa74b97c1461031557600080fd5b80636a84a98514610216578063711bf9b21461022d5780638b2d239014610266578063ad4bae231461027957600080fd5b80632b7ac3f3116100de5780632b7ac3f31461019557806343e23864146101c05780635437988d146101d357806365ade2041461020357600080fd5b806311e5b5a914610110578063170227f7146101255780631828983a1461014f5780632544a47014610182575b600080fd5b61012361011e36600461131e565b610329565b005b60055461013990600160a81b900460ff1681565b6040516101469190611358565b60405180910390f35b61017261015d36600461139c565b60036020526000908152604090205460ff1681565b6040519015158152602001610146565b6101236101903660046113b7565b61037f565b6005546101a8906001600160a01b031681565b6040516001600160a01b039091168152602001610146565b6101236101ce366004611419565b610503565b6101236101e136600461139c565b600580546001600160a01b0319166001600160a01b0392909216919091179055565b610123610211366004611519565b6108b6565b61021f60045481565b604051908152602001610146565b61012361023b36600461158d565b6001600160a01b03919091166000908152600360205260409020805460ff1916911515919091179055565b6101236102743660046115c4565b6109d3565b61028c6102873660046113b7565b610a55565b604051610146979695949392919061162d565b6102b26102ad3660046116ac565b610c38565b6040516101469392919061175d565b6101236102cf366004611782565b610ced565b6101726102e236600461181c565b600260209081526000928352604080842090915290825290205460ff1681565b610123610310366004611870565b610f65565b60055461017290600160a01b900460ff1681565b3360009081526003602052604090205460ff166103615760405162461bcd60e51b815260040161035890611959565b60405180910390fd5b60058054911515600160a01b0260ff60a01b19909216919091179055565b3360009081526003602052604090205460ff166103ae5760405162461bcd60e51b815260040161035890611959565b60008181526001602052604081206004015490036104025760405162461bcd60e51b815260206004820152601160248201527014995c5d595cdd081b9bdd08199bdd5b99607a1b6044820152606401610358565b600081815260026020908152604080832033845290915290205460ff161561045f5760405162461bcd60e51b815260206004820152601060248201526f105b1c9958591e48185c1c1c9bdd995960821b6044820152606401610358565b60008181526002602090815260408083203384528252808320805460ff191660019081179091558484529182905282206006018054919290916104a3908490611997565b909155505060008181526001602052604090819020600601549051339183917f9f77029216d2715228bae995e8bc0c2cf90bc82a87b1f0c569ef8ef50a465dd1916104f8914290918252602082015260400190565b60405180910390a350565b3360009081526003602052604090205460ff166105325760405162461bcd60e51b815260040161035890611959565b600554600160a01b900460ff161561058f576005546001600160a01b031661058f5760405162461bcd60e51b815260206004820152601060248201526f15995c9a599a595c881b9bdd081cd95d60821b6044820152606401610358565b6005546001600160a01b0316156106c3576001600554600160a81b900460ff1660028111156105c0576105c0611342565b146106065760405162461bcd60e51b81526020600482015260166024820152750eccae4d2ccd2cae440e8f2e0ca40dad2e6dac2e8c6d60531b6044820152606401610358565b60055460405163625e358160e01b81526000916001600160a01b03169063625e358190610641908a908a908a908a908a908a906004016119d3565b602060405180830381865afa15801561065e573d6000803e3d6000fd5b505050506040513d601f19601f820116820180604052508101906106829190611a0c565b9050806106c15760405162461bcd60e51b815260206004820152600d60248201526c24b73b30b634b210383937b7b360991b6044820152606401610358565b505b60006004600081546106d490611a29565b91905081905590506040518060e001604052808e8e8080601f016020809104026020016040519081016040528093929190818152602001838380828437600092019190915250505090825250604080516020601f8f018190048102820181019092528d815291810191908e908e9081908401838280828437600092019190915250505090825250604080516020601f8d018190048102820181019092528b815291810191908c908c9081908401838280828437600092018290525093855250503360208085019190915242604080860191909152606085018490526080909401839052858352600190525020815181906107ce9082611acb565b50602082015160018201906107e39082611acb565b50604082015160028201906107f89082611acb565b5060608201516003820180546001600160a01b0319166001600160a01b039092169190911790556080820151600482015560a082015160058201805460ff191691151591909117905560c09091015160069091015560405161085d908e908e90611b8b565b6040518091039020817f21f75d5def38265cc80a77515b127d27c9121b1ce435e4b3451c1748761f345d8d8d8d8d334260405161089f96959493929190611b9b565b60405180910390a350505050505050505050505050565b3360009081526003602052604090205460ff166108e55760405162461bcd60e51b815260040161035890611959565b604051806060016040528084848080601f0160208091040260200160405190810160405280939291908181526020018383808284376000920182905250938552505050602082018490524260409283015290516109459088908890611b8b565b908152604051908190036020019020815181906109629082611acb565b5060208201516001820155604091820151600290910155516109879086908690611b8b565b60405180910390207f43a6ff1417f4b1a76d33362796a2aa0deda65bd76c51679e352f2cce92f8fa07848484426040516109c49493929190611be1565b60405180910390a25050505050565b600260ff82161115610a165760405162461bcd60e51b815260206004820152600c60248201526b696e76616c6964206d6f646560a01b6044820152606401610358565b8060ff166002811115610a2b57610a2b611342565b6005805460ff60a81b1916600160a81b836002811115610a4d57610a4d611342565b021790555050565b600160205260009081526040902080548190610a7090611a42565b80601f0160208091040260200160405190810160405280929190818152602001828054610a9c90611a42565b8015610ae95780601f10610abe57610100808354040283529160200191610ae9565b820191906000526020600020905b815481529060010190602001808311610acc57829003601f168201915b505050505090806001018054610afe90611a42565b80601f0160208091040260200160405190810160405280929190818152602001828054610b2a90611a42565b8015610b775780601f10610b4c57610100808354040283529160200191610b77565b820191906000526020600020905b815481529060010190602001808311610b5a57829003601f168201915b505050505090806002018054610b8c90611a42565b80601f0160208091040260200160405190810160405280929190818152602001828054610bb890611a42565b8015610c055780601f10610bda57610100808354040283529160200191610c05565b820191906000526020600020905b815481529060010190602001808311610be857829003601f168201915b50505060038401546004850154600586015460069096015494956001600160a01b039092169490935060ff909116915087565b8051602081830181018051600082529282019190930120915280548190610c5e90611a42565b80601f0160208091040260200160405190810160405280929190818152602001828054610c8a90611a42565b8015610cd75780601f10610cac57610100808354040283529160200191610cd7565b820191906000526020600020905b815481529060010190602001808311610cba57829003601f168201915b5050505050908060010154908060020154905083565b3360009081526003602052604090205460ff16610d1c5760405162461bcd60e51b815260040161035890611959565b600554600160a01b900460ff168015610d3f57506005546001600160a01b031615155b15610d7d5760405162461bcd60e51b815260206004820152600e60248201526d141c9bdbd9881c995c5d5a5c995960921b6044820152606401610358565b6000600460008154610d8e90611a29565b9182905550604080516101006020601f8b01819004028201810190925260e081018981529293509182918a908a9081908501838280828437600092019190915250505090825250604080516020601f890181900481028201810190925287815291810191908890889081908401838280828437600092019190915250505090825250604080516020601f87018190048102820181019092528581529181019190869086908190840183828082843760009201829052509385525050336020808501919091524260408086019190915260608501849052608090940183905285835260019052502081518190610e839082611acb565b5060208201516001820190610e989082611acb565b5060408201516002820190610ead9082611acb565b5060608201516003820180546001600160a01b0319166001600160a01b039092169190911790556080820151600482015560a082015160058201805460ff191691151591909117905560c090910151600690910155604051610f129088908890611b8b565b6040518091039020817f21f75d5def38265cc80a77515b127d27c9121b1ce435e4b3451c1748761f345d878787873342604051610f5496959493929190611b9b565b60405180910390a350505050505050565b3360009081526003602052604090205460ff16610f945760405162461bcd60e51b815260040161035890611959565b600554600160a01b900460ff1615610ff1576005546001600160a01b0316610ff15760405162461bcd60e51b815260206004820152601060248201526f15995c9a599a595c881b9bdd081cd95d60821b6044820152606401610358565b6005546001600160a01b031615611121576002600554600160a81b900460ff16600281111561102257611022611342565b146110685760405162461bcd60e51b81526020600482015260166024820152750eccae4d2ccd2cae440e8f2e0ca40dad2e6dac2e8c6d60531b6044820152606401610358565b6005546040516343753b4d60e01b81526000916001600160a01b0316906343753b4d9061109f908890889088908890600401611c08565b602060405180830381865afa1580156110bc573d6000803e3d6000fd5b505050506040513d601f19601f820116820180604052508101906110e09190611a0c565b90508061111f5760405162461bcd60e51b815260206004820152600d60248201526c24b73b30b634b210383937b7b360991b6044820152606401610358565b505b600060046000815461113290611a29565b9182905550604080516101006020601f8f01819004028201810190925260e081018d81529293509182918e908e9081908501838280828437600092019190915250505090825250604080516020601f8d018190048102820181019092528b815291810191908c908c9081908401838280828437600092019190915250505090825250604080516020601f8b0181900481028201810190925289815291810191908a908a9081908401838280828437600092018290525093855250503360208085019190915242604080860191909152606085018490526080909401839052858352600190525020815181906112279082611acb565b506020820151600182019061123c9082611acb565b50604082015160028201906112519082611acb565b5060608201516003820180546001600160a01b0319166001600160a01b039092169190911790556080820151600482015560a082015160058201805460ff191691151591909117905560c0909101516006909101556040516112b6908c908c90611b8b565b6040518091039020817f21f75d5def38265cc80a77515b127d27c9121b1ce435e4b3451c1748761f345d8b8b8b8b33426040516112f896959493929190611b9b565b60405180910390a35050505050505050505050565b801515811461131b57600080fd5b50565b60006020828403121561133057600080fd5b813561133b8161130d565b9392505050565b634e487b7160e01b600052602160045260246000fd5b602081016003831061137a57634e487b7160e01b600052602160045260246000fd5b91905290565b80356001600160a01b038116811461139757600080fd5b919050565b6000602082840312156113ae57600080fd5b61133b82611380565b6000602082840312156113c957600080fd5b5035919050565b60008083601f8401126113e257600080fd5b50813567ffffffffffffffff8111156113fa57600080fd5b60208301915083602082850101111561141257600080fd5b9250929050565b6000806000806000806000806000806000806101008d8f03121561143c57600080fd5b67ffffffffffffffff8d35111561145257600080fd5b61145f8e8e358f016113d0565b909c509a5067ffffffffffffffff60208e0135111561147d57600080fd5b61148d8e60208f01358f016113d0565b909a50985067ffffffffffffffff60408e013511156114ab57600080fd5b6114bb8e60408f01358f016113d0565b909850965067ffffffffffffffff60608e013511156114d957600080fd5b6114e98e60608f01358f016113d0565b9c9f9b9e50999c989b979a96999860808101359760a0820135975060c0820135965060e090910135945092505050565b60008060008060006060868803121561153157600080fd5b853567ffffffffffffffff8082111561154957600080fd5b61155589838a016113d0565b9097509550602088013591508082111561156e57600080fd5b5061157b888289016113d0565b96999598509660400135949350505050565b600080604083850312156115a057600080fd5b6115a983611380565b915060208301356115b98161130d565b809150509250929050565b6000602082840312156115d657600080fd5b813560ff8116811461133b57600080fd5b6000815180845260005b8181101561160d576020818501810151868301820152016115f1565b506000602082860101526020601f19601f83011685010191505092915050565b60e08152600061164060e083018a6115e7565b8281036020840152611652818a6115e7565b9050828103604084015261166681896115e7565b6001600160a01b039790971660608401525050608081019390935290151560a083015260c0909101529392505050565b634e487b7160e01b600052604160045260246000fd5b6000602082840312156116be57600080fd5b813567ffffffffffffffff808211156116d657600080fd5b818401915084601f8301126116ea57600080fd5b8135818111156116fc576116fc611696565b604051601f8201601f19908116603f0116810190838211818310171561172457611724611696565b8160405282815287602084870101111561173d57600080fd5b826020860160208301376000928101602001929092525095945050505050565b60608152600061177060608301866115e7565b60208301949094525060400152919050565b6000806000806000806060878903121561179b57600080fd5b863567ffffffffffffffff808211156117b357600080fd5b6117bf8a838b016113d0565b909850965060208901359150808211156117d857600080fd5b6117e48a838b016113d0565b909650945060408901359150808211156117fd57600080fd5b5061180a89828a016113d0565b979a9699509497509295939492505050565b6000806040838503121561182f57600080fd5b8235915061183f60208401611380565b90509250929050565b806040810183101561185957600080fd5b92915050565b806020810183101561185957600080fd5b6000806000806000806000806000806101808b8d03121561189057600080fd5b8a3567ffffffffffffffff808211156118a857600080fd5b6118b48e838f016113d0565b909c509a5060208d01359150808211156118cd57600080fd5b6118d98e838f016113d0565b909a50985060408d01359150808211156118f257600080fd5b506118ff8d828e016113d0565b909750955061191390508c60608d01611848565b93506101208b018c81111561192757600080fd5b60a08c0193506119378d82611848565b9250506119488c6101608d0161185f565b90509295989b9194979a5092959850565b6020808252600e908201526d139bdd08185d5d1a1bdc9a5e995960921b604082015260600190565b634e487b7160e01b600052601160045260246000fd5b8082018082111561185957611859611981565b81835281816020850137506000828201602090810191909152601f909101601f19169091010190565b60a0815260006119e760a08301888a6119aa565b9050856020830152846040830152836060830152826080830152979650505050505050565b600060208284031215611a1e57600080fd5b815161133b8161130d565b600060018201611a3b57611a3b611981565b5060010190565b600181811c90821680611a5657607f821691505b602082108103611a7657634e487b7160e01b600052602260045260246000fd5b50919050565b601f821115611ac657600081815260208120601f850160051c81016020861015611aa35750805b601f850160051c820191505b81811015611ac257828155600101611aaf565b5050505b505050565b815167ffffffffffffffff811115611ae557611ae5611696565b611af981611af38454611a42565b84611a7c565b602080601f831160018114611b2e5760008415611b165750858301515b600019600386901b1c1916600185901b178555611ac2565b600085815260208120601f198616915b82811015611b5d57888601518255948401946001909101908401611b3e565b5085821015611b7b5787850151600019600388901b60f8161c191681555b5050505050600190811b01905550565b8183823760009101908152919050565b608081526000611baf60808301888a6119aa565b8281036020840152611bc28187896119aa565b6001600160a01b03959095166040840152505060600152949350505050565b606081526000611bf56060830186886119aa565b6020830194909452506040015292915050565b61012081016040808784378083018660005b6002811015611c3757838284379183019190830190600101611c1a565b505050808560c0850137506020836101008401379594505050505056fea26469706673582212205b8a0899218c71475ef94c44d5c25e6fd0915fb212ee3dfb84dd4d9fe195a04664736f6c63430008140033",
  "linkReferences": {},
  "deployedLinkReferences": {}
}